{
    "_format": "hh-sol-artifact-1",
    "contractName": "TokenVaultWithRelayer",
    "sourceName": "contracts/Vault.sol",
    "abi": [
        {
            "inputs": [
                {
                    "internalType": "address",
                    "name": "initialOwner",
                    "type": "address"
                },
                {
                    "internalType": "address",
                    "name": "_token",
                    "type": "address"
                },
                {
                    "internalType": "contract IERC4626[3]",
                    "name": "_externalVaults",
                    "type": "address[3]"
                }
            ],
            "stateMutability": "payable",
            "type": "constructor"
        },
        {
            "inputs": [],
            "name": "AccessControlBadConfirmation",
            "type": "error"
        },
        {
            "inputs": [
                {
                    "internalType": "address",
                    "name": "account",
                    "type": "address"
                },
                {
                    "internalType": "bytes32",
                    "name": "neededRole",
                    "type": "bytes32"
                }
            ],
            "name": "AccessControlUnauthorizedAccount",
            "type": "error"
        },
        {
            "inputs": [],
            "name": "EnforcedPause",
            "type": "error"
        },
        {
            "inputs": [],
            "name": "ExpectedPause",
            "type": "error"
        },
        {
            "inputs": [
                {
                    "internalType": "address",
                    "name": "account",
                    "type": "address"
                },
                {
                    "internalType": "uint256",
                    "name": "currentNonce",
                    "type": "uint256"
                }
            ],
            "name": "InvalidAccountNonce",
            "type": "error"
        },
        {
            "inputs": [],
            "name": "InvalidShortString",
            "type": "error"
        },
        {
            "inputs": [],
            "name": "ReentrancyGuardReentrantCall",
            "type": "error"
        },
        {
            "inputs": [
                {
                    "internalType": "address",
                    "name": "token",
                    "type": "address"
                }
            ],
            "name": "SafeERC20FailedOperation",
            "type": "error"
        },
        {
            "inputs": [
                {
                    "internalType": "string",
                    "name": "str",
                    "type": "string"
                }
            ],
            "name": "StringTooLong",
            "type": "error"
        },
        {
            "anonymous": false,
            "inputs": [
                {
                    "indexed": false,
                    "internalType": "uint256",
                    "name": "user",
                    "type": "uint256"
                },
                {
                    "indexed": false,
                    "internalType": "uint8",
                    "name": "profile",
                    "type": "uint8"
                }
            ],
            "name": "AuthProfileSet",
            "type": "event"
        },
        {
            "anonymous": false,
            "inputs": [
                {
                    "indexed": false,
                    "internalType": "uint256",
                    "name": "user",
                    "type": "uint256"
                },
                {
                    "indexed": false,
                    "internalType": "uint256",
                    "name": "assets",
                    "type": "uint256"
                }
            ],
            "name": "Deposit",
            "type": "event"
        },
        {
            "anonymous": false,
            "inputs": [],
            "name": "EIP712DomainChanged",
            "type": "event"
        },
        {
            "anonymous": false,
            "inputs": [
                {
                    "indexed": false,
                    "internalType": "address",
                    "name": "newOwner",
                    "type": "address"
                }
            ],
            "name": "OwnerChanged",
            "type": "event"
        },
        {
            "anonymous": false,
            "inputs": [
                {
                    "indexed": false,
                    "internalType": "address",
                    "name": "account",
                    "type": "address"
                }
            ],
            "name": "Paused",
            "type": "event"
        },
        {
            "anonymous": false,
            "inputs": [
                {
                    "indexed": false,
                    "internalType": "address",
                    "name": "account",
                    "type": "address"
                }
            ],
            "name": "RelayerAdded",
            "type": "event"
        },
        {
            "anonymous": false,
            "inputs": [
                {
                    "indexed": false,
                    "internalType": "uint256",
                    "name": "user",
                    "type": "uint256"
                },
                {
                    "indexed": false,
                    "internalType": "uint8",
                    "name": "profile",
                    "type": "uint8"
                }
            ],
            "name": "RiskProfileSet",
            "type": "event"
        },
        {
            "anonymous": false,
            "inputs": [
                {
                    "indexed": true,
                    "internalType": "bytes32",
                    "name": "role",
                    "type": "bytes32"
                },
                {
                    "indexed": true,
                    "internalType": "bytes32",
                    "name": "previousAdminRole",
                    "type": "bytes32"
                },
                {
                    "indexed": true,
                    "internalType": "bytes32",
                    "name": "newAdminRole",
                    "type": "bytes32"
                }
            ],
            "name": "RoleAdminChanged",
            "type": "event"
        },
        {
            "anonymous": false,
            "inputs": [
                {
                    "indexed": true,
                    "internalType": "bytes32",
                    "name": "role",
                    "type": "bytes32"
                },
                {
                    "indexed": true,
                    "internalType": "address",
                    "name": "account",
                    "type": "address"
                },
                {
                    "indexed": true,
                    "internalType": "address",
                    "name": "sender",
                    "type": "address"
                }
            ],
            "name": "RoleGranted",
            "type": "event"
        },
        {
            "anonymous": false,
            "inputs": [
                {
                    "indexed": true,
                    "internalType": "bytes32",
                    "name": "role",
                    "type": "bytes32"
                },
                {
                    "indexed": true,
                    "internalType": "address",
                    "name": "account",
                    "type": "address"
                },
                {
                    "indexed": true,
                    "internalType": "address",
                    "name": "sender",
                    "type": "address"
                }
            ],
            "name": "RoleRevoked",
            "type": "event"
        },
        {
            "anonymous": false,
            "inputs": [
                {
                    "indexed": false,
                    "internalType": "uint256",
                    "name": "userFrom",
                    "type": "uint256"
                },
                {
                    "indexed": false,
                    "internalType": "address",
                    "name": "userTo",
                    "type": "address"
                },
                {
                    "indexed": false,
                    "internalType": "uint256",
                    "name": "assets",
                    "type": "uint256"
                }
            ],
            "name": "Transfer",
            "type": "event"
        },
        {
            "anonymous": false,
            "inputs": [
                {
                    "indexed": false,
                    "internalType": "uint256",
                    "name": "userFrom",
                    "type": "uint256"
                },
                {
                    "indexed": false,
                    "internalType": "uint256",
                    "name": "userTo",
                    "type": "uint256"
                },
                {
                    "indexed": false,
                    "internalType": "uint256",
                    "name": "assets",
                    "type": "uint256"
                }
            ],
            "name": "TransferWithinVault",
            "type": "event"
        },
        {
            "anonymous": false,
            "inputs": [
                {
                    "indexed": false,
                    "internalType": "address",
                    "name": "account",
                    "type": "address"
                }
            ],
            "name": "Unpaused",
            "type": "event"
        },
        {
            "anonymous": false,
            "inputs": [
                {
                    "indexed": false,
                    "internalType": "uint256",
                    "name": "user",
                    "type": "uint256"
                },
                {
                    "indexed": false,
                    "internalType": "address",
                    "name": "wallet",
                    "type": "address"
                }
            ],
            "name": "UserRegistered",
            "type": "event"
        },
        {
            "anonymous": false,
            "inputs": [
                {
                    "indexed": false,
                    "internalType": "uint256",
                    "name": "user",
                    "type": "uint256"
                },
                {
                    "indexed": false,
                    "internalType": "address",
                    "name": "addressTo",
                    "type": "address"
                },
                {
                    "indexed": false,
                    "internalType": "uint256",
                    "name": "assets",
                    "type": "uint256"
                }
            ],
            "name": "Withdraw",
            "type": "event"
        },
        {
            "inputs": [],
            "name": "AUTH_PROFILE_TYPEHASH",
            "outputs": [
                {
                    "internalType": "bytes32",
                    "name": "",
                    "type": "bytes32"
                }
            ],
            "stateMutability": "view",
            "type": "function"
        },
        {
            "inputs": [
                {
                    "internalType": "uint256",
                    "name": "_user",
                    "type": "uint256"
                },
                {
                    "internalType": "uint8",
                    "name": "_authProfile",
                    "type": "uint8"
                },
                {
                    "internalType": "uint256",
                    "name": "nonce",
                    "type": "uint256"
                },
                {
                    "internalType": "bytes",
                    "name": "signature",
                    "type": "bytes"
                }
            ],
            "name": "ChangeAuthProfile",
            "outputs": [],
            "stateMutability": "nonpayable",
            "type": "function"
        },
        {
            "inputs": [
                {
                    "internalType": "uint256",
                    "name": "_user",
                    "type": "uint256"
                },
                {
                    "internalType": "uint8",
                    "name": "_riskProfile",
                    "type": "uint8"
                },
                {
                    "internalType": "uint256",
                    "name": "nonce",
                    "type": "uint256"
                },
                {
                    "internalType": "bytes",
                    "name": "signature",
                    "type": "bytes"
                }
            ],
            "name": "ChangeRiskProfile",
            "outputs": [],
            "stateMutability": "nonpayable",
            "type": "function"
        },
        {
            "inputs": [],
            "name": "DEFAULT_ADMIN_ROLE",
            "outputs": [
                {
                    "internalType": "bytes32",
                    "name": "",
                    "type": "bytes32"
                }
            ],
            "stateMutability": "view",
            "type": "function"
        },
        {
            "inputs": [],
            "name": "DEPOSIT_TYPEHASH",
            "outputs": [
                {
                    "internalType": "bytes32",
                    "name": "",
                    "type": "bytes32"
                }
            ],
            "stateMutability": "view",
            "type": "function"
        },
        {
            "inputs": [],
            "name": "NumberOfAuthProfiles",
            "outputs": [
                {
                    "internalType": "uint8",
                    "name": "",
                    "type": "uint8"
                }
            ],
            "stateMutability": "view",
            "type": "function"
        },
        {
            "inputs": [],
            "name": "NumberOfRiskProfiles",
            "outputs": [
                {
                    "internalType": "uint8",
                    "name": "",
                    "type": "uint8"
                }
            ],
            "stateMutability": "view",
            "type": "function"
        },
        {
            "inputs": [],
            "name": "RELAYER_ROLE",
            "outputs": [
                {
                    "internalType": "bytes32",
                    "name": "",
                    "type": "bytes32"
                }
            ],
            "stateMutability": "view",
            "type": "function"
        },
        {
            "inputs": [],
            "name": "RISK_PROFILE_TYPEHASH",
            "outputs": [
                {
                    "internalType": "bytes32",
                    "name": "",
                    "type": "bytes32"
                }
            ],
            "stateMutability": "view",
            "type": "function"
        },
        {
            "inputs": [
                {
                    "internalType": "uint256",
                    "name": "_user",
                    "type": "uint256"
                },
                {
                    "internalType": "address",
                    "name": "_wallet",
                    "type": "address"
                }
            ],
            "name": "RegisterUser",
            "outputs": [],
            "stateMutability": "nonpayable",
            "type": "function"
        },
        {
            "inputs": [],
            "name": "TRANSFER_TYPEHASH",
            "outputs": [
                {
                    "internalType": "bytes32",
                    "name": "",
                    "type": "bytes32"
                }
            ],
            "stateMutability": "view",
            "type": "function"
        },
        {
            "inputs": [],
            "name": "TRANSFER_WITHIN_VAULT_TYPEHASH",
            "outputs": [
                {
                    "internalType": "bytes32",
                    "name": "",
                    "type": "bytes32"
                }
            ],
            "stateMutability": "view",
            "type": "function"
        },
        {
            "inputs": [],
            "name": "WITHDRAW_TYPEHASH",
            "outputs": [
                {
                    "internalType": "bytes32",
                    "name": "",
                    "type": "bytes32"
                }
            ],
            "stateMutability": "view",
            "type": "function"
        },
        {
            "inputs": [
                {
                    "internalType": "address",
                    "name": "account",
                    "type": "address"
                }
            ],
            "name": "addRelayer",
            "outputs": [],
            "stateMutability": "nonpayable",
            "type": "function"
        },
        {
            "inputs": [
                {
                    "internalType": "address",
                    "name": "newOwner",
                    "type": "address"
                }
            ],
            "name": "changeOwner",
            "outputs": [],
            "stateMutability": "nonpayable",
            "type": "function"
        },
        {
            "inputs": [
                {
                    "internalType": "uint256",
                    "name": "user",
                    "type": "uint256"
                },
                {
                    "internalType": "uint256",
                    "name": "assets",
                    "type": "uint256"
                },
                {
                    "internalType": "uint256",
                    "name": "nonce",
                    "type": "uint256"
                },
                {
                    "internalType": "bytes",
                    "name": "signature",
                    "type": "bytes"
                }
            ],
            "name": "deposit",
            "outputs": [],
            "stateMutability": "nonpayable",
            "type": "function"
        },
        {
            "inputs": [],
            "name": "eip712Domain",
            "outputs": [
                {
                    "internalType": "bytes1",
                    "name": "fields",
                    "type": "bytes1"
                },
                {
                    "internalType": "string",
                    "name": "name",
                    "type": "string"
                },
                {
                    "internalType": "string",
                    "name": "version",
                    "type": "string"
                },
                {
                    "internalType": "uint256",
                    "name": "chainId",
                    "type": "uint256"
                },
                {
                    "internalType": "address",
                    "name": "verifyingContract",
                    "type": "address"
                },
                {
                    "internalType": "bytes32",
                    "name": "salt",
                    "type": "bytes32"
                },
                {
                    "internalType": "uint256[]",
                    "name": "extensions",
                    "type": "uint256[]"
                }
            ],
            "stateMutability": "view",
            "type": "function"
        },
        {
            "inputs": [
                {
                    "internalType": "uint256",
                    "name": "",
                    "type": "uint256"
                }
            ],
            "name": "externalVaults",
            "outputs": [
                {
                    "internalType": "contract IERC4626",
                    "name": "",
                    "type": "address"
                }
            ],
            "stateMutability": "view",
            "type": "function"
        },
        {
            "inputs": [
                {
                    "internalType": "uint256",
                    "name": "user",
                    "type": "uint256"
                }
            ],
            "name": "getNonce",
            "outputs": [
                {
                    "internalType": "uint256",
                    "name": "",
                    "type": "uint256"
                }
            ],
            "stateMutability": "view",
            "type": "function"
        },
        {
            "inputs": [
                {
                    "internalType": "bytes32",
                    "name": "role",
                    "type": "bytes32"
                }
            ],
            "name": "getRoleAdmin",
            "outputs": [
                {
                    "internalType": "bytes32",
                    "name": "",
                    "type": "bytes32"
                }
            ],
            "stateMutability": "view",
            "type": "function"
        },
        {
            "inputs": [
                {
                    "internalType": "uint256",
                    "name": "user",
                    "type": "uint256"
                }
            ],
            "name": "getUserAssets",
            "outputs": [
                {
                    "internalType": "uint256",
                    "name": "",
                    "type": "uint256"
                }
            ],
            "stateMutability": "view",
            "type": "function"
        },
        {
            "inputs": [
                {
                    "internalType": "uint256",
                    "name": "user",
                    "type": "uint256"
                }
            ],
            "name": "getUserAuthProfile",
            "outputs": [
                {
                    "internalType": "uint8",
                    "name": "",
                    "type": "uint8"
                }
            ],
            "stateMutability": "view",
            "type": "function"
        },
        {
            "inputs": [
                {
                    "internalType": "uint256",
                    "name": "user",
                    "type": "uint256"
                }
            ],
            "name": "getUserRiskProfile",
            "outputs": [
                {
                    "internalType": "uint8",
                    "name": "",
                    "type": "uint8"
                }
            ],
            "stateMutability": "view",
            "type": "function"
        },
        {
            "inputs": [
                {
                    "internalType": "uint256",
                    "name": "user",
                    "type": "uint256"
                }
            ],
            "name": "getUserShares",
            "outputs": [
                {
                    "internalType": "uint256",
                    "name": "",
                    "type": "uint256"
                }
            ],
            "stateMutability": "view",
            "type": "function"
        },
        {
            "inputs": [
                {
                    "internalType": "uint256",
                    "name": "user",
                    "type": "uint256"
                }
            ],
            "name": "getUserWallet",
            "outputs": [
                {
                    "internalType": "address",
                    "name": "",
                    "type": "address"
                }
            ],
            "stateMutability": "view",
            "type": "function"
        },
        {
            "inputs": [
                {
                    "internalType": "bytes32",
                    "name": "role",
                    "type": "bytes32"
                },
                {
                    "internalType": "address",
                    "name": "account",
                    "type": "address"
                }
            ],
            "name": "grantRole",
            "outputs": [],
            "stateMutability": "nonpayable",
            "type": "function"
        },
        {
            "inputs": [
                {
                    "internalType": "bytes32",
                    "name": "role",
                    "type": "bytes32"
                },
                {
                    "internalType": "address",
                    "name": "account",
                    "type": "address"
                }
            ],
            "name": "hasRole",
            "outputs": [
                {
                    "internalType": "bool",
                    "name": "",
                    "type": "bool"
                }
            ],
            "stateMutability": "view",
            "type": "function"
        },
        {
            "inputs": [
                {
                    "internalType": "address",
                    "name": "owner",
                    "type": "address"
                }
            ],
            "name": "nonces",
            "outputs": [
                {
                    "internalType": "uint256",
                    "name": "",
                    "type": "uint256"
                }
            ],
            "stateMutability": "view",
            "type": "function"
        },
        {
            "inputs": [],
            "name": "pause",
            "outputs": [],
            "stateMutability": "nonpayable",
            "type": "function"
        },
        {
            "inputs": [],
            "name": "paused",
            "outputs": [
                {
                    "internalType": "bool",
                    "name": "",
                    "type": "bool"
                }
            ],
            "stateMutability": "view",
            "type": "function"
        },
        {
            "inputs": [
                {
                    "internalType": "bytes32",
                    "name": "role",
                    "type": "bytes32"
                },
                {
                    "internalType": "address",
                    "name": "callerConfirmation",
                    "type": "address"
                }
            ],
            "name": "renounceRole",
            "outputs": [],
            "stateMutability": "nonpayable",
            "type": "function"
        },
        {
            "inputs": [
                {
                    "internalType": "bytes32",
                    "name": "role",
                    "type": "bytes32"
                },
                {
                    "internalType": "address",
                    "name": "account",
                    "type": "address"
                }
            ],
            "name": "revokeRole",
            "outputs": [],
            "stateMutability": "nonpayable",
            "type": "function"
        },
        {
            "inputs": [
                {
                    "internalType": "bytes4",
                    "name": "interfaceId",
                    "type": "bytes4"
                }
            ],
            "name": "supportsInterface",
            "outputs": [
                {
                    "internalType": "bool",
                    "name": "",
                    "type": "bool"
                }
            ],
            "stateMutability": "view",
            "type": "function"
        },
        {
            "inputs": [],
            "name": "token",
            "outputs": [
                {
                    "internalType": "contract IERC20",
                    "name": "",
                    "type": "address"
                }
            ],
            "stateMutability": "view",
            "type": "function"
        },
        {
            "inputs": [],
            "name": "tokenPermit",
            "outputs": [
                {
                    "internalType": "contract IERC20Permit",
                    "name": "",
                    "type": "address"
                }
            ],
            "stateMutability": "view",
            "type": "function"
        },
        {
            "inputs": [
                {
                    "internalType": "uint256",
                    "name": "userFrom",
                    "type": "uint256"
                },
                {
                    "internalType": "address",
                    "name": "userTo",
                    "type": "address"
                },
                {
                    "internalType": "uint256",
                    "name": "assets",
                    "type": "uint256"
                },
                {
                    "internalType": "uint256",
                    "name": "nonce",
                    "type": "uint256"
                },
                {
                    "internalType": "bytes",
                    "name": "signature",
                    "type": "bytes"
                }
            ],
            "name": "transfer",
            "outputs": [],
            "stateMutability": "nonpayable",
            "type": "function"
        },
        {
            "inputs": [
                {
                    "internalType": "uint256",
                    "name": "userFrom",
                    "type": "uint256"
                },
                {
                    "internalType": "uint256",
                    "name": "userTo",
                    "type": "uint256"
                },
                {
                    "internalType": "uint256",
                    "name": "assets",
                    "type": "uint256"
                },
                {
                    "internalType": "uint256",
                    "name": "nonce",
                    "type": "uint256"
                },
                {
                    "internalType": "bytes",
                    "name": "signature",
                    "type": "bytes"
                }
            ],
            "name": "transferWithinVault",
            "outputs": [],
            "stateMutability": "nonpayable",
            "type": "function"
        },
        {
            "inputs": [],
            "name": "unpause",
            "outputs": [],
            "stateMutability": "nonpayable",
            "type": "function"
        },
        {
            "inputs": [
                {
                    "internalType": "uint256",
                    "name": "",
                    "type": "uint256"
                }
            ],
            "name": "userAddresses",
            "outputs": [
                {
                    "internalType": "address",
                    "name": "",
                    "type": "address"
                }
            ],
            "stateMutability": "view",
            "type": "function"
        },
        {
            "inputs": [
                {
                    "internalType": "uint256",
                    "name": "",
                    "type": "uint256"
                }
            ],
            "name": "userAuthProfile",
            "outputs": [
                {
                    "internalType": "uint8",
                    "name": "",
                    "type": "uint8"
                }
            ],
            "stateMutability": "view",
            "type": "function"
        },
        {
            "inputs": [
                {
                    "internalType": "uint256",
                    "name": "",
                    "type": "uint256"
                }
            ],
            "name": "userRiskProfile",
            "outputs": [
                {
                    "internalType": "uint8",
                    "name": "",
                    "type": "uint8"
                }
            ],
            "stateMutability": "view",
            "type": "function"
        },
        {
            "inputs": [
                {
                    "internalType": "uint256",
                    "name": "",
                    "type": "uint256"
                }
            ],
            "name": "userShares",
            "outputs": [
                {
                    "internalType": "uint256",
                    "name": "",
                    "type": "uint256"
                }
            ],
            "stateMutability": "view",
            "type": "function"
        },
        {
            "inputs": [
                {
                    "internalType": "uint256",
                    "name": "user",
                    "type": "uint256"
                },
                {
                    "internalType": "address",
                    "name": "addressTo",
                    "type": "address"
                },
                {
                    "internalType": "uint256",
                    "name": "assets",
                    "type": "uint256"
                },
                {
                    "internalType": "uint256",
                    "name": "nonce",
                    "type": "uint256"
                },
                {
                    "internalType": "bytes",
                    "name": "signature",
                    "type": "bytes"
                }
            ],
            "name": "withdraw",
            "outputs": [],
            "stateMutability": "nonpayable",
            "type": "function"
        }
    ],
    "bytecode": "0x6101a060405260405161357038038061357083398101604081905261002391610529565b604080518082018252601581527f546f6b656e5661756c745769746852656c617965720000000000000000000000602080830191909152825180840190935260018352603160f81b908301529061007b8260006101d1565b6101205261008a8160016101d1565b61014052815160208084019190912060e052815190820120610100524660a05261011760e05161010051604080517f8b73c3c69bb8fe3d512ecc4cf759cc79239f7b179b0ffacaa9a75d522b39400f60208201529081019290925260608201524660808201523060a082015260009060c00160405160208183030381529060405280519060200120905090565b60805250503060c0526001600355610130600084610204565b5061015b7fe2b7fb3b832174769106daebcfd6d1970523240dda11281102db9363b83b0dc484610204565b506001600160a01b0382166101608190526101805261017d600682600361047e565b5060005b600360ff821610156101c8576101c0828260ff16600381106101a5576101a56105d4565b6020020151610160516001600160a01b0316906000196102b2565b600101610181565b505050506107a3565b60006020835110156101ed576101e683610377565b90506101fe565b816101f88482610673565b5060ff90505b92915050565b60008281526002602090815260408083206001600160a01b038516845290915281205460ff166102aa5760008381526002602090815260408083206001600160a01b03861684529091529020805460ff191660011790556102623390565b6001600160a01b0316826001600160a01b0316847f2f8788117e7eff1d82e926ec794901d17c78024a50270940304540a733656f0d60405160405180910390a45060016101fe565b5060006101fe565b604080516001600160a01b038416602482015260448082018490528251808303909101815260649091019091526020810180516001600160e01b0390811663095ea7b360e01b1790915261030a90859083906103be16565b61037157604080516001600160a01b038516602482015260006044808301919091528251808303909101815260649091019091526020810180516001600160e01b0390811663095ea7b360e01b1790915261036791869161040d16565b610371848261040d565b50505050565b600080829050601f815111156103ab578260405163305a27a960e01b81526004016103a29190610731565b60405180910390fd5b80516103b68261077f565b179392505050565b6000806000806020600086516020880160008a5af192503d91506000519050828015610403575081156103f45780600114610403565b6000866001600160a01b03163b115b9695505050505050565b600080602060008451602086016000885af180610430576040513d6000823e3d81fd5b50506000513d91508115610448578060011415610455565b6001600160a01b0384163b155b1561037157604051635274afe760e01b81526001600160a01b03851660048201526024016103a2565b82600381019282156104c6579160200282015b828111156104c657825182546001600160a01b0319166001600160a01b03909116178255602090920191600190910190610491565b506104d29291506104d6565b5090565b5b808211156104d257600081556001016104d7565b6001600160a01b038116811461050057600080fd5b50565b634e487b7160e01b600052604160045260246000fd5b8051610524816104eb565b919050565b600080600060a0848603121561053e57600080fd5b8351610549816104eb565b602085015190935061055a816104eb565b9150605f8401851361056b57600080fd5b604051606081016001600160401b038111828210171561058d5761058d610503565b6040528060a08601878111156105a257600080fd5b604087015b818110156105c6576105b881610519565b8352602092830192016105a7565b505050809150509250925092565b634e487b7160e01b600052603260045260246000fd5b600181811c908216806105fe57607f821691505b60208210810361061e57634e487b7160e01b600052602260045260246000fd5b50919050565b601f82111561066e57806000526020600020601f840160051c8101602085101561064b5750805b601f840160051c820191505b8181101561066b5760008155600101610657565b50505b505050565b81516001600160401b0381111561068c5761068c610503565b6106a08161069a84546105ea565b84610624565b6020601f8211600181146106d457600083156106bc5750848201515b600019600385901b1c1916600184901b17845561066b565b600084815260208120601f198516915b8281101561070457878501518255602094850194600190920191016106e4565b50848210156107225786840151600019600387901b60f8161c191681555b50505050600190811b01905550565b602081526000825180602084015260005b8181101561075f5760208186018101516040868401015201610742565b506000604082850101526040601f19601f83011684010191505092915050565b8051602080830151919081101561061e5760001960209190910360031b1b16919050565b60805160a05160c05160e0516101005161012051610140516101605161018051612d5661081a600039600061067f0152600081816107020152610ea0015260006124ad0152600061247b01526000612822015260006127fa015260006127550152600061277f015260006127a90152612d566000f3fe608060405234801561001057600080fd5b50600436106102985760003560e01c806376e3cf7311610171578063a9ee7825116100d3578063d547741f11610097578063f0ea385211610071578063f0ea3852146106da578063fc0c546a146106fd578063ff755e4d1461072457600080fd5b8063d547741f146106a1578063dd39f00d146106b4578063eeaa9c98146106c757600080fd5b8063a9ee7825146105fd578063a9f845cb1461061d578063b5b5e57414610644578063b6cc682314610667578063d068ce8a1461067a57600080fd5b8063926d7d7f11610135578063a217fddf1161010f578063a217fddf146105e2578063a5ffae1714610427578063a6f9dae1146105ea57600080fd5b8063926d7d7f1461057f578063932bf801146105a65780639dfb9bd6146105cf57600080fd5b806376e3cf73146104d35780637ecebe00146104fa5780638456cb591461052357806384b0196e1461052b57806391d148541461054657600080fd5b80633d46b8191161021a5780635972d893116101de5780635dfd7787116101b85780635dfd77871461047257806376b8ce3b1461048557806376c5d758146104ac57600080fd5b80635972d893146104415780635ba506ef146104545780635c975abb1461046757600080fd5b80633d46b819146103bc5780633f4ba83a146103cf57806348825e94146103d7578063502c9bd5146103fe578063564d56841461042757600080fd5b806327cc37b01161026157806327cc37b014610345578063295e9636146103585780632ae478dd1461036b5780632f2ff15d1461039657806336568abe146103a957600080fd5b8062bf26f41461029d57806301ffc9a7146102d75780631940ea10146102fa57806322de44f71461030f578063248a9ca314610322575b600080fd5b6102c47f37e8e6aa9d30f4b7ea8be5e8c39f0ed1bb9cf5313c01ed028d27840cbabc39a681565b6040519081526020015b60405180910390f35b6102ea6102e53660046128f0565b610737565b60405190151581526020016102ce565b61030d610308366004612930565b61076e565b005b61030d61031d3660046129a5565b610888565b6102c4610330366004612a0f565b60009081526002602052604090206001015490565b61030d610353366004612a28565b610d2d565b61030d610366366004612a89565b610fd8565b61037e610379366004612a0f565b6112f2565b6040516001600160a01b0390911681526020016102ce565b61030d6103a4366004612930565b611312565b61030d6103b7366004612930565b61133d565b6102c46103ca366004612a0f565b611370565b61030d6113f4565b6102c47f740f278900cf051f7af32c64f32e9e0d9d91fb2832083c991513fe05819c923681565b61037e61040c366004612a0f565b6009602052600090815260409020546001600160a01b031681565b61042f600381565b60405160ff90911681526020016102ce565b6102c461044f366004612a0f565b61140a565b6102c4610462366004612a0f565b611477565b60055460ff166102ea565b61030d610480366004612a89565b611578565b6102c47f8c5a700c4682b8cf4fe1db93dea18793ed906aa236e163d3398abf94c5be38fc81565b6102c47f1dc4eeed4fde0a40b582f988245f173d12cbb696afb29dfb85b0538faedd904781565b6102c47f2b9ae6abc24da0798b2511cfe09ba86d4dd0a6d3495551ce1303a4771e5da31a81565b6102c4610508366004612adc565b6001600160a01b031660009081526004602052604090205490565b61030d61171f565b610533611732565b6040516102ce9796959493929190612b3d565b6102ea610554366004612930565b60009182526002602090815260408084206001600160a01b0393909316845291905290205460ff1690565b6102c47fe2b7fb3b832174769106daebcfd6d1970523240dda11281102db9363b83b0dc481565b61037e6105b4366004612a0f565b6000908152600960205260409020546001600160a01b031690565b61030d6105dd366004612bd5565b611778565b6102c4600081565b61030d6105f8366004612adc565b6119f6565b6102c461060b366004612a0f565b600a6020526000908152604090205481565b6102c47f324c4a502970c9d3f06ddf69b43e10c1c296cf6d97dac4a6230c2d0cafc3b9f281565b61042f610652366004612a0f565b600c6020526000908152604090205460ff1681565b61042f610675366004612a0f565b611a5f565b61037e7f000000000000000000000000000000000000000000000000000000000000000081565b61030d6106af366004612930565b611acf565b61030d6106c2366004612adc565b611af4565b61042f6106d5366004612a0f565b611b6a565b61042f6106e8366004612a0f565b600b6020526000908152604090205460ff1681565b61037e7f000000000000000000000000000000000000000000000000000000000000000081565b61030d610732366004612bd5565b611bda565b60006001600160e01b03198216637965db0b60e01b148061076857506301ffc9a760e01b6001600160e01b03198316145b92915050565b7fe2b7fb3b832174769106daebcfd6d1970523240dda11281102db9363b83b0dc461079881611f37565b6107a0611f41565b6000838152600960205260409020546001600160a01b03161561080a5760405162461bcd60e51b815260206004820152601760248201527f5573657220616c7265616479207265676973746572656400000000000000000060448201526064015b60405180910390fd5b600083815260096020908152604091829020805473ffffffffffffffffffffffffffffffffffffffff19166001600160a01b0386169081179091558251868152918201527fb442efe467d2ef30e62927a3cae0afcbc799a8a0944d8a143332e4e5e51cee5d910160405180910390a16108836001600355565b505050565b610890611f6b565b610898611f41565b6000868152600960205260409020546001600160a01b03166108f25760405162461bcd60e51b8152602060048201526013602482015272155cd95c881b9bdd081c9959da5cdd195c9959606a1b6044820152606401610801565b6000858152600960205260409020546001600160a01b03166109565760405162461bcd60e51b815260206004820152601760248201527f5265636569766572206e6f7420726567697374657265640000000000000000006044820152606401610801565b6000868152600960209081526040808320546001600160a01b03168352600490915290205483146109b95760405162461bcd60e51b815260206004820152600d60248201526c496e76616c6964206e6f6e636560981b6044820152606401610801565b6000868152600c6020526040902054600260ff9091161015610a23576109e3868686868686611f91565b610a235760405162461bcd60e51b8152602060048201526011602482015270496e76616c6964207369676e617475726560781b6044820152606401610801565b6000868152600960209081526040808320546001600160a01b031683526004825280832080546001019055888352600b9091528082205487835291205460ff9182169116808203610b4657600060068360ff1660038110610a8657610a86612c28565b01546040516363737ac960e11b8152600481018990526001600160a01b039091169063c6e6f59290602401602060405180830381865afa158015610ace573d6000803e3d6000fd5b505050506040513d601f19601f82011682018060405250810190610af29190612c3e565b905080600a60008b81526020019081526020016000206000828254610b179190612c6d565b90915550506000888152600a602052604081208054839290610b3a908490612c80565b90915550610cd8915050565b600060068360ff1660038110610b5e57610b5e612c28565b015460008981526009602052604090819020549051632d182be560e21b8152600481018a90523060248201526001600160a01b03918216604482015291169063b460af94906064016020604051808303816000875af1158015610bc5573d6000803e3d6000fd5b505050506040513d601f19601f82011682018060405250810190610be99190612c3e565b9050600060068360ff1660038110610c0357610c03612c28565b015460008a81526009602052604090819020549051636e553f6560e01b8152600481018b90526001600160a01b039182166024820152911690636e553f65906044016020604051808303816000875af1158015610c64573d6000803e3d6000fd5b505050506040513d601f19601f82011682018060405250810190610c889190612c3e565b905081600a60008c81526020019081526020016000206000828254610cad9190612c6d565b90915550506000898152600a602052604081208054839290610cd0908490612c80565b909155505050505b60408051898152602081018990529081018790527ff6b9becd23b4420f8fd6f8cde42307ca0cab31c11ad2fcb4f5a966d85dc63b2b9060600160405180910390a15050610d256001600355565b505050505050565b610d35611f6b565b610d3d611f41565b6000858152600960205260409020546001600160a01b0316610d975760405162461bcd60e51b8152602060048201526013602482015272155cd95c881b9bdd081c9959da5cdd195c9959606a1b6044820152606401610801565b6000858152600960209081526040808320546001600160a01b0316835260049091529020548314610dfa5760405162461bcd60e51b815260206004820152600d60248201526c496e76616c6964206e6f6e636560981b6044820152606401610801565b6000858152600c6020526040902054600160ff9091161015610e6357610e2385858585856120a0565b610e635760405162461bcd60e51b8152602060048201526011602482015270496e76616c6964207369676e617475726560781b6044820152606401610801565b600085815260096020818152604080842080546001600160a01b0390811686526004845291852080546001019055938990529190529054610eca917f00000000000000000000000000000000000000000000000000000000000000008116911630876121a7565b6000858152600b602052604081205460069060ff1660038110610eef57610eef612c28565b0154604051636e553f6560e01b8152600481018790523060248201526001600160a01b0390911690636e553f65906044016020604051808303816000875af1158015610f3f573d6000803e3d6000fd5b505050506040513d601f19601f82011682018060405250810190610f639190612c3e565b905080600a60008881526020019081526020016000206000828254610f889190612c80565b909155505060408051878152602081018790527fa3af609bf46297028ce551832669030f9effef2b02606d02cbbcc40fe6b47c55910160405180910390a150610fd16001600355565b5050505050565b7fe2b7fb3b832174769106daebcfd6d1970523240dda11281102db9363b83b0dc461100281611f37565b61100a611f41565b6000868152600960205260409020546001600160a01b03166110645760405162461bcd60e51b8152602060048201526013602482015272155cd95c881b9bdd081c9959da5cdd195c9959606a1b6044820152606401610801565b600360ff8616106110b75760405162461bcd60e51b815260206004820152601460248201527f496e76616c6964207269736b2070726f66696c650000000000000000000000006044820152606401610801565b6000868152600c6020526040902054600260ff909116101561112c576110e08686868686612216565b61112c5760405162461bcd60e51b815260206004820152601660248201527f55736572206e6f742061757468656e74696361746564000000000000000000006044820152606401610801565b6000868152600a602052604090205415611291576000868152600b602052604081205460069060ff166003811061116557611165612c28565b01546000888152600a602052604090819020549051632d182be560e21b81526004810191909152306024820181905260448201526001600160a01b039091169063b460af94906064016020604051808303816000875af11580156111cd573d6000803e3d6000fd5b505050506040513d601f19601f820116820180604052508101906111f19190612c3e565b9050600060068760ff166003811061120b5761120b612c28565b0154604051636e553f6560e01b8152600481018490523060248201526001600160a01b0390911690636e553f65906044016020604051808303816000875af115801561125b573d6000803e3d6000fd5b505050506040513d601f19601f8201168201806040525081019061127f9190612c3e565b6000898152600a602052604090205550505b6000868152600b6020908152604091829020805460ff191660ff89169081179091558251898152918201527f4a1aad2522dd09c435754834bba69e2394af841f429078ea985a80091519b76491015b60405180910390a1610d256001600355565b6006816003811061130257600080fd5b01546001600160a01b0316905081565b60008281526002602052604090206001015461132d81611f37565b6113378383612263565b50505050565b6001600160a01b03811633146113665760405163334bd91960e11b815260040160405180910390fd5b6108838282612311565b6000818152600960205260408120546001600160a01b03166113ca5760405162461bcd60e51b8152602060048201526013602482015272155cd95c881b9bdd081c9959da5cdd195c9959606a1b6044820152606401610801565b6000828152600960209081526040808320546001600160a01b031683526004909152902054610768565b60006113ff81611f37565b611407612398565b50565b6000818152600960205260408120546001600160a01b03166114645760405162461bcd60e51b8152602060048201526013602482015272155cd95c881b9bdd081c9959da5cdd195c9959606a1b6044820152606401610801565b506000908152600a602052604090205490565b6000818152600960205260408120546001600160a01b03166114d15760405162461bcd60e51b8152602060048201526013602482015272155cd95c881b9bdd081c9959da5cdd195c9959606a1b6044820152606401610801565b6000828152600b602052604090205460069060ff16600381106114f6576114f6612c28565b01546000838152600a6020526040908190205490516303d1689d60e11b81526001600160a01b03909216916307a2d13a916115379160040190815260200190565b602060405180830381865afa158015611554573d6000803e3d6000fd5b505050506040513d601f19601f820116820180604052508101906107689190612c3e565b7fe2b7fb3b832174769106daebcfd6d1970523240dda11281102db9363b83b0dc46115a281611f37565b6115aa611f41565b6000868152600960205260409020546001600160a01b03166116045760405162461bcd60e51b8152602060048201526013602482015272155cd95c881b9bdd081c9959da5cdd195c9959606a1b6044820152606401610801565b600360ff8616106116575760405162461bcd60e51b815260206004820152601460248201527f496e76616c696420617574682070726f66696c650000000000000000000000006044820152606401610801565b6000868152600c6020526040902054600260ff90911610156116cc5761168086868686866123ea565b6116cc5760405162461bcd60e51b815260206004820152601660248201527f55736572206e6f742061757468656e74696361746564000000000000000000006044820152606401610801565b6000868152600c6020908152604091829020805460ff191660ff89169081179091558251898152918201527fa535332199fc6ba20738ea9ab2b789d80cd575920c1e5a0210a17185423c49d891016112e0565b600061172a81611f37565b611407612437565b600060608060008060006060611746612474565b61174e6124a6565b60408051600080825260208201909252600f60f81b9b939a50919850469750309650945092509050565b611780611f6b565b611788611f41565b6000868152600960205260409020546001600160a01b03166117e25760405162461bcd60e51b8152602060048201526013602482015272155cd95c881b9bdd081c9959da5cdd195c9959606a1b6044820152606401610801565b6000868152600960209081526040808320546001600160a01b03168352600490915290205483146118455760405162461bcd60e51b815260206004820152600d60248201526c496e76616c6964206e6f6e636560981b6044820152606401610801565b6000868152600c6020526040902054600160ff90911610156118af5761186f8686868686866124d3565b6118af5760405162461bcd60e51b8152602060048201526011602482015270496e76616c6964207369676e617475726560781b6044820152606401610801565b6000868152600960209081526040808320546001600160a01b031683526004825280832080546001019055888352600b90915281205460069060ff16600381106118fb576118fb612c28565b0154604051632d182be560e21b8152600481018790526001600160a01b0388811660248301523060448301529091169063b460af94906064016020604051808303816000875af1158015611953573d6000803e3d6000fd5b505050506040513d601f19601f820116820180604052508101906119779190612c3e565b905080600a6000898152602001908152602001600020600082825461199c9190612c6d565b9091555050604080518881526001600160a01b03881660208201529081018690527f2e90d1cd7a5e9a5b99747c36130d866c8687bff313d44cdd245df73bcda43621906060015b60405180910390a150610d256001600355565b6000611a0181611f37565b611a09611f41565b611a14600083611312565b6040516001600160a01b03831681527fa2ea9883a321a3e97b8266c2b078bfeec6d50c711ed71f874a90d500ae2eaf36906020015b60405180910390a1611a5b6001600355565b5050565b6000818152600960205260408120546001600160a01b0316611ab95760405162461bcd60e51b8152602060048201526013602482015272155cd95c881b9bdd081c9959da5cdd195c9959606a1b6044820152606401610801565b506000908152600b602052604090205460ff1690565b600082815260026020526040902060010154611aea81611f37565b6113378383612311565b6000611aff81611f37565b611b07611f41565b611b317fe2b7fb3b832174769106daebcfd6d1970523240dda11281102db9363b83b0dc483611312565b6040516001600160a01b03831681527f03580ee9f53a62b7cb409a2cb56f9be87747dd15017afc5cef6eef321e4fb2c590602001611a49565b6000818152600960205260408120546001600160a01b0316611bc45760405162461bcd60e51b8152602060048201526013602482015272155cd95c881b9bdd081c9959da5cdd195c9959606a1b6044820152606401610801565b506000908152600c602052604090205460ff1690565b611be2611f6b565b611bea611f41565b6000868152600960205260409020546001600160a01b0316611c445760405162461bcd60e51b8152602060048201526013602482015272155cd95c881b9bdd081c9959da5cdd195c9959606a1b6044820152606401610801565b6000868152600960209081526040808320546001600160a01b0316835260049091529020548314611ca75760405162461bcd60e51b815260206004820152600d60248201526c496e76616c6964206e6f6e636560981b6044820152606401610801565b6000868152600c6020526040902054600260ff9091161015611d1157611cd186868686868661252d565b611d115760405162461bcd60e51b8152602060048201526011602482015270496e76616c6964207369676e617475726560781b6044820152606401610801565b6000868152600960209081526040808320546001600160a01b031683526004825280832080546001019055888352600b90915290205460069060ff1660038110611d5d57611d5d612c28565b01546040516363737ac960e11b8152600481018690526001600160a01b039091169063c6e6f59290602401602060405180830381865afa158015611da5573d6000803e3d6000fd5b505050506040513d601f19601f82011682018060405250810190611dc99190612c3e565b6000878152600a60205260409020541015611e265760405162461bcd60e51b815260206004820152601160248201527f4e6f7420656e6f756768207368617265730000000000000000000000000000006044820152606401610801565b6000868152600b602052604081205460069060ff1660038110611e4b57611e4b612c28565b0154604051632d182be560e21b8152600481018790526001600160a01b0388811660248301523060448301529091169063b460af94906064016020604051808303816000875af1158015611ea3573d6000803e3d6000fd5b505050506040513d601f19601f82011682018060405250810190611ec79190612c3e565b905080600a60008981526020019081526020016000206000828254611eec9190612c6d565b9091555050604080518881526001600160a01b03881660208201529081018690527f9da6493a92039daf47d1f2d7a782299c5994c6323eb1e972f69c432089ec52bf906060016119e3565b6114078133612587565b600260035403611f6457604051633ee5aeb560e01b815260040160405180910390fd5b6002600355565b60055460ff1615611f8f5760405163d93c066560e01b815260040160405180910390fd5b565b604080517f8c5a700c4682b8cf4fe1db93dea18793ed906aa236e163d3398abf94c5be38fc6020820152908101879052606081018690526080810185905260a08101849052600090819060c0015b6040516020818303038152906040528051906020012090506000612002826125dc565b60008a81526009602052604090819020549051630b135d3f60e11b8082529293506001600160a01b0390911690631626ba7e906120479085908a908a90600401612c93565b602060405180830381865afa158015612064573d6000803e3d6000fd5b505050506040513d601f19601f820116820180604052508101906120889190612cc9565b6001600160e01b031916149998505050505050505050565b604080517f740f278900cf051f7af32c64f32e9e0d9d91fb2832083c991513fe05819c923660208201529081018690526060810185905260808101849052600090819060a0015b604051602081830303815290604052805190602001209050600061210a826125dc565b60008981526009602052604090819020549051630b135d3f60e11b8082529293506001600160a01b0390911690631626ba7e9061214f9085908a908a90600401612c93565b602060405180830381865afa15801561216c573d6000803e3d6000fd5b505050506040513d601f19601f820116820180604052508101906121909190612cc9565b6001600160e01b0319161498975050505050505050565b604080516001600160a01b0385811660248301528416604482015260648082018490528251808303909101815260849091019091526020810180517bffffffffffffffffffffffffffffffffffffffffffffffffffffffff166323b872dd60e01b179052611337908590612609565b604080517f2b9ae6abc24da0798b2511cfe09ba86d4dd0a6d3495551ce1303a4771e5da31a602082015290810186905260ff8516606082015260808101849052600090819060a0016120e7565b60008281526002602090815260408083206001600160a01b038516845290915281205460ff166123095760008381526002602090815260408083206001600160a01b03861684529091529020805460ff191660011790556122c13390565b6001600160a01b0316826001600160a01b0316847f2f8788117e7eff1d82e926ec794901d17c78024a50270940304540a733656f0d60405160405180910390a4506001610768565b506000610768565b60008281526002602090815260408083206001600160a01b038516845290915281205460ff16156123095760008381526002602090815260408083206001600160a01b0386168085529252808320805460ff1916905551339286917ff6391f5c32d9c69d2a47ea670b442974b53935d1edc7fd64eb21e047a839171b9190a4506001610768565b6123a061267a565b6005805460ff191690557f5db9ee0a495bf2e6ff9c91a7834c1ba4fdd244a5e8aa4e537bd38aeae4b073aa335b6040516001600160a01b03909116815260200160405180910390a1565b604080517f324c4a502970c9d3f06ddf69b43e10c1c296cf6d97dac4a6230c2d0cafc3b9f2602082015290810186905260ff8516606082015260808101849052600090819060a0016120e7565b61243f611f6b565b6005805460ff191660011790557f62e78cea01bee320cd4e420270b5ea74000d11b0c9f74754ebdbfc544b05a2586123cd3390565b60606124a17f0000000000000000000000000000000000000000000000000000000000000000600061269d565b905090565b60606124a17f0000000000000000000000000000000000000000000000000000000000000000600161269d565b604080517f37e8e6aa9d30f4b7ea8be5e8c39f0ed1bb9cf5313c01ed028d27840cbabc39a660208201529081018790526001600160a01b03861660608201526080810185905260a08101849052600090819060c001611fdf565b604080517f1dc4eeed4fde0a40b582f988245f173d12cbb696afb29dfb85b0538faedd904760208201529081018790526001600160a01b03861660608201526080810185905260a08101849052600090819060c001611fdf565b60008281526002602090815260408083206001600160a01b038516845290915290205460ff16611a5b5760405163e2517d3f60e01b81526001600160a01b038216600482015260248101839052604401610801565b60006107686125e9612748565b8360405161190160f01b8152600281019290925260228201526042902090565b600080602060008451602086016000885af18061262c576040513d6000823e3d81fd5b50506000513d91508115612644578060011415612651565b6001600160a01b0384163b155b1561133757604051635274afe760e01b81526001600160a01b0385166004820152602401610801565b60055460ff16611f8f57604051638dfc202b60e01b815260040160405180910390fd5b606060ff83146126b7576126b083612873565b9050610768565b8180546126c390612ce6565b80601f01602080910402602001604051908101604052809291908181526020018280546126ef90612ce6565b801561273c5780601f106127115761010080835404028352916020019161273c565b820191906000526020600020905b81548152906001019060200180831161271f57829003601f168201915b50505050509050610768565b6000306001600160a01b037f0000000000000000000000000000000000000000000000000000000000000000161480156127a157507f000000000000000000000000000000000000000000000000000000000000000046145b156127cb57507f000000000000000000000000000000000000000000000000000000000000000090565b6124a1604080517f8b73c3c69bb8fe3d512ecc4cf759cc79239f7b179b0ffacaa9a75d522b39400f60208201527f0000000000000000000000000000000000000000000000000000000000000000918101919091527f000000000000000000000000000000000000000000000000000000000000000060608201524660808201523060a082015260009060c00160405160208183030381529060405280519060200120905090565b60606000612880836128b2565b604080516020808252818301909252919250600091906020820181803683375050509182525060208101929092525090565b600060ff8216601f81111561076857604051632cd44ac360e21b815260040160405180910390fd5b6001600160e01b03198116811461140757600080fd5b60006020828403121561290257600080fd5b813561290d816128da565b9392505050565b80356001600160a01b038116811461292b57600080fd5b919050565b6000806040838503121561294357600080fd5b8235915061295360208401612914565b90509250929050565b60008083601f84011261296e57600080fd5b50813567ffffffffffffffff81111561298657600080fd5b60208301915083602082850101111561299e57600080fd5b9250929050565b60008060008060008060a087890312156129be57600080fd5b86359550602087013594506040870135935060608701359250608087013567ffffffffffffffff8111156129f157600080fd5b6129fd89828a0161295c565b979a9699509497509295939492505050565b600060208284031215612a2157600080fd5b5035919050565b600080600080600060808688031215612a4057600080fd5b853594506020860135935060408601359250606086013567ffffffffffffffff811115612a6c57600080fd5b612a788882890161295c565b969995985093965092949392505050565b600080600080600060808688031215612aa157600080fd5b85359450602086013560ff81168114612ab957600080fd5b935060408601359250606086013567ffffffffffffffff811115612a6c57600080fd5b600060208284031215612aee57600080fd5b61290d82612914565b6000815180845260005b81811015612b1d57602081850181015186830182015201612b01565b506000602082860101526020601f19601f83011685010191505092915050565b60ff60f81b8816815260e060208201526000612b5c60e0830189612af7565b8281036040840152612b6e8189612af7565b606084018890526001600160a01b038716608085015260a0840186905283810360c08501528451808252602080870193509091019060005b81811015612bc4578351835260209384019390920191600101612ba6565b50909b9a5050505050505050505050565b60008060008060008060a08789031215612bee57600080fd5b86359550612bfe60208801612914565b94506040870135935060608701359250608087013567ffffffffffffffff8111156129f157600080fd5b634e487b7160e01b600052603260045260246000fd5b600060208284031215612c5057600080fd5b5051919050565b634e487b7160e01b600052601160045260246000fd5b8181038181111561076857610768612c57565b8082018082111561076857610768612c57565b83815260406020820152816040820152818360608301376000818301606090810191909152601f909201601f1916010192915050565b600060208284031215612cdb57600080fd5b815161290d816128da565b600181811c90821680612cfa57607f821691505b602082108103612d1a57634e487b7160e01b600052602260045260246000fd5b5091905056fea26469706673582212202f98882d5d0969ba8f0b13ad19be28d3a373bd0d5b4fe99524fe82062d0835b864736f6c634300081c0033",
    "linkReferences": {},
    "deployedLinkReferences": {}
}