{
  "_format": "hh-sol-artifact-1",
  "contractName": "TokenVaultWithRelayer",
  "sourceName": "contracts/Vault.sol",
  "abi": [
    {
      "inputs": [
        {
          "internalType": "address",
          "name": "initialOwner",
          "type": "address"
        },
        {
          "internalType": "contract IERC20",
          "name": "_token",
          "type": "address"
        },
        {
          "internalType": "contract IERC4626[3]",
          "name": "_externalVaults",
          "type": "address[3]"
        }
      ],
      "stateMutability": "payable",
      "type": "constructor"
    },
    {
      "inputs": [],
      "name": "AccessControlBadConfirmation",
      "type": "error"
    },
    {
      "inputs": [
        {
          "internalType": "address",
          "name": "account",
          "type": "address"
        },
        {
          "internalType": "bytes32",
          "name": "neededRole",
          "type": "bytes32"
        }
      ],
      "name": "AccessControlUnauthorizedAccount",
      "type": "error"
    },
    {
      "inputs": [],
      "name": "ECDSAInvalidSignature",
      "type": "error"
    },
    {
      "inputs": [
        {
          "internalType": "uint256",
          "name": "length",
          "type": "uint256"
        }
      ],
      "name": "ECDSAInvalidSignatureLength",
      "type": "error"
    },
    {
      "inputs": [
        {
          "internalType": "bytes32",
          "name": "s",
          "type": "bytes32"
        }
      ],
      "name": "ECDSAInvalidSignatureS",
      "type": "error"
    },
    {
      "inputs": [],
      "name": "EnforcedPause",
      "type": "error"
    },
    {
      "inputs": [],
      "name": "ExpectedPause",
      "type": "error"
    },
    {
      "inputs": [
        {
          "internalType": "address",
          "name": "account",
          "type": "address"
        },
        {
          "internalType": "uint256",
          "name": "currentNonce",
          "type": "uint256"
        }
      ],
      "name": "InvalidAccountNonce",
      "type": "error"
    },
    {
      "inputs": [],
      "name": "InvalidShortString",
      "type": "error"
    },
    {
      "inputs": [],
      "name": "ReentrancyGuardReentrantCall",
      "type": "error"
    },
    {
      "inputs": [
        {
          "internalType": "address",
          "name": "token",
          "type": "address"
        }
      ],
      "name": "SafeERC20FailedOperation",
      "type": "error"
    },
    {
      "inputs": [
        {
          "internalType": "string",
          "name": "str",
          "type": "string"
        }
      ],
      "name": "StringTooLong",
      "type": "error"
    },
    {
      "anonymous": false,
      "inputs": [
        {
          "indexed": false,
          "internalType": "uint256",
          "name": "user",
          "type": "uint256"
        },
        {
          "indexed": false,
          "internalType": "uint8",
          "name": "profile",
          "type": "uint8"
        }
      ],
      "name": "AuthProfileSet",
      "type": "event"
    },
    {
      "anonymous": false,
      "inputs": [
        {
          "indexed": false,
          "internalType": "uint256",
          "name": "user",
          "type": "uint256"
        },
        {
          "indexed": false,
          "internalType": "uint256",
          "name": "assets",
          "type": "uint256"
        }
      ],
      "name": "Deposit",
      "type": "event"
    },
    {
      "anonymous": false,
      "inputs": [],
      "name": "EIP712DomainChanged",
      "type": "event"
    },
    {
      "anonymous": false,
      "inputs": [
        {
          "indexed": false,
          "internalType": "address",
          "name": "account",
          "type": "address"
        }
      ],
      "name": "Paused",
      "type": "event"
    },
    {
      "anonymous": false,
      "inputs": [
        {
          "indexed": false,
          "internalType": "uint256",
          "name": "user",
          "type": "uint256"
        },
        {
          "indexed": false,
          "internalType": "uint8",
          "name": "profile",
          "type": "uint8"
        }
      ],
      "name": "RiskProfileSet",
      "type": "event"
    },
    {
      "anonymous": false,
      "inputs": [
        {
          "indexed": true,
          "internalType": "bytes32",
          "name": "role",
          "type": "bytes32"
        },
        {
          "indexed": true,
          "internalType": "bytes32",
          "name": "previousAdminRole",
          "type": "bytes32"
        },
        {
          "indexed": true,
          "internalType": "bytes32",
          "name": "newAdminRole",
          "type": "bytes32"
        }
      ],
      "name": "RoleAdminChanged",
      "type": "event"
    },
    {
      "anonymous": false,
      "inputs": [
        {
          "indexed": true,
          "internalType": "bytes32",
          "name": "role",
          "type": "bytes32"
        },
        {
          "indexed": true,
          "internalType": "address",
          "name": "account",
          "type": "address"
        },
        {
          "indexed": true,
          "internalType": "address",
          "name": "sender",
          "type": "address"
        }
      ],
      "name": "RoleGranted",
      "type": "event"
    },
    {
      "anonymous": false,
      "inputs": [
        {
          "indexed": true,
          "internalType": "bytes32",
          "name": "role",
          "type": "bytes32"
        },
        {
          "indexed": true,
          "internalType": "address",
          "name": "account",
          "type": "address"
        },
        {
          "indexed": true,
          "internalType": "address",
          "name": "sender",
          "type": "address"
        }
      ],
      "name": "RoleRevoked",
      "type": "event"
    },
    {
      "anonymous": false,
      "inputs": [
        {
          "indexed": false,
          "internalType": "uint256",
          "name": "userFrom",
          "type": "uint256"
        },
        {
          "indexed": false,
          "internalType": "address",
          "name": "userTo",
          "type": "address"
        },
        {
          "indexed": false,
          "internalType": "uint256",
          "name": "assets",
          "type": "uint256"
        }
      ],
      "name": "Transfer",
      "type": "event"
    },
    {
      "anonymous": false,
      "inputs": [
        {
          "indexed": false,
          "internalType": "uint256",
          "name": "userFrom",
          "type": "uint256"
        },
        {
          "indexed": false,
          "internalType": "uint256",
          "name": "userTo",
          "type": "uint256"
        },
        {
          "indexed": false,
          "internalType": "uint256",
          "name": "assets",
          "type": "uint256"
        }
      ],
      "name": "TransferWithinVault",
      "type": "event"
    },
    {
      "anonymous": false,
      "inputs": [
        {
          "indexed": false,
          "internalType": "address",
          "name": "account",
          "type": "address"
        }
      ],
      "name": "Unpaused",
      "type": "event"
    },
    {
      "anonymous": false,
      "inputs": [
        {
          "indexed": false,
          "internalType": "uint256",
          "name": "user",
          "type": "uint256"
        },
        {
          "indexed": false,
          "internalType": "address",
          "name": "wallet",
          "type": "address"
        }
      ],
      "name": "UserRegistered",
      "type": "event"
    },
    {
      "anonymous": false,
      "inputs": [
        {
          "indexed": false,
          "internalType": "uint256",
          "name": "user",
          "type": "uint256"
        },
        {
          "indexed": false,
          "internalType": "address",
          "name": "addressTo",
          "type": "address"
        },
        {
          "indexed": false,
          "internalType": "uint256",
          "name": "assets",
          "type": "uint256"
        }
      ],
      "name": "Withdraw",
      "type": "event"
    },
    {
      "inputs": [],
      "name": "AUTH_PROFILE_TYPEHASH",
      "outputs": [
        {
          "internalType": "bytes32",
          "name": "",
          "type": "bytes32"
        }
      ],
      "stateMutability": "view",
      "type": "function"
    },
    {
      "inputs": [
        {
          "internalType": "uint256",
          "name": "_user",
          "type": "uint256"
        },
        {
          "internalType": "uint8",
          "name": "_authProfile",
          "type": "uint8"
        },
        {
          "internalType": "uint256",
          "name": "nonce",
          "type": "uint256"
        },
        {
          "internalType": "bytes",
          "name": "signature",
          "type": "bytes"
        }
      ],
      "name": "ChangeAuthProfile",
      "outputs": [],
      "stateMutability": "nonpayable",
      "type": "function"
    },
    {
      "inputs": [
        {
          "internalType": "uint256",
          "name": "_user",
          "type": "uint256"
        },
        {
          "internalType": "uint8",
          "name": "_riskProfile",
          "type": "uint8"
        },
        {
          "internalType": "uint256",
          "name": "nonce",
          "type": "uint256"
        },
        {
          "internalType": "bytes",
          "name": "signature",
          "type": "bytes"
        }
      ],
      "name": "ChangeRiskProfile",
      "outputs": [],
      "stateMutability": "nonpayable",
      "type": "function"
    },
    {
      "inputs": [],
      "name": "DEFAULT_ADMIN_ROLE",
      "outputs": [
        {
          "internalType": "bytes32",
          "name": "",
          "type": "bytes32"
        }
      ],
      "stateMutability": "view",
      "type": "function"
    },
    {
      "inputs": [],
      "name": "DEPOSIT_TYPEHASH",
      "outputs": [
        {
          "internalType": "bytes32",
          "name": "",
          "type": "bytes32"
        }
      ],
      "stateMutability": "view",
      "type": "function"
    },
    {
      "inputs": [],
      "name": "NumberOfAuthProfiles",
      "outputs": [
        {
          "internalType": "uint8",
          "name": "",
          "type": "uint8"
        }
      ],
      "stateMutability": "view",
      "type": "function"
    },
    {
      "inputs": [],
      "name": "NumberOfRiskProfiles",
      "outputs": [
        {
          "internalType": "uint8",
          "name": "",
          "type": "uint8"
        }
      ],
      "stateMutability": "view",
      "type": "function"
    },
    {
      "inputs": [],
      "name": "REGISTER_USER_TYPEHASH",
      "outputs": [
        {
          "internalType": "bytes32",
          "name": "",
          "type": "bytes32"
        }
      ],
      "stateMutability": "view",
      "type": "function"
    },
    {
      "inputs": [],
      "name": "RELAYER_ROLE",
      "outputs": [
        {
          "internalType": "bytes32",
          "name": "",
          "type": "bytes32"
        }
      ],
      "stateMutability": "view",
      "type": "function"
    },
    {
      "inputs": [],
      "name": "RISK_PROFILE_TYPEHASH",
      "outputs": [
        {
          "internalType": "bytes32",
          "name": "",
          "type": "bytes32"
        }
      ],
      "stateMutability": "view",
      "type": "function"
    },
    {
      "inputs": [
        {
          "internalType": "uint256",
          "name": "_user",
          "type": "uint256"
        },
        {
          "internalType": "address",
          "name": "_wallet",
          "type": "address"
        },
        {
          "internalType": "bytes",
          "name": "signature",
          "type": "bytes"
        }
      ],
      "name": "RegisterUser",
      "outputs": [],
      "stateMutability": "nonpayable",
      "type": "function"
    },
    {
      "inputs": [],
      "name": "TRANSFER_TYPEHASH",
      "outputs": [
        {
          "internalType": "bytes32",
          "name": "",
          "type": "bytes32"
        }
      ],
      "stateMutability": "view",
      "type": "function"
    },
    {
      "inputs": [],
      "name": "TRANSFER_WITHIN_VAULT_TYPEHASH",
      "outputs": [
        {
          "internalType": "bytes32",
          "name": "",
          "type": "bytes32"
        }
      ],
      "stateMutability": "view",
      "type": "function"
    },
    {
      "inputs": [],
      "name": "WITHDRAW_TYPEHASH",
      "outputs": [
        {
          "internalType": "bytes32",
          "name": "",
          "type": "bytes32"
        }
      ],
      "stateMutability": "view",
      "type": "function"
    },
    {
      "inputs": [
        {
          "internalType": "address",
          "name": "account",
          "type": "address"
        }
      ],
      "name": "addRelayer",
      "outputs": [],
      "stateMutability": "nonpayable",
      "type": "function"
    },
    {
      "inputs": [
        {
          "internalType": "address",
          "name": "newOwner",
          "type": "address"
        }
      ],
      "name": "changeOwner",
      "outputs": [],
      "stateMutability": "nonpayable",
      "type": "function"
    },
    {
      "inputs": [
        {
          "internalType": "uint256",
          "name": "user",
          "type": "uint256"
        },
        {
          "internalType": "uint256",
          "name": "assets",
          "type": "uint256"
        },
        {
          "internalType": "uint256",
          "name": "nonce",
          "type": "uint256"
        },
        {
          "internalType": "bytes",
          "name": "signature",
          "type": "bytes"
        }
      ],
      "name": "deposit",
      "outputs": [],
      "stateMutability": "nonpayable",
      "type": "function"
    },
    {
      "inputs": [],
      "name": "eip712Domain",
      "outputs": [
        {
          "internalType": "bytes1",
          "name": "fields",
          "type": "bytes1"
        },
        {
          "internalType": "string",
          "name": "name",
          "type": "string"
        },
        {
          "internalType": "string",
          "name": "version",
          "type": "string"
        },
        {
          "internalType": "uint256",
          "name": "chainId",
          "type": "uint256"
        },
        {
          "internalType": "address",
          "name": "verifyingContract",
          "type": "address"
        },
        {
          "internalType": "bytes32",
          "name": "salt",
          "type": "bytes32"
        },
        {
          "internalType": "uint256[]",
          "name": "extensions",
          "type": "uint256[]"
        }
      ],
      "stateMutability": "view",
      "type": "function"
    },
    {
      "inputs": [
        {
          "internalType": "uint256",
          "name": "",
          "type": "uint256"
        }
      ],
      "name": "externalVaults",
      "outputs": [
        {
          "internalType": "contract IERC4626",
          "name": "",
          "type": "address"
        }
      ],
      "stateMutability": "view",
      "type": "function"
    },
    {
      "inputs": [
        {
          "internalType": "uint256",
          "name": "user",
          "type": "uint256"
        }
      ],
      "name": "getNonce",
      "outputs": [
        {
          "internalType": "uint256",
          "name": "",
          "type": "uint256"
        }
      ],
      "stateMutability": "view",
      "type": "function"
    },
    {
      "inputs": [
        {
          "internalType": "bytes32",
          "name": "role",
          "type": "bytes32"
        }
      ],
      "name": "getRoleAdmin",
      "outputs": [
        {
          "internalType": "bytes32",
          "name": "",
          "type": "bytes32"
        }
      ],
      "stateMutability": "view",
      "type": "function"
    },
    {
      "inputs": [
        {
          "internalType": "uint256",
          "name": "user",
          "type": "uint256"
        }
      ],
      "name": "getUserAssets",
      "outputs": [
        {
          "internalType": "uint256",
          "name": "",
          "type": "uint256"
        }
      ],
      "stateMutability": "view",
      "type": "function"
    },
    {
      "inputs": [
        {
          "internalType": "bytes32",
          "name": "role",
          "type": "bytes32"
        },
        {
          "internalType": "address",
          "name": "account",
          "type": "address"
        }
      ],
      "name": "grantRole",
      "outputs": [],
      "stateMutability": "nonpayable",
      "type": "function"
    },
    {
      "inputs": [
        {
          "internalType": "bytes32",
          "name": "role",
          "type": "bytes32"
        },
        {
          "internalType": "address",
          "name": "account",
          "type": "address"
        }
      ],
      "name": "hasRole",
      "outputs": [
        {
          "internalType": "bool",
          "name": "",
          "type": "bool"
        }
      ],
      "stateMutability": "view",
      "type": "function"
    },
    {
      "inputs": [
        {
          "internalType": "address",
          "name": "owner",
          "type": "address"
        }
      ],
      "name": "nonces",
      "outputs": [
        {
          "internalType": "uint256",
          "name": "",
          "type": "uint256"
        }
      ],
      "stateMutability": "view",
      "type": "function"
    },
    {
      "inputs": [],
      "name": "pause",
      "outputs": [],
      "stateMutability": "nonpayable",
      "type": "function"
    },
    {
      "inputs": [],
      "name": "paused",
      "outputs": [
        {
          "internalType": "bool",
          "name": "",
          "type": "bool"
        }
      ],
      "stateMutability": "view",
      "type": "function"
    },
    {
      "inputs": [
        {
          "internalType": "bytes32",
          "name": "role",
          "type": "bytes32"
        },
        {
          "internalType": "address",
          "name": "callerConfirmation",
          "type": "address"
        }
      ],
      "name": "renounceRole",
      "outputs": [],
      "stateMutability": "nonpayable",
      "type": "function"
    },
    {
      "inputs": [
        {
          "internalType": "bytes32",
          "name": "role",
          "type": "bytes32"
        },
        {
          "internalType": "address",
          "name": "account",
          "type": "address"
        }
      ],
      "name": "revokeRole",
      "outputs": [],
      "stateMutability": "nonpayable",
      "type": "function"
    },
    {
      "inputs": [
        {
          "internalType": "bytes4",
          "name": "interfaceId",
          "type": "bytes4"
        }
      ],
      "name": "supportsInterface",
      "outputs": [
        {
          "internalType": "bool",
          "name": "",
          "type": "bool"
        }
      ],
      "stateMutability": "view",
      "type": "function"
    },
    {
      "inputs": [],
      "name": "token",
      "outputs": [
        {
          "internalType": "contract IERC20",
          "name": "",
          "type": "address"
        }
      ],
      "stateMutability": "view",
      "type": "function"
    },
    {
      "inputs": [
        {
          "internalType": "uint256",
          "name": "userFrom",
          "type": "uint256"
        },
        {
          "internalType": "address",
          "name": "userTo",
          "type": "address"
        },
        {
          "internalType": "uint256",
          "name": "assets",
          "type": "uint256"
        },
        {
          "internalType": "uint256",
          "name": "nonce",
          "type": "uint256"
        },
        {
          "internalType": "bytes",
          "name": "signature",
          "type": "bytes"
        }
      ],
      "name": "transfer",
      "outputs": [],
      "stateMutability": "nonpayable",
      "type": "function"
    },
    {
      "inputs": [
        {
          "internalType": "uint256",
          "name": "userFrom",
          "type": "uint256"
        },
        {
          "internalType": "uint256",
          "name": "userTo",
          "type": "uint256"
        },
        {
          "internalType": "uint256",
          "name": "assets",
          "type": "uint256"
        },
        {
          "internalType": "uint256",
          "name": "nonce",
          "type": "uint256"
        },
        {
          "internalType": "bytes",
          "name": "signature",
          "type": "bytes"
        }
      ],
      "name": "transferWithinVault",
      "outputs": [],
      "stateMutability": "nonpayable",
      "type": "function"
    },
    {
      "inputs": [],
      "name": "unpause",
      "outputs": [],
      "stateMutability": "nonpayable",
      "type": "function"
    },
    {
      "inputs": [
        {
          "internalType": "uint256",
          "name": "",
          "type": "uint256"
        }
      ],
      "name": "userAddresses",
      "outputs": [
        {
          "internalType": "address",
          "name": "",
          "type": "address"
        }
      ],
      "stateMutability": "view",
      "type": "function"
    },
    {
      "inputs": [
        {
          "internalType": "uint256",
          "name": "",
          "type": "uint256"
        }
      ],
      "name": "userAuthProfile",
      "outputs": [
        {
          "internalType": "uint8",
          "name": "",
          "type": "uint8"
        }
      ],
      "stateMutability": "view",
      "type": "function"
    },
    {
      "inputs": [
        {
          "internalType": "uint256",
          "name": "",
          "type": "uint256"
        }
      ],
      "name": "userRiskProfile",
      "outputs": [
        {
          "internalType": "uint8",
          "name": "",
          "type": "uint8"
        }
      ],
      "stateMutability": "view",
      "type": "function"
    },
    {
      "inputs": [
        {
          "internalType": "uint256",
          "name": "",
          "type": "uint256"
        }
      ],
      "name": "userShares",
      "outputs": [
        {
          "internalType": "uint256",
          "name": "",
          "type": "uint256"
        }
      ],
      "stateMutability": "view",
      "type": "function"
    },
    {
      "inputs": [
        {
          "internalType": "uint256",
          "name": "user",
          "type": "uint256"
        },
        {
          "internalType": "address",
          "name": "addressTo",
          "type": "address"
        },
        {
          "internalType": "uint256",
          "name": "assets",
          "type": "uint256"
        },
        {
          "internalType": "uint256",
          "name": "nonce",
          "type": "uint256"
        },
        {
          "internalType": "bytes",
          "name": "signature",
          "type": "bytes"
        }
      ],
      "name": "withdraw",
      "outputs": [],
      "stateMutability": "nonpayable",
      "type": "function"
    }
  ],
  "bytecode": "0x61018060405260405161350c38038061350c83398101604081905261002391610520565b604080518082018252601581527f546f6b656e5661756c745769746852656c617965720000000000000000000000602080830191909152825180840190935260018352603160f81b908301529061007b8260006101c8565b6101205261008a8160016101c8565b61014052815160208084019190912060e052815190820120610100524660a05261011760e05161010051604080517f8b73c3c69bb8fe3d512ecc4cf759cc79239f7b179b0ffacaa9a75d522b39400f60208201529081019290925260608201524660808201523060a082015260009060c00160405160208183030381529060405280519060200120905090565b60805250503060c05260016003556101306000846101fb565b5061015b7fe2b7fb3b832174769106daebcfd6d1970523240dda11281102db9363b83b0dc4846101fb565b506001600160a01b038216610160526101776006826003610475565b5060005b600360ff821610156101bf576101b7828260ff166003811061019f5761019f6105cb565b60200201516001600160a01b038516906000196102a9565b60010161017b565b5050505061079a565b60006020835110156101e4576101dd8361036e565b90506101f5565b816101ef848261066a565b5060ff90505b92915050565b60008281526002602090815260408083206001600160a01b038516845290915281205460ff166102a15760008381526002602090815260408083206001600160a01b03861684529091529020805460ff191660011790556102593390565b6001600160a01b0316826001600160a01b0316847f2f8788117e7eff1d82e926ec794901d17c78024a50270940304540a733656f0d60405160405180910390a45060016101f5565b5060006101f5565b604080516001600160a01b038416602482015260448082018490528251808303909101815260649091019091526020810180516001600160e01b0390811663095ea7b360e01b1790915261030190859083906103b516565b61036857604080516001600160a01b038516602482015260006044808301919091528251808303909101815260649091019091526020810180516001600160e01b0390811663095ea7b360e01b1790915261035e91869161040416565b6103688482610404565b50505050565b600080829050601f815111156103a2578260405163305a27a960e01b81526004016103999190610728565b60405180910390fd5b80516103ad82610776565b179392505050565b6000806000806020600086516020880160008a5af192503d915060005190508280156103fa575081156103eb57806001146103fa565b6000866001600160a01b03163b115b9695505050505050565b600080602060008451602086016000885af180610427576040513d6000823e3d81fd5b50506000513d9150811561043f57806001141561044c565b6001600160a01b0384163b155b1561036857604051635274afe760e01b81526001600160a01b0385166004820152602401610399565b82600381019282156104bd579160200282015b828111156104bd57825182546001600160a01b0319166001600160a01b03909116178255602090920191600190910190610488565b506104c99291506104cd565b5090565b5b808211156104c957600081556001016104ce565b6001600160a01b03811681146104f757600080fd5b50565b634e487b7160e01b600052604160045260246000fd5b805161051b816104e2565b919050565b600080600060a0848603121561053557600080fd5b8351610540816104e2565b6020850151909350610551816104e2565b9150605f8401851361056257600080fd5b604051606081016001600160401b0381118282101715610584576105846104fa565b6040528060a086018781111561059957600080fd5b604087015b818110156105bd576105af81610510565b83526020928301920161059e565b505050809150509250925092565b634e487b7160e01b600052603260045260246000fd5b600181811c908216806105f557607f821691505b60208210810361061557634e487b7160e01b600052602260045260246000fd5b50919050565b601f82111561066557806000526020600020601f840160051c810160208510156106425750805b601f840160051c820191505b81811015610662576000815560010161064e565b50505b505050565b81516001600160401b03811115610683576106836104fa565b6106978161069184546105e1565b8461061b565b6020601f8211600181146106cb57600083156106b35750848201515b600019600385901b1c1916600184901b178455610662565b600084815260208120601f198516915b828110156106fb57878501518255602094850194600190920191016106db565b50848210156107195786840151600019600387901b60f8161c191681555b50505050600190811b01905550565b602081526000825180602084015260005b818110156107565760208186018101516040868401015201610739565b506000604082850101526040601f19601f83011684010191505092915050565b805160208083015191908110156106155760001960209190910360031b1b16919050565b60805160a05160c05160e05161010051610120516101405161016051612d06610806600039600081816106440152610ccd0152600061217f0152600061214d015260006125e9015260006125c10152600061251c01526000612546015260006125700152612d066000f3fe608060405234801561001057600080fd5b506004361061023c5760003560e01c806376e3cf731161013b578063a6f9dae1116100b8578063d547741f1161007c578063d547741f146105f6578063dd39f00d14610609578063f0ea38521461061c578063fc0c546a1461063f578063ff755e4d1461066657600080fd5b8063a6f9dae114610552578063a9ee782514610565578063a9f845cb14610585578063b5b5e574146105ac578063ccd53b04146105cf57600080fd5b806391d14854116100ff57806391d14854146104d7578063926d7d7f146105105780639dfb9bd614610537578063a217fddf1461054a578063a5ffae17146103b857600080fd5b806376e3cf73146104515780637ecebe00146104785780638456cb59146104a157806384b0196e146104a95780638d8dbfc0146104c457600080fd5b80633d46b819116101c95780635ba506ef1161018d5780635ba506ef146103d25780635c975abb146103e55780635dfd7787146103f057806376b8ce3b1461040357806376c5d7581461042a57600080fd5b80633d46b8191461034d5780633f4ba83a1461036057806348825e9414610368578063502c9bd51461038f578063564d5684146103b857600080fd5b806327cc37b01161021057806327cc37b0146102d6578063295e9636146102e95780632ae478dd146102fc5780632f2ff15d1461032757806336568abe1461033a57600080fd5b8062bf26f41461024157806301ffc9a71461027b57806322de44f71461029e578063248a9ca3146102b3575b600080fd5b6102687f37e8e6aa9d30f4b7ea8be5e8c39f0ed1bb9cf5313c01ed028d27840cbabc39a681565b6040519081526020015b60405180910390f35b61028e610289366004612876565b610679565b6040519015158152602001610272565b6102b16102ac3660046128f0565b6106b0565b005b6102686102c136600461295a565b60009081526002602052604090206001015490565b6102b16102e4366004612973565b610b5a565b6102b16102f73660046129d4565b610e05565b61030f61030a36600461295a565b6110e3565b6040516001600160a01b039091168152602001610272565b6102b1610335366004612a43565b611103565b6102b1610348366004612a43565b61112e565b61026861035b36600461295a565b611166565b6102b16111ea565b6102687f740f278900cf051f7af32c64f32e9e0d9d91fb2832083c991513fe05819c923681565b61030f61039d36600461295a565b6009602052600090815260409020546001600160a01b031681565b6103c0600381565b60405160ff9091168152602001610272565b6102686103e036600461295a565b611200565b60055460ff1661028e565b6102b16103fe3660046129d4565b611301565b6102687f8c5a700c4682b8cf4fe1db93dea18793ed906aa236e163d3398abf94c5be38fc81565b6102687f1dc4eeed4fde0a40b582f988245f173d12cbb696afb29dfb85b0538faedd904781565b6102687f2b9ae6abc24da0798b2511cfe09ba86d4dd0a6d3495551ce1303a4771e5da31a81565b610268610486366004612a6f565b6001600160a01b031660009081526004602052604090205490565b6102b161147a565b6104b161148d565b6040516102729796959493929190612ad0565b6102b16104d2366004612b68565b6114d3565b61028e6104e5366004612a43565b60009182526002602090815260408084206001600160a01b0393909316845291905290205460ff1690565b6102687fe2b7fb3b832174769106daebcfd6d1970523240dda11281102db9363b83b0dc481565b6102b1610545366004612bc2565b6115f4565b610268600081565b6102b1610560366004612a6f565b611872565b61026861057336600461295a565b600a6020526000908152604090205481565b6102687f324c4a502970c9d3f06ddf69b43e10c1c296cf6d97dac4a6230c2d0cafc3b9f281565b6103c06105ba36600461295a565b600c6020526000908152604090205460ff1681565b6102687f1d87493da0bc491a2660cd2e8bbd609bb196e96abcbadf2d948c0a03aa36867381565b6102b1610604366004612a43565b61189e565b6102b1610617366004612a6f565b6118c3565b6103c061062a36600461295a565b600b6020526000908152604090205460ff1681565b61030f7f000000000000000000000000000000000000000000000000000000000000000081565b6102b1610674366004612bc2565b611900565b60006001600160e01b03198216637965db0b60e01b14806106aa57506301ffc9a760e01b6001600160e01b03198316145b92915050565b6106b8611c5d565b6106c0611c83565b6000868152600960205260409020546001600160a01b031661071f5760405162461bcd60e51b8152602060048201526013602482015272155cd95c881b9bdd081c9959da5cdd195c9959606a1b60448201526064015b60405180910390fd5b6000858152600960205260409020546001600160a01b03166107835760405162461bcd60e51b815260206004820152601760248201527f5265636569766572206e6f7420726567697374657265640000000000000000006044820152606401610716565b6000868152600960209081526040808320546001600160a01b03168352600490915290205483146107e65760405162461bcd60e51b815260206004820152600d60248201526c496e76616c6964206e6f6e636560981b6044820152606401610716565b6000868152600c6020526040902054600260ff909116101561085057610810868686868686611cad565b6108505760405162461bcd60e51b8152602060048201526011602482015270496e76616c6964207369676e617475726560781b6044820152606401610716565b6000868152600960209081526040808320546001600160a01b031683526004825280832080546001019055888352600b9091528082205487835291205460ff918216911680820361097357600060068360ff16600381106108b3576108b3612c15565b01546040516363737ac960e11b8152600481018990526001600160a01b039091169063c6e6f59290602401602060405180830381865afa1580156108fb573d6000803e3d6000fd5b505050506040513d601f19601f8201168201806040525081019061091f9190612c2b565b905080600a60008b815260200190815260200160002060008282546109449190612c5a565b90915550506000888152600a602052604081208054839290610967908490612c6d565b90915550610b05915050565b600060068360ff166003811061098b5761098b612c15565b015460008981526009602052604090819020549051632d182be560e21b8152600481018a90523060248201526001600160a01b03918216604482015291169063b460af94906064016020604051808303816000875af11580156109f2573d6000803e3d6000fd5b505050506040513d601f19601f82011682018060405250810190610a169190612c2b565b9050600060068360ff1660038110610a3057610a30612c15565b015460008a81526009602052604090819020549051636e553f6560e01b8152600481018b90526001600160a01b039182166024820152911690636e553f65906044016020604051808303816000875af1158015610a91573d6000803e3d6000fd5b505050506040513d601f19601f82011682018060405250810190610ab59190612c2b565b905081600a60008c81526020019081526020016000206000828254610ada9190612c5a565b90915550506000898152600a602052604081208054839290610afd908490612c6d565b909155505050505b60408051898152602081018990529081018790527ff6b9becd23b4420f8fd6f8cde42307ca0cab31c11ad2fcb4f5a966d85dc63b2b9060600160405180910390a15050610b526001600355565b505050505050565b610b62611c5d565b610b6a611c83565b6000858152600960205260409020546001600160a01b0316610bc45760405162461bcd60e51b8152602060048201526013602482015272155cd95c881b9bdd081c9959da5cdd195c9959606a1b6044820152606401610716565b6000858152600960209081526040808320546001600160a01b0316835260049091529020548314610c275760405162461bcd60e51b815260206004820152600d60248201526c496e76616c6964206e6f6e636560981b6044820152606401610716565b6000858152600c6020526040902054600160ff9091161015610c9057610c508585858585611d92565b610c905760405162461bcd60e51b8152602060048201526011602482015270496e76616c6964207369676e617475726560781b6044820152606401610716565b600085815260096020818152604080842080546001600160a01b0390811686526004845291852080546001019055938990529190529054610cf7917f0000000000000000000000000000000000000000000000000000000000000000811691163087611e6f565b6000858152600b602052604081205460069060ff1660038110610d1c57610d1c612c15565b0154604051636e553f6560e01b8152600481018790523060248201526001600160a01b0390911690636e553f65906044016020604051808303816000875af1158015610d6c573d6000803e3d6000fd5b505050506040513d601f19601f82011682018060405250810190610d909190612c2b565b905080600a60008881526020019081526020016000206000828254610db59190612c6d565b909155505060408051878152602081018790527fa3af609bf46297028ce551832669030f9effef2b02606d02cbbcc40fe6b47c55910160405180910390a150610dfe6001600355565b5050505050565b7fe2b7fb3b832174769106daebcfd6d1970523240dda11281102db9363b83b0dc4610e2f81611ede565b610e37611c83565b6000868152600960205260409020546001600160a01b0316610e915760405162461bcd60e51b8152602060048201526013602482015272155cd95c881b9bdd081c9959da5cdd195c9959606a1b6044820152606401610716565b600360ff861610610ee45760405162461bcd60e51b815260206004820152601460248201527f496e76616c6964207269736b2070726f66696c650000000000000000000000006044820152606401610716565b6000868152600c6020526040902054600260ff9091161015610f5957610f0d8686868686611ee8565b610f595760405162461bcd60e51b815260206004820152601660248201527f55736572206e6f742061757468656e74696361746564000000000000000000006044820152606401610716565b6000868152600a6020526040902054156110be576000868152600b602052604081205460069060ff1660038110610f9257610f92612c15565b01546000888152600a602052604090819020549051632d182be560e21b81526004810191909152306024820181905260448201526001600160a01b039091169063b460af94906064016020604051808303816000875af1158015610ffa573d6000803e3d6000fd5b505050506040513d601f19601f8201168201806040525081019061101e9190612c2b565b9050600060068760ff166003811061103857611038612c15565b0154604051636e553f6560e01b8152600481018490523060248201526001600160a01b0390911690636e553f65906044016020604051808303816000875af1158015611088573d6000803e3d6000fd5b505050506040513d601f19601f820116820180604052508101906110ac9190612c2b565b6000898152600a602052604090205550505b6000868152600b60205260409020805460ff191660ff87161790556001600355610b52565b600681600381106110f357600080fd5b01546001600160a01b0316905081565b60008281526002602052604090206001015461111e81611ede565b6111288383611f35565b50505050565b6001600160a01b03811633146111575760405163334bd91960e11b815260040160405180910390fd5b6111618282611fe3565b505050565b6000818152600960205260408120546001600160a01b03166111c05760405162461bcd60e51b8152602060048201526013602482015272155cd95c881b9bdd081c9959da5cdd195c9959606a1b6044820152606401610716565b6000828152600960209081526040808320546001600160a01b0316835260049091529020546106aa565b60006111f581611ede565b6111fd61206a565b50565b6000818152600960205260408120546001600160a01b031661125a5760405162461bcd60e51b8152602060048201526013602482015272155cd95c881b9bdd081c9959da5cdd195c9959606a1b6044820152606401610716565b6000828152600b602052604090205460069060ff166003811061127f5761127f612c15565b01546000838152600a6020526040908190205490516303d1689d60e11b81526001600160a01b03909216916307a2d13a916112c09160040190815260200190565b602060405180830381865afa1580156112dd573d6000803e3d6000fd5b505050506040513d601f19601f820116820180604052508101906106aa9190612c2b565b7fe2b7fb3b832174769106daebcfd6d1970523240dda11281102db9363b83b0dc461132b81611ede565b611333611c83565b6000868152600960205260409020546001600160a01b031661138d5760405162461bcd60e51b8152602060048201526013602482015272155cd95c881b9bdd081c9959da5cdd195c9959606a1b6044820152606401610716565b600360ff8616106113e05760405162461bcd60e51b815260206004820152601460248201527f496e76616c696420617574682070726f66696c650000000000000000000000006044820152606401610716565b6000868152600c6020526040902054600260ff90911610156114555761140986868686866120bc565b6114555760405162461bcd60e51b815260206004820152601660248201527f55736572206e6f742061757468656e74696361746564000000000000000000006044820152606401610716565b6000868152600c60205260409020805460ff191660ff87161790556001600355610b52565b600061148581611ede565b6111fd612109565b6000606080600080600060606114a1612146565b6114a9612178565b60408051600080825260208201909252600f60f81b9b939a50919850469750309650945092509050565b7fe2b7fb3b832174769106daebcfd6d1970523240dda11281102db9363b83b0dc46114fd81611ede565b611505611c83565b611511858585856121a5565b6115515760405162461bcd60e51b8152602060048201526011602482015270496e76616c6964207369676e617475726560781b6044820152606401610716565b6000858152600960205260409020546001600160a01b0316156115b65760405162461bcd60e51b815260206004820152601760248201527f5573657220616c726561647920726567697374657265640000000000000000006044820152606401610716565b6000858152600960205260409020805473ffffffffffffffffffffffffffffffffffffffff19166001600160a01b0386161790556001600355610dfe565b6115fc611c5d565b611604611c83565b6000868152600960205260409020546001600160a01b031661165e5760405162461bcd60e51b8152602060048201526013602482015272155cd95c881b9bdd081c9959da5cdd195c9959606a1b6044820152606401610716565b6000868152600960209081526040808320546001600160a01b03168352600490915290205483146116c15760405162461bcd60e51b815260206004820152600d60248201526c496e76616c6964206e6f6e636560981b6044820152606401610716565b6000868152600c6020526040902054600160ff909116101561172b576116eb868686868686612270565b61172b5760405162461bcd60e51b8152602060048201526011602482015270496e76616c6964207369676e617475726560781b6044820152606401610716565b6000868152600960209081526040808320546001600160a01b031683526004825280832080546001019055888352600b90915281205460069060ff166003811061177757611777612c15565b0154604051632d182be560e21b8152600481018790526001600160a01b0388811660248301523060448301529091169063b460af94906064016020604051808303816000875af11580156117cf573d6000803e3d6000fd5b505050506040513d601f19601f820116820180604052508101906117f39190612c2b565b905080600a600089815260200190815260200160002060008282546118189190612c5a565b9091555050604080518881526001600160a01b03881660208201529081018690527f2e90d1cd7a5e9a5b99747c36130d866c8687bff313d44cdd245df73bcda43621906060015b60405180910390a150610b526001600355565b600061187d81611ede565b611885611c83565b611890600083611103565b61189a6001600355565b5050565b6000828152600260205260409020600101546118b981611ede565b6111288383611fe3565b60006118ce81611ede565b6118d6611c83565b6118907fe2b7fb3b832174769106daebcfd6d1970523240dda11281102db9363b83b0dc483611103565b611908611c5d565b611910611c83565b6000868152600960205260409020546001600160a01b031661196a5760405162461bcd60e51b8152602060048201526013602482015272155cd95c881b9bdd081c9959da5cdd195c9959606a1b6044820152606401610716565b6000868152600960209081526040808320546001600160a01b03168352600490915290205483146119cd5760405162461bcd60e51b815260206004820152600d60248201526c496e76616c6964206e6f6e636560981b6044820152606401610716565b6000868152600c6020526040902054600260ff9091161015611a37576119f78686868686866122ca565b611a375760405162461bcd60e51b8152602060048201526011602482015270496e76616c6964207369676e617475726560781b6044820152606401610716565b6000868152600960209081526040808320546001600160a01b031683526004825280832080546001019055888352600b90915290205460069060ff1660038110611a8357611a83612c15565b01546040516363737ac960e11b8152600481018690526001600160a01b039091169063c6e6f59290602401602060405180830381865afa158015611acb573d6000803e3d6000fd5b505050506040513d601f19601f82011682018060405250810190611aef9190612c2b565b6000878152600a60205260409020541015611b4c5760405162461bcd60e51b815260206004820152601160248201527f4e6f7420656e6f756768207368617265730000000000000000000000000000006044820152606401610716565b6000868152600b602052604081205460069060ff1660038110611b7157611b71612c15565b0154604051632d182be560e21b8152600481018790526001600160a01b0388811660248301523060448301529091169063b460af94906064016020604051808303816000875af1158015611bc9573d6000803e3d6000fd5b505050506040513d601f19601f82011682018060405250810190611bed9190612c2b565b905080600a60008981526020019081526020016000206000828254611c129190612c5a565b9091555050604080518881526001600160a01b03881660208201529081018690527f9da6493a92039daf47d1f2d7a782299c5994c6323eb1e972f69c432089ec52bf9060600161185f565b60055460ff1615611c815760405163d93c066560e01b815260040160405180910390fd5b565b600260035403611ca657604051633ee5aeb560e01b815260040160405180910390fd5b6002600355565b604080517f8c5a700c4682b8cf4fe1db93dea18793ed906aa236e163d3398abf94c5be38fc6020820152908101879052606081018690526080810185905260a08101849052600090819060c0015b6040516020818303038152906040528051906020012090506000611d1e82612324565b60008a815260096020908152604091829020548251601f89018390048302810183019093528783529293506001600160a01b0390921691611d7b918491899089908190840183828082843760009201919091525061235192505050565b6001600160a01b0316149998505050505050505050565b604080517f740f278900cf051f7af32c64f32e9e0d9d91fb2832083c991513fe05819c923660208201529081018690526060810185905260808101849052600090819060a0015b6040516020818303038152906040528051906020012090506000611dfc82612324565b600089815260096020908152604091829020548251601f89018390048302810183019093528783529293506001600160a01b0390921691611e59918491899089908190840183828082843760009201919091525061235192505050565b6001600160a01b03161498975050505050505050565b604080516001600160a01b0385811660248301528416604482015260648082018490528251808303909101815260849091019091526020810180517bffffffffffffffffffffffffffffffffffffffffffffffffffffffff166323b872dd60e01b17905261112890859061237b565b6111fd81336123ec565b604080517f2b9ae6abc24da0798b2511cfe09ba86d4dd0a6d3495551ce1303a4771e5da31a602082015290810186905260ff8516606082015260808101849052600090819060a001611dd9565b60008281526002602090815260408083206001600160a01b038516845290915281205460ff16611fdb5760008381526002602090815260408083206001600160a01b03861684529091529020805460ff19166001179055611f933390565b6001600160a01b0316826001600160a01b0316847f2f8788117e7eff1d82e926ec794901d17c78024a50270940304540a733656f0d60405160405180910390a45060016106aa565b5060006106aa565b60008281526002602090815260408083206001600160a01b038516845290915281205460ff1615611fdb5760008381526002602090815260408083206001600160a01b0386168085529252808320805460ff1916905551339286917ff6391f5c32d9c69d2a47ea670b442974b53935d1edc7fd64eb21e047a839171b9190a45060016106aa565b612072612441565b6005805460ff191690557f5db9ee0a495bf2e6ff9c91a7834c1ba4fdd244a5e8aa4e537bd38aeae4b073aa335b6040516001600160a01b03909116815260200160405180910390a1565b604080517f324c4a502970c9d3f06ddf69b43e10c1c296cf6d97dac4a6230c2d0cafc3b9f2602082015290810186905260ff8516606082015260808101849052600090819060a001611dd9565b612111611c5d565b6005805460ff191660011790557f62e78cea01bee320cd4e420270b5ea74000d11b0c9f74754ebdbfc544b05a25861209f3390565b60606121737f00000000000000000000000000000000000000000000000000000000000000006000612464565b905090565b60606121737f00000000000000000000000000000000000000000000000000000000000000006001612464565b604080517f1d87493da0bc491a2660cd2e8bbd609bb196e96abcbadf2d948c0a03aa36867360208201529081018590526001600160a01b03841660608201526000908190608001604051602081830303815290604052805190602001209050600061220f82612324565b9050856001600160a01b031661225b8287878080601f01602080910402602001604051908101604052809392919081815260200183838082843760009201919091525061235192505050565b6001600160a01b031614979650505050505050565b604080517f37e8e6aa9d30f4b7ea8be5e8c39f0ed1bb9cf5313c01ed028d27840cbabc39a660208201529081018790526001600160a01b03861660608201526080810185905260a08101849052600090819060c001611cfb565b604080517f1dc4eeed4fde0a40b582f988245f173d12cbb696afb29dfb85b0538faedd904760208201529081018790526001600160a01b03861660608201526080810185905260a08101849052600090819060c001611cfb565b60006106aa61233161250f565b8360405161190160f01b8152600281019290925260228201526042902090565b600080600080612361868661263a565b9250925092506123718282612687565b5090949350505050565b600080602060008451602086016000885af18061239e576040513d6000823e3d81fd5b50506000513d915081156123b65780600114156123c3565b6001600160a01b0384163b155b1561112857604051635274afe760e01b81526001600160a01b0385166004820152602401610716565b60008281526002602090815260408083206001600160a01b038516845290915290205460ff1661189a5760405163e2517d3f60e01b81526001600160a01b038216600482015260248101839052604401610716565b60055460ff16611c8157604051638dfc202b60e01b815260040160405180910390fd5b606060ff831461247e5761247783612740565b90506106aa565b81805461248a90612c80565b80601f01602080910402602001604051908101604052809291908181526020018280546124b690612c80565b80156125035780601f106124d857610100808354040283529160200191612503565b820191906000526020600020905b8154815290600101906020018083116124e657829003601f168201915b505050505090506106aa565b6000306001600160a01b037f00000000000000000000000000000000000000000000000000000000000000001614801561256857507f000000000000000000000000000000000000000000000000000000000000000046145b1561259257507f000000000000000000000000000000000000000000000000000000000000000090565b612173604080517f8b73c3c69bb8fe3d512ecc4cf759cc79239f7b179b0ffacaa9a75d522b39400f60208201527f0000000000000000000000000000000000000000000000000000000000000000918101919091527f000000000000000000000000000000000000000000000000000000000000000060608201524660808201523060a082015260009060c00160405160208183030381529060405280519060200120905090565b600080600083516041036126745760208401516040850151606086015160001a6126668882858561277f565b955095509550505050612680565b50508151600091506002905b9250925092565b600082600381111561269b5761269b612cba565b036126a4575050565b60018260038111156126b8576126b8612cba565b036126d65760405163f645eedf60e01b815260040160405180910390fd5b60028260038111156126ea576126ea612cba565b0361270b5760405163fce698f760e01b815260048101829052602401610716565b600382600381111561271f5761271f612cba565b0361189a576040516335e2f38360e21b815260048101829052602401610716565b6060600061274d8361284e565b604080516020808252818301909252919250600091906020820181803683375050509182525060208101929092525090565b600080807f7fffffffffffffffffffffffffffffff5d576e7357a4501ddfe92f46681b20a08411156127ba5750600091506003905082612844565b604080516000808252602082018084528a905260ff891692820192909252606081018790526080810186905260019060a0016020604051602081039080840390855afa15801561280e573d6000803e3d6000fd5b5050604051601f1901519150506001600160a01b03811661283a57506000925060019150829050612844565b9250600091508190505b9450945094915050565b600060ff8216601f8111156106aa57604051632cd44ac360e21b815260040160405180910390fd5b60006020828403121561288857600080fd5b81356001600160e01b0319811681146128a057600080fd5b9392505050565b60008083601f8401126128b957600080fd5b50813567ffffffffffffffff8111156128d157600080fd5b6020830191508360208285010111156128e957600080fd5b9250929050565b60008060008060008060a0878903121561290957600080fd5b86359550602087013594506040870135935060608701359250608087013567ffffffffffffffff81111561293c57600080fd5b61294889828a016128a7565b979a9699509497509295939492505050565b60006020828403121561296c57600080fd5b5035919050565b60008060008060006080868803121561298b57600080fd5b853594506020860135935060408601359250606086013567ffffffffffffffff8111156129b757600080fd5b6129c3888289016128a7565b969995985093965092949392505050565b6000806000806000608086880312156129ec57600080fd5b85359450602086013560ff81168114612a0457600080fd5b935060408601359250606086013567ffffffffffffffff8111156129b757600080fd5b80356001600160a01b0381168114612a3e57600080fd5b919050565b60008060408385031215612a5657600080fd5b82359150612a6660208401612a27565b90509250929050565b600060208284031215612a8157600080fd5b6128a082612a27565b6000815180845260005b81811015612ab057602081850181015186830182015201612a94565b506000602082860101526020601f19601f83011685010191505092915050565b60ff60f81b8816815260e060208201526000612aef60e0830189612a8a565b8281036040840152612b018189612a8a565b606084018890526001600160a01b038716608085015260a0840186905283810360c08501528451808252602080870193509091019060005b81811015612b57578351835260209384019390920191600101612b39565b50909b9a5050505050505050505050565b60008060008060608587031215612b7e57600080fd5b84359350612b8e60208601612a27565b9250604085013567ffffffffffffffff811115612baa57600080fd5b612bb6878288016128a7565b95989497509550505050565b60008060008060008060a08789031215612bdb57600080fd5b86359550612beb60208801612a27565b94506040870135935060608701359250608087013567ffffffffffffffff81111561293c57600080fd5b634e487b7160e01b600052603260045260246000fd5b600060208284031215612c3d57600080fd5b5051919050565b634e487b7160e01b600052601160045260246000fd5b818103818111156106aa576106aa612c44565b808201808211156106aa576106aa612c44565b600181811c90821680612c9457607f821691505b602082108103612cb457634e487b7160e01b600052602260045260246000fd5b50919050565b634e487b7160e01b600052602160045260246000fdfea2646970667358221220e7d91c72dfe96d978764af8affe039d7e8fc6ee6ebd8565d4eb364945d005cb764736f6c634300081c0033",
  "linkReferences": {},
  "deployedLinkReferences": {}
}