{
  "_format": "hh-sol-artifact-1",
  "contractName": "TokenVaultWithRelayer",
  "sourceName": "contracts/Vault.sol",
  "abi": [
    {
      "inputs": [
        {
          "internalType": "address",
          "name": "initialOwner",
          "type": "address"
        },
        {
          "internalType": "address",
          "name": "_token",
          "type": "address"
        },
        {
          "internalType": "contract IERC4626[3]",
          "name": "_externalVaults",
          "type": "address[3]"
        }
      ],
      "stateMutability": "payable",
      "type": "constructor"
    },
    {
      "inputs": [],
      "name": "AccessControlBadConfirmation",
      "type": "error"
    },
    {
      "inputs": [
        {
          "internalType": "address",
          "name": "account",
          "type": "address"
        },
        {
          "internalType": "bytes32",
          "name": "neededRole",
          "type": "bytes32"
        }
      ],
      "name": "AccessControlUnauthorizedAccount",
      "type": "error"
    },
    {
      "inputs": [],
      "name": "EnforcedPause",
      "type": "error"
    },
    {
      "inputs": [],
      "name": "ExpectedPause",
      "type": "error"
    },
    {
      "inputs": [
        {
          "internalType": "address",
          "name": "account",
          "type": "address"
        },
        {
          "internalType": "uint256",
          "name": "currentNonce",
          "type": "uint256"
        }
      ],
      "name": "InvalidAccountNonce",
      "type": "error"
    },
    {
      "inputs": [],
      "name": "ReentrancyGuardReentrantCall",
      "type": "error"
    },
    {
      "inputs": [
        {
          "internalType": "address",
          "name": "token",
          "type": "address"
        }
      ],
      "name": "SafeERC20FailedOperation",
      "type": "error"
    },
    {
      "anonymous": false,
      "inputs": [
        {
          "indexed": false,
          "internalType": "uint256",
          "name": "user",
          "type": "uint256"
        },
        {
          "indexed": false,
          "internalType": "uint8",
          "name": "profile",
          "type": "uint8"
        }
      ],
      "name": "AuthProfileSet",
      "type": "event"
    },
    {
      "anonymous": false,
      "inputs": [
        {
          "indexed": false,
          "internalType": "uint256",
          "name": "user",
          "type": "uint256"
        },
        {
          "indexed": false,
          "internalType": "uint256",
          "name": "assets",
          "type": "uint256"
        }
      ],
      "name": "Deposit",
      "type": "event"
    },
    {
      "anonymous": false,
      "inputs": [
        {
          "indexed": false,
          "internalType": "address",
          "name": "newOwner",
          "type": "address"
        }
      ],
      "name": "OwnerChanged",
      "type": "event"
    },
    {
      "anonymous": false,
      "inputs": [
        {
          "indexed": false,
          "internalType": "address",
          "name": "account",
          "type": "address"
        }
      ],
      "name": "Paused",
      "type": "event"
    },
    {
      "anonymous": false,
      "inputs": [
        {
          "indexed": false,
          "internalType": "address",
          "name": "account",
          "type": "address"
        }
      ],
      "name": "RelayerAdded",
      "type": "event"
    },
    {
      "anonymous": false,
      "inputs": [
        {
          "indexed": false,
          "internalType": "uint256",
          "name": "user",
          "type": "uint256"
        },
        {
          "indexed": false,
          "internalType": "uint8",
          "name": "profile",
          "type": "uint8"
        }
      ],
      "name": "RiskProfileSet",
      "type": "event"
    },
    {
      "anonymous": false,
      "inputs": [
        {
          "indexed": true,
          "internalType": "bytes32",
          "name": "role",
          "type": "bytes32"
        },
        {
          "indexed": true,
          "internalType": "bytes32",
          "name": "previousAdminRole",
          "type": "bytes32"
        },
        {
          "indexed": true,
          "internalType": "bytes32",
          "name": "newAdminRole",
          "type": "bytes32"
        }
      ],
      "name": "RoleAdminChanged",
      "type": "event"
    },
    {
      "anonymous": false,
      "inputs": [
        {
          "indexed": true,
          "internalType": "bytes32",
          "name": "role",
          "type": "bytes32"
        },
        {
          "indexed": true,
          "internalType": "address",
          "name": "account",
          "type": "address"
        },
        {
          "indexed": true,
          "internalType": "address",
          "name": "sender",
          "type": "address"
        }
      ],
      "name": "RoleGranted",
      "type": "event"
    },
    {
      "anonymous": false,
      "inputs": [
        {
          "indexed": true,
          "internalType": "bytes32",
          "name": "role",
          "type": "bytes32"
        },
        {
          "indexed": true,
          "internalType": "address",
          "name": "account",
          "type": "address"
        },
        {
          "indexed": true,
          "internalType": "address",
          "name": "sender",
          "type": "address"
        }
      ],
      "name": "RoleRevoked",
      "type": "event"
    },
    {
      "anonymous": false,
      "inputs": [
        {
          "indexed": false,
          "internalType": "uint256",
          "name": "userFrom",
          "type": "uint256"
        },
        {
          "indexed": false,
          "internalType": "address",
          "name": "userTo",
          "type": "address"
        },
        {
          "indexed": false,
          "internalType": "uint256",
          "name": "assets",
          "type": "uint256"
        }
      ],
      "name": "Transfer",
      "type": "event"
    },
    {
      "anonymous": false,
      "inputs": [
        {
          "indexed": false,
          "internalType": "uint256",
          "name": "userFrom",
          "type": "uint256"
        },
        {
          "indexed": false,
          "internalType": "uint256",
          "name": "userTo",
          "type": "uint256"
        },
        {
          "indexed": false,
          "internalType": "uint256",
          "name": "assets",
          "type": "uint256"
        }
      ],
      "name": "TransferWithinVault",
      "type": "event"
    },
    {
      "anonymous": false,
      "inputs": [
        {
          "indexed": false,
          "internalType": "address",
          "name": "account",
          "type": "address"
        }
      ],
      "name": "Unpaused",
      "type": "event"
    },
    {
      "anonymous": false,
      "inputs": [
        {
          "indexed": false,
          "internalType": "uint256",
          "name": "user",
          "type": "uint256"
        },
        {
          "indexed": false,
          "internalType": "address",
          "name": "wallet",
          "type": "address"
        }
      ],
      "name": "UserRegistered",
      "type": "event"
    },
    {
      "anonymous": false,
      "inputs": [
        {
          "indexed": false,
          "internalType": "uint256",
          "name": "user",
          "type": "uint256"
        },
        {
          "indexed": false,
          "internalType": "uint256",
          "name": "assets",
          "type": "uint256"
        }
      ],
      "name": "Withdraw",
      "type": "event"
    },
    {
      "inputs": [
        {
          "internalType": "uint256",
          "name": "_user",
          "type": "uint256"
        },
        {
          "internalType": "uint8",
          "name": "_authProfile",
          "type": "uint8"
        },
        {
          "internalType": "uint256",
          "name": "nonce",
          "type": "uint256"
        }
      ],
      "name": "ChangeAuthProfile",
      "outputs": [],
      "stateMutability": "nonpayable",
      "type": "function"
    },
    {
      "inputs": [
        {
          "internalType": "uint256",
          "name": "_user",
          "type": "uint256"
        },
        {
          "internalType": "uint8",
          "name": "_riskProfile",
          "type": "uint8"
        },
        {
          "internalType": "uint256",
          "name": "nonce",
          "type": "uint256"
        }
      ],
      "name": "ChangeRiskProfile",
      "outputs": [],
      "stateMutability": "nonpayable",
      "type": "function"
    },
    {
      "inputs": [],
      "name": "DEFAULT_ADMIN_ROLE",
      "outputs": [
        {
          "internalType": "bytes32",
          "name": "",
          "type": "bytes32"
        }
      ],
      "stateMutability": "view",
      "type": "function"
    },
    {
      "inputs": [],
      "name": "NumberOfAuthProfiles",
      "outputs": [
        {
          "internalType": "uint8",
          "name": "",
          "type": "uint8"
        }
      ],
      "stateMutability": "view",
      "type": "function"
    },
    {
      "inputs": [],
      "name": "NumberOfRiskProfiles",
      "outputs": [
        {
          "internalType": "uint8",
          "name": "",
          "type": "uint8"
        }
      ],
      "stateMutability": "view",
      "type": "function"
    },
    {
      "inputs": [],
      "name": "RELAYER_ROLE",
      "outputs": [
        {
          "internalType": "bytes32",
          "name": "",
          "type": "bytes32"
        }
      ],
      "stateMutability": "view",
      "type": "function"
    },
    {
      "inputs": [
        {
          "internalType": "uint256",
          "name": "_user",
          "type": "uint256"
        },
        {
          "internalType": "address",
          "name": "_wallet",
          "type": "address"
        }
      ],
      "name": "RegisterUser",
      "outputs": [],
      "stateMutability": "nonpayable",
      "type": "function"
    },
    {
      "inputs": [
        {
          "internalType": "address",
          "name": "account",
          "type": "address"
        }
      ],
      "name": "addRelayer",
      "outputs": [],
      "stateMutability": "nonpayable",
      "type": "function"
    },
    {
      "inputs": [
        {
          "internalType": "address",
          "name": "newOwner",
          "type": "address"
        }
      ],
      "name": "changeOwner",
      "outputs": [],
      "stateMutability": "nonpayable",
      "type": "function"
    },
    {
      "inputs": [
        {
          "internalType": "uint256",
          "name": "user",
          "type": "uint256"
        },
        {
          "internalType": "uint256",
          "name": "assets",
          "type": "uint256"
        },
        {
          "internalType": "uint256",
          "name": "nonce",
          "type": "uint256"
        }
      ],
      "name": "deposit",
      "outputs": [],
      "stateMutability": "nonpayable",
      "type": "function"
    },
    {
      "inputs": [
        {
          "internalType": "uint256",
          "name": "",
          "type": "uint256"
        }
      ],
      "name": "externalVaults",
      "outputs": [
        {
          "internalType": "contract IERC4626",
          "name": "",
          "type": "address"
        }
      ],
      "stateMutability": "view",
      "type": "function"
    },
    {
      "inputs": [
        {
          "internalType": "uint256",
          "name": "user",
          "type": "uint256"
        }
      ],
      "name": "getNonce",
      "outputs": [
        {
          "internalType": "uint256",
          "name": "",
          "type": "uint256"
        }
      ],
      "stateMutability": "view",
      "type": "function"
    },
    {
      "inputs": [
        {
          "internalType": "bytes32",
          "name": "role",
          "type": "bytes32"
        }
      ],
      "name": "getRoleAdmin",
      "outputs": [
        {
          "internalType": "bytes32",
          "name": "",
          "type": "bytes32"
        }
      ],
      "stateMutability": "view",
      "type": "function"
    },
    {
      "inputs": [
        {
          "internalType": "uint256",
          "name": "user",
          "type": "uint256"
        }
      ],
      "name": "getUserAssets",
      "outputs": [
        {
          "internalType": "uint256",
          "name": "",
          "type": "uint256"
        }
      ],
      "stateMutability": "view",
      "type": "function"
    },
    {
      "inputs": [
        {
          "internalType": "uint256",
          "name": "user",
          "type": "uint256"
        }
      ],
      "name": "getUserAuthProfile",
      "outputs": [
        {
          "internalType": "uint8",
          "name": "",
          "type": "uint8"
        }
      ],
      "stateMutability": "view",
      "type": "function"
    },
    {
      "inputs": [
        {
          "internalType": "uint256",
          "name": "user",
          "type": "uint256"
        }
      ],
      "name": "getUserRiskProfile",
      "outputs": [
        {
          "internalType": "uint8",
          "name": "",
          "type": "uint8"
        }
      ],
      "stateMutability": "view",
      "type": "function"
    },
    {
      "inputs": [
        {
          "internalType": "uint256",
          "name": "user",
          "type": "uint256"
        }
      ],
      "name": "getUserShares",
      "outputs": [
        {
          "internalType": "uint256",
          "name": "",
          "type": "uint256"
        }
      ],
      "stateMutability": "view",
      "type": "function"
    },
    {
      "inputs": [
        {
          "internalType": "uint256",
          "name": "user",
          "type": "uint256"
        }
      ],
      "name": "getUserWallet",
      "outputs": [
        {
          "internalType": "address",
          "name": "",
          "type": "address"
        }
      ],
      "stateMutability": "view",
      "type": "function"
    },
    {
      "inputs": [
        {
          "internalType": "bytes32",
          "name": "role",
          "type": "bytes32"
        },
        {
          "internalType": "address",
          "name": "account",
          "type": "address"
        }
      ],
      "name": "grantRole",
      "outputs": [],
      "stateMutability": "nonpayable",
      "type": "function"
    },
    {
      "inputs": [
        {
          "internalType": "bytes32",
          "name": "role",
          "type": "bytes32"
        },
        {
          "internalType": "address",
          "name": "account",
          "type": "address"
        }
      ],
      "name": "hasRole",
      "outputs": [
        {
          "internalType": "bool",
          "name": "",
          "type": "bool"
        }
      ],
      "stateMutability": "view",
      "type": "function"
    },
    {
      "inputs": [
        {
          "internalType": "address",
          "name": "owner",
          "type": "address"
        }
      ],
      "name": "nonces",
      "outputs": [
        {
          "internalType": "uint256",
          "name": "",
          "type": "uint256"
        }
      ],
      "stateMutability": "view",
      "type": "function"
    },
    {
      "inputs": [],
      "name": "pause",
      "outputs": [],
      "stateMutability": "nonpayable",
      "type": "function"
    },
    {
      "inputs": [],
      "name": "paused",
      "outputs": [
        {
          "internalType": "bool",
          "name": "",
          "type": "bool"
        }
      ],
      "stateMutability": "view",
      "type": "function"
    },
    {
      "inputs": [
        {
          "internalType": "bytes32",
          "name": "role",
          "type": "bytes32"
        },
        {
          "internalType": "address",
          "name": "callerConfirmation",
          "type": "address"
        }
      ],
      "name": "renounceRole",
      "outputs": [],
      "stateMutability": "nonpayable",
      "type": "function"
    },
    {
      "inputs": [
        {
          "internalType": "bytes32",
          "name": "role",
          "type": "bytes32"
        },
        {
          "internalType": "address",
          "name": "account",
          "type": "address"
        }
      ],
      "name": "revokeRole",
      "outputs": [],
      "stateMutability": "nonpayable",
      "type": "function"
    },
    {
      "inputs": [
        {
          "internalType": "bytes4",
          "name": "interfaceId",
          "type": "bytes4"
        }
      ],
      "name": "supportsInterface",
      "outputs": [
        {
          "internalType": "bool",
          "name": "",
          "type": "bool"
        }
      ],
      "stateMutability": "view",
      "type": "function"
    },
    {
      "inputs": [],
      "name": "token",
      "outputs": [
        {
          "internalType": "contract IERC20",
          "name": "",
          "type": "address"
        }
      ],
      "stateMutability": "view",
      "type": "function"
    },
    {
      "inputs": [],
      "name": "tokenPermit",
      "outputs": [
        {
          "internalType": "contract IERC20Permit",
          "name": "",
          "type": "address"
        }
      ],
      "stateMutability": "view",
      "type": "function"
    },
    {
      "inputs": [
        {
          "internalType": "uint256",
          "name": "userFrom",
          "type": "uint256"
        },
        {
          "internalType": "address",
          "name": "userTo",
          "type": "address"
        },
        {
          "internalType": "uint256",
          "name": "assets",
          "type": "uint256"
        },
        {
          "internalType": "uint256",
          "name": "nonce",
          "type": "uint256"
        }
      ],
      "name": "transfer",
      "outputs": [],
      "stateMutability": "nonpayable",
      "type": "function"
    },
    {
      "inputs": [
        {
          "internalType": "uint256",
          "name": "userFrom",
          "type": "uint256"
        },
        {
          "internalType": "uint256",
          "name": "userTo",
          "type": "uint256"
        },
        {
          "internalType": "uint256",
          "name": "assets",
          "type": "uint256"
        },
        {
          "internalType": "uint256",
          "name": "nonce",
          "type": "uint256"
        }
      ],
      "name": "transferWithinVault",
      "outputs": [],
      "stateMutability": "nonpayable",
      "type": "function"
    },
    {
      "inputs": [],
      "name": "unpause",
      "outputs": [],
      "stateMutability": "nonpayable",
      "type": "function"
    },
    {
      "inputs": [
        {
          "internalType": "uint256",
          "name": "",
          "type": "uint256"
        }
      ],
      "name": "userAddresses",
      "outputs": [
        {
          "internalType": "address",
          "name": "",
          "type": "address"
        }
      ],
      "stateMutability": "view",
      "type": "function"
    },
    {
      "inputs": [
        {
          "internalType": "uint256",
          "name": "",
          "type": "uint256"
        }
      ],
      "name": "userAuthProfile",
      "outputs": [
        {
          "internalType": "uint8",
          "name": "",
          "type": "uint8"
        }
      ],
      "stateMutability": "view",
      "type": "function"
    },
    {
      "inputs": [
        {
          "internalType": "uint256",
          "name": "",
          "type": "uint256"
        }
      ],
      "name": "userRiskProfile",
      "outputs": [
        {
          "internalType": "uint8",
          "name": "",
          "type": "uint8"
        }
      ],
      "stateMutability": "view",
      "type": "function"
    },
    {
      "inputs": [
        {
          "internalType": "uint256",
          "name": "",
          "type": "uint256"
        }
      ],
      "name": "userShares",
      "outputs": [
        {
          "internalType": "uint256",
          "name": "",
          "type": "uint256"
        }
      ],
      "stateMutability": "view",
      "type": "function"
    },
    {
      "inputs": [
        {
          "internalType": "uint256",
          "name": "user",
          "type": "uint256"
        },
        {
          "internalType": "uint256",
          "name": "assets",
          "type": "uint256"
        },
        {
          "internalType": "uint256",
          "name": "nonce",
          "type": "uint256"
        }
      ],
      "name": "withdraw",
      "outputs": [],
      "stateMutability": "nonpayable",
      "type": "function"
    }
  ],
  "bytecode": "0x60c0604052604051612a27380380612a27833981016040819052610022916103af565b600180556100316000846100cf565b5061005c7fe2b7fb3b832174769106daebcfd6d1970523240dda11281102db9363b83b0dc4846100cf565b506001600160a01b038216608081905260a05261007c6004826003610304565b5060005b600360ff821610156100c6576100be828260ff16600381106100a4576100a461045a565b60200201516080516001600160a01b03169060001961017b565b600101610080565b50505050610470565b6000828152602081815260408083206001600160a01b038516845290915281205460ff16610171576000838152602081815260408083206001600160a01b03861684529091529020805460ff191660011790556101293390565b6001600160a01b0316826001600160a01b0316847f2f8788117e7eff1d82e926ec794901d17c78024a50270940304540a733656f0d60405160405180910390a4506001610175565b5060005b92915050565b604080516001600160a01b038416602482015260448082018490528251808303909101815260649091019091526020810180516001600160e01b0390811663095ea7b360e01b179091526101d3908590839061024016565b61023a57604080516001600160a01b038516602482015260006044808301919091528251808303909101815260649091019091526020810180516001600160e01b0390811663095ea7b360e01b1790915261023091869161028f16565b61023a848261028f565b50505050565b6000806000806020600086516020880160008a5af192503d91506000519050828015610285575081156102765780600114610285565b6000866001600160a01b03163b115b9695505050505050565b600080602060008451602086016000885af1806102b2576040513d6000823e3d81fd5b50506000513d915081156102ca5780600114156102d7565b6001600160a01b0384163b155b1561023a57604051635274afe760e01b81526001600160a01b038516600482015260240160405180910390fd5b826003810192821561034c579160200282015b8281111561034c57825182546001600160a01b0319166001600160a01b03909116178255602090920191600190910190610317565b5061035892915061035c565b5090565b5b80821115610358576000815560010161035d565b6001600160a01b038116811461038657600080fd5b50565b634e487b7160e01b600052604160045260246000fd5b80516103aa81610371565b919050565b600080600060a084860312156103c457600080fd5b83516103cf81610371565b60208501519093506103e081610371565b9150605f840185136103f157600080fd5b604051606081016001600160401b038111828210171561041357610413610389565b6040528060a086018781111561042857600080fd5b604087015b8181101561044c5761043e8161039f565b83526020928301920161042d565b505050809150509250925092565b634e487b7160e01b600052603260045260246000fd5b60805160a05161258b61049c600039600061050e0152600081816105910152610767015261258b6000f3fe608060405234801561001057600080fd5b506004361061021b5760003560e01c80638456cb5911610125578063a9ee7825116100ad578063d547741f1161007c578063d547741f14610530578063dd39f00d14610543578063eeaa9c9814610556578063f0ea385214610569578063fc0c546a1461058c57600080fd5b8063a9ee7825146104b3578063b5b5e574146104d3578063b6cc6823146104f6578063d068ce8a1461050957600080fd5b806397e475eb116100f457806397e475eb14610472578063a217fddf14610485578063a41fe49f1461048d578063a5ffae171461035c578063a6f9dae1146104a057600080fd5b80638456cb59146103e357806391d14854146103eb578063926d7d7f14610422578063932bf8011461044957600080fd5b80633f4ba83a116101a85780635972d893116101775780635972d893146103765780635ba506ef146103895780635c975abb1461039c57806376e4c18c146103a75780637ecebe00146103ba57600080fd5b80633f4ba83a146103185780634e4ade5114610320578063502c9bd514610333578063564d56841461035c57600080fd5b80632ae478dd116101ef5780632ae478dd146102a15780632f2ff15d146102cc578063352ce6b8146102df57806336568abe146102f25780633d46b8191461030557600080fd5b8062aeef8a1461022057806301ffc9a7146102355780631940ea101461025d578063248a9ca314610270575b600080fd5b61023361022e3660046122d6565b6105b3565b005b610248610243366004612302565b61089d565b60405190151581526020015b60405180910390f35b61023361026b36600461234f565b6108d4565b61029361027e36600461237b565b60009081526020819052604090206001015490565b604051908152602001610254565b6102b46102af36600461237b565b6109f9565b6040516001600160a01b039091168152602001610254565b6102336102da36600461234f565b610a19565b6102336102ed366004612394565b610a44565b61023361030036600461234f565b610cfb565b61029361031336600461237b565b610d2e565b610233610db2565b61023361032e3660046123cf565b610dc8565b6102b461034136600461237b565b6007602052600090815260409020546001600160a01b031681565b610364600381565b60405160ff9091168152602001610254565b61029361038436600461237b565b610ffc565b61029361039736600461237b565b611069565b60035460ff16610248565b6102336103b536600461240d565b61116a565b6102936103c836600461243f565b6001600160a01b031660009081526002602052604090205490565b610233611641565b6102486103f936600461234f565b6000918252602082815260408084206001600160a01b0393909316845291905290205460ff1690565b6102937fe2b7fb3b832174769106daebcfd6d1970523240dda11281102db9363b83b0dc481565b6102b461045736600461237b565b6000908152600760205260409020546001600160a01b031690565b6102336104803660046123cf565b611654565b610293600081565b61023361049b3660046122d6565b6119f0565b6102336104ae36600461243f565b611d87565b6102936104c136600461237b565b60086020526000908152604090205481565b6103646104e136600461237b565b600a6020526000908152604090205460ff1681565b61036461050436600461237b565b611def565b6102b47f000000000000000000000000000000000000000000000000000000000000000081565b61023361053e36600461234f565b611e5f565b61023361055136600461243f565b611e84565b61036461056436600461237b565b611efa565b61036461057736600461237b565b60096020526000908152604090205460ff1681565b6102b47f000000000000000000000000000000000000000000000000000000000000000081565b6105bb611f6a565b6105c3611f90565b6000838152600760205260409020546001600160a01b03166106225760405162461bcd60e51b8152602060048201526013602482015272155cd95c881b9bdd081c9959da5cdd195c9959606a1b60448201526064015b60405180910390fd5b6000838152600760209081526040808320546001600160a01b03168352600290915290205481146106855760405162461bcd60e51b815260206004820152600d60248201526c496e76616c6964206e6f6e636560981b6044820152606401610619565b6000838152600a6020526040902054600160ff90911610156106dc576000838152600760205260409020546001600160a01b031633146106d75760405162461bcd60e51b81526004016106199061245a565b61072a565b3360009081527ffaf93c3d007e112089dc8351e013e6685ef67703975d0224b26fc45941d4f1f5602052604090205460ff1661072a5760405162461bcd60e51b81526004016106199061249d565b600083815260076020818152604080842080546001600160a01b0390811686526002845291852080546001019055938790529190529054610791917f0000000000000000000000000000000000000000000000000000000000000000811691163085611fba565b60008381526009602052604081205460049060ff16600381106107b6576107b66124ea565b0154604051636e553f6560e01b8152600481018590523060248201526001600160a01b0390911690636e553f65906044016020604051808303816000875af1158015610806573d6000803e3d6000fd5b505050506040513d601f19601f8201168201806040525081019061082a9190612500565b90508060086000868152602001908152602001600020600082825461084f919061252f565b909155505060408051858152602081018590527fa3af609bf46297028ce551832669030f9effef2b02606d02cbbcc40fe6b47c5591015b60405180910390a15061089860018055565b505050565b60006001600160e01b03198216637965db0b60e01b14806108ce57506301ffc9a760e01b6001600160e01b03198316145b92915050565b7fe2b7fb3b832174769106daebcfd6d1970523240dda11281102db9363b83b0dc46108fe81612029565b610906611f90565b6000838152600760205260409020546001600160a01b03161561096b5760405162461bcd60e51b815260206004820152601760248201527f5573657220616c726561647920726567697374657265640000000000000000006044820152606401610619565b6000838152600760209081526040808320805473ffffffffffffffffffffffffffffffffffffffff19166001600160a01b038716908117909155600a835292819020805460ff191660011790558051868152918201929092527fb442efe467d2ef30e62927a3cae0afcbc799a8a0944d8a143332e4e5e51cee5d91015b60405180910390a161089860018055565b60048160038110610a0957600080fd5b01546001600160a01b0316905081565b600082815260208190526040902060010154610a3481612029565b610a3e8383612033565b50505050565b610a4c611f6a565b610a54611f90565b6000848152600760205260409020546001600160a01b0316610aae5760405162461bcd60e51b8152602060048201526013602482015272155cd95c881b9bdd081c9959da5cdd195c9959606a1b6044820152606401610619565b6000848152600760209081526040808320546001600160a01b0316835260029091529020548114610b115760405162461bcd60e51b815260206004820152600d60248201526c496e76616c6964206e6f6e636560981b6044820152606401610619565b6000848152600a6020526040902054600260ff9091161015610b68576000848152600760205260409020546001600160a01b03163314610b635760405162461bcd60e51b81526004016106199061245a565b610bb6565b3360009081527ffaf93c3d007e112089dc8351e013e6685ef67703975d0224b26fc45941d4f1f5602052604090205460ff16610bb65760405162461bcd60e51b81526004016106199061249d565b6000848152600760209081526040808320546001600160a01b031683526002825280832080546001019055868352600990915281205460049060ff1660038110610c0257610c026124ea565b0154604051632d182be560e21b8152600481018590526001600160a01b0386811660248301523060448301529091169063b460af94906064016020604051808303816000875af1158015610c5a573d6000803e3d6000fd5b505050506040513d601f19601f82011682018060405250810190610c7e9190612500565b905080600860008781526020019081526020016000206000828254610ca39190612542565b9091555050604080518681526001600160a01b03861660208201529081018490527f2e90d1cd7a5e9a5b99747c36130d866c8687bff313d44cdd245df73bcda436219060600160405180910390a150610a3e60018055565b6001600160a01b0381163314610d245760405163334bd91960e11b815260040160405180910390fd5b61089882826120dd565b6000818152600760205260408120546001600160a01b0316610d885760405162461bcd60e51b8152602060048201526013602482015272155cd95c881b9bdd081c9959da5cdd195c9959606a1b6044820152606401610619565b6000828152600760209081526040808320546001600160a01b0316835260029091529020546108ce565b6000610dbd81612029565b610dc5612160565b50565b610dd0611f90565b6000838152600760205260409020546001600160a01b0316610e2a5760405162461bcd60e51b8152602060048201526013602482015272155cd95c881b9bdd081c9959da5cdd195c9959606a1b6044820152606401610619565b600360ff831610610e7d5760405162461bcd60e51b815260206004820152601460248201527f496e76616c696420617574682070726f66696c650000000000000000000000006044820152606401610619565b6000838152600760209081526040808320546001600160a01b0316835260029091529020548114610ee05760405162461bcd60e51b815260206004820152600d60248201526c496e76616c6964206e6f6e636560981b6044820152606401610619565b6000838152600a6020526040902054600260ff9091161015610f37576000838152600760205260409020546001600160a01b03163314610f325760405162461bcd60e51b81526004016106199061245a565b610f85565b3360009081527ffaf93c3d007e112089dc8351e013e6685ef67703975d0224b26fc45941d4f1f5602052604090205460ff16610f855760405162461bcd60e51b81526004016106199061249d565b6000838152600760209081526040808320546001600160a01b031683526002825280832080546001019055858352600a825291829020805460ff191660ff86169081179091558251868152918201527fa535332199fc6ba20738ea9ab2b789d80cd575920c1e5a0210a17185423c49d891016109e8565b6000818152600760205260408120546001600160a01b03166110565760405162461bcd60e51b8152602060048201526013602482015272155cd95c881b9bdd081c9959da5cdd195c9959606a1b6044820152606401610619565b5060009081526008602052604090205490565b6000818152600760205260408120546001600160a01b03166110c35760405162461bcd60e51b8152602060048201526013602482015272155cd95c881b9bdd081c9959da5cdd195c9959606a1b6044820152606401610619565b60008281526009602052604090205460049060ff16600381106110e8576110e86124ea565b0154600083815260086020526040908190205490516303d1689d60e11b81526001600160a01b03909216916307a2d13a916111299160040190815260200190565b602060405180830381865afa158015611146573d6000803e3d6000fd5b505050506040513d601f19601f820116820180604052508101906108ce9190612500565b611172611f6a565b61117a611f90565b6000848152600760205260409020546001600160a01b03166111d45760405162461bcd60e51b8152602060048201526013602482015272155cd95c881b9bdd081c9959da5cdd195c9959606a1b6044820152606401610619565b6000838152600760205260409020546001600160a01b03166112385760405162461bcd60e51b815260206004820152601760248201527f5265636569766572206e6f7420726567697374657265640000000000000000006044820152606401610619565b6000848152600760209081526040808320546001600160a01b031683526002909152902054811461129b5760405162461bcd60e51b815260206004820152600d60248201526c496e76616c6964206e6f6e636560981b6044820152606401610619565b6000848152600a6020526040902054600260ff90911610156112f2576000848152600760205260409020546001600160a01b031633146112ed5760405162461bcd60e51b81526004016106199061245a565b611340565b3360009081527ffaf93c3d007e112089dc8351e013e6685ef67703975d0224b26fc45941d4f1f5602052604090205460ff166113405760405162461bcd60e51b81526004016106199061249d565b6000848152600760209081526040808320546001600160a01b03168352600282528083208054600101905586835260099091528082205485835291205460ff918216911680820361146357600060048360ff16600381106113a3576113a36124ea565b01546040516363737ac960e11b8152600481018790526001600160a01b039091169063c6e6f59290602401602060405180830381865afa1580156113eb573d6000803e3d6000fd5b505050506040513d601f19601f8201168201806040525081019061140f9190612500565b9050806008600089815260200190815260200160002060008282546114349190612542565b90915550506000868152600860205260408120805483929061145790849061252f565b909155506115f5915050565b600060048360ff166003811061147b5761147b6124ea565b015460008781526007602052604090819020549051632d182be560e21b8152600481018890523060248201526001600160a01b03918216604482015291169063b460af94906064016020604051808303816000875af11580156114e2573d6000803e3d6000fd5b505050506040513d601f19601f820116820180604052508101906115069190612500565b9050600060048360ff1660038110611520576115206124ea565b015460008881526007602052604090819020549051636e553f6560e01b8152600481018990526001600160a01b039182166024820152911690636e553f65906044016020604051808303816000875af1158015611581573d6000803e3d6000fd5b505050506040513d601f19601f820116820180604052508101906115a59190612500565b905081600860008a815260200190815260200160002060008282546115ca9190612542565b9091555050600087815260086020526040812080548392906115ed90849061252f565b909155505050505b60408051878152602081018790529081018590527ff6b9becd23b4420f8fd6f8cde42307ca0cab31c11ad2fcb4f5a966d85dc63b2b9060600160405180910390a15050610a3e60018055565b600061164c81612029565b610dc56121b2565b61165c611f90565b6000838152600760205260409020546001600160a01b03166116b65760405162461bcd60e51b8152602060048201526013602482015272155cd95c881b9bdd081c9959da5cdd195c9959606a1b6044820152606401610619565b600360ff8316106117095760405162461bcd60e51b815260206004820152601460248201527f496e76616c6964207269736b2070726f66696c650000000000000000000000006044820152606401610619565b6000838152600760209081526040808320546001600160a01b031683526002909152902054811461176c5760405162461bcd60e51b815260206004820152600d60248201526c496e76616c6964206e6f6e636560981b6044820152606401610619565b6000838152600a6020526040902054600260ff90911610156117c3576000838152600760205260409020546001600160a01b031633146117be5760405162461bcd60e51b81526004016106199061245a565b611811565b3360009081527ffaf93c3d007e112089dc8351e013e6685ef67703975d0224b26fc45941d4f1f5602052604090205460ff166118115760405162461bcd60e51b81526004016106199061249d565b6000838152600760209081526040808320546001600160a01b03168352600282528083208054600101905585835260089091529020541561199d5760008381526009602052604081205460049060ff1660038110611871576118716124ea565b015460008581526008602052604090819020549051632d182be560e21b81526004810191909152306024820181905260448201526001600160a01b039091169063b460af94906064016020604051808303816000875af11580156118d9573d6000803e3d6000fd5b505050506040513d601f19601f820116820180604052508101906118fd9190612500565b9050600060048460ff1660038110611917576119176124ea565b0154604051636e553f6560e01b8152600481018490523060248201526001600160a01b0390911690636e553f65906044016020604051808303816000875af1158015611967573d6000803e3d6000fd5b505050506040513d601f19601f8201168201806040525081019061198b9190612500565b60008681526008602052604090205550505b600083815260096020908152604091829020805460ff191660ff86169081179091558251868152918201527f4a1aad2522dd09c435754834bba69e2394af841f429078ea985a80091519b76491016109e8565b6119f8611f6a565b611a00611f90565b6000838152600760205260409020546001600160a01b0316611a5a5760405162461bcd60e51b8152602060048201526013602482015272155cd95c881b9bdd081c9959da5cdd195c9959606a1b6044820152606401610619565b6000838152600760209081526040808320546001600160a01b0316835260029091529020548114611abd5760405162461bcd60e51b815260206004820152600d60248201526c496e76616c6964206e6f6e636560981b6044820152606401610619565b6000838152600a6020526040902054600160ff9091161015611b14576000838152600760205260409020546001600160a01b03163314611b0f5760405162461bcd60e51b81526004016106199061245a565b611b62565b3360009081527ffaf93c3d007e112089dc8351e013e6685ef67703975d0224b26fc45941d4f1f5602052604090205460ff16611b625760405162461bcd60e51b81526004016106199061249d565b6000838152600760209081526040808320546001600160a01b031683526002825280832080546001019055858352600990915290205460049060ff1660038110611bae57611bae6124ea565b01546040516363737ac960e11b8152600481018490526001600160a01b039091169063c6e6f59290602401602060405180830381865afa158015611bf6573d6000803e3d6000fd5b505050506040513d601f19601f82011682018060405250810190611c1a9190612500565b6000848152600860205260409020541015611c775760405162461bcd60e51b815260206004820152601160248201527f4e6f7420656e6f756768207368617265730000000000000000000000000000006044820152606401610619565b60008381526009602052604081205460049060ff1660038110611c9c57611c9c6124ea565b015460008581526007602052604090819020549051632d182be560e21b8152600481018690526001600160a01b03918216602482015230604482015291169063b460af94906064016020604051808303816000875af1158015611d03573d6000803e3d6000fd5b505050506040513d601f19601f82011682018060405250810190611d279190612500565b905080600860008681526020019081526020016000206000828254611d4c9190612542565b909155505060408051858152602081018590527f56ca301a9219608c91e7bcee90e083c19671d2cdcc96752c7af291cee5f9c8c89101610886565b6000611d9281612029565b611d9a611f90565b611da5600083610a19565b6040516001600160a01b03831681527fa2ea9883a321a3e97b8266c2b078bfeec6d50c711ed71f874a90d500ae2eaf36906020015b60405180910390a1611deb60018055565b5050565b6000818152600760205260408120546001600160a01b0316611e495760405162461bcd60e51b8152602060048201526013602482015272155cd95c881b9bdd081c9959da5cdd195c9959606a1b6044820152606401610619565b5060009081526009602052604090205460ff1690565b600082815260208190526040902060010154611e7a81612029565b610a3e83836120dd565b6000611e8f81612029565b611e97611f90565b611ec17fe2b7fb3b832174769106daebcfd6d1970523240dda11281102db9363b83b0dc483610a19565b6040516001600160a01b03831681527f03580ee9f53a62b7cb409a2cb56f9be87747dd15017afc5cef6eef321e4fb2c590602001611dda565b6000818152600760205260408120546001600160a01b0316611f545760405162461bcd60e51b8152602060048201526013602482015272155cd95c881b9bdd081c9959da5cdd195c9959606a1b6044820152606401610619565b506000908152600a602052604090205460ff1690565b60035460ff1615611f8e5760405163d93c066560e01b815260040160405180910390fd5b565b600260015403611fb357604051633ee5aeb560e01b815260040160405180910390fd5b6002600155565b604080516001600160a01b0385811660248301528416604482015260648082018490528251808303909101815260849091019091526020810180517bffffffffffffffffffffffffffffffffffffffffffffffffffffffff166323b872dd60e01b179052610a3e9085906121ef565b610dc58133612260565b6000828152602081815260408083206001600160a01b038516845290915281205460ff166120d5576000838152602081815260408083206001600160a01b03861684529091529020805460ff1916600117905561208d3390565b6001600160a01b0316826001600160a01b0316847f2f8788117e7eff1d82e926ec794901d17c78024a50270940304540a733656f0d60405160405180910390a45060016108ce565b5060006108ce565b6000828152602081815260408083206001600160a01b038516845290915281205460ff16156120d5576000838152602081815260408083206001600160a01b0386168085529252808320805460ff1916905551339286917ff6391f5c32d9c69d2a47ea670b442974b53935d1edc7fd64eb21e047a839171b9190a45060016108ce565b6121686122b3565b6003805460ff191690557f5db9ee0a495bf2e6ff9c91a7834c1ba4fdd244a5e8aa4e537bd38aeae4b073aa335b6040516001600160a01b03909116815260200160405180910390a1565b6121ba611f6a565b6003805460ff191660011790557f62e78cea01bee320cd4e420270b5ea74000d11b0c9f74754ebdbfc544b05a2586121953390565b600080602060008451602086016000885af180612212576040513d6000823e3d81fd5b50506000513d9150811561222a578060011415612237565b6001600160a01b0384163b155b15610a3e57604051635274afe760e01b81526001600160a01b0385166004820152602401610619565b6000828152602081815260408083206001600160a01b038516845290915290205460ff16611deb5760405163e2517d3f60e01b81526001600160a01b038216600482015260248101839052604401610619565b60035460ff16611f8e57604051638dfc202b60e01b815260040160405180910390fd5b6000806000606084860312156122eb57600080fd5b505081359360208301359350604090920135919050565b60006020828403121561231457600080fd5b81356001600160e01b03198116811461232c57600080fd5b9392505050565b80356001600160a01b038116811461234a57600080fd5b919050565b6000806040838503121561236257600080fd5b8235915061237260208401612333565b90509250929050565b60006020828403121561238d57600080fd5b5035919050565b600080600080608085870312156123aa57600080fd5b843593506123ba60208601612333565b93969395505050506040820135916060013590565b6000806000606084860312156123e457600080fd5b83359250602084013560ff811681146123fc57600080fd5b929592945050506040919091013590565b6000806000806080858703121561242357600080fd5b5050823594602084013594506040840135936060013592509050565b60006020828403121561245157600080fd5b61232c82612333565b60208082526023908201527f5468652075736572206d75737420617574686f72697a6520746869732061637460408201526234b7b760e91b606082015260800190565b6020808252602d908201527f4f6e6c7920617574686f72697a65642072656c61796572732063616e2074616b60408201526c32903a3434b99030b1ba34b7b760991b606082015260800190565b634e487b7160e01b600052603260045260246000fd5b60006020828403121561251257600080fd5b5051919050565b634e487b7160e01b600052601160045260246000fd5b808201808211156108ce576108ce612519565b818103818111156108ce576108ce61251956fea2646970667358221220869ef2379d715dcfe317aeb4146b093488d82917505c3f9c4fa4b7bfa244bd9e64736f6c634300081c0033",
  "linkReferences": {},
  "deployedLinkReferences": {}
}