{
  "_format": "hh-sol-artifact-1",
  "contractName": "TokenVaultWithRelayer",
  "sourceName": "contracts/Vault.sol",
  "abi": [
    {
      "inputs": [
        {
          "internalType": "address",
          "name": "initialOwner",
          "type": "address"
        },
        {
          "internalType": "address",
          "name": "_token",
          "type": "address"
        },
        {
          "internalType": "contract IERC4626[3]",
          "name": "_externalVaults",
          "type": "address[3]"
        }
      ],
      "stateMutability": "payable",
      "type": "constructor"
    },
    {
      "inputs": [],
      "name": "AccessControlBadConfirmation",
      "type": "error"
    },
    {
      "inputs": [
        {
          "internalType": "address",
          "name": "account",
          "type": "address"
        },
        {
          "internalType": "bytes32",
          "name": "neededRole",
          "type": "bytes32"
        }
      ],
      "name": "AccessControlUnauthorizedAccount",
      "type": "error"
    },
    {
      "inputs": [],
      "name": "EnforcedPause",
      "type": "error"
    },
    {
      "inputs": [],
      "name": "ExpectedPause",
      "type": "error"
    },
    {
      "inputs": [
        {
          "internalType": "address",
          "name": "account",
          "type": "address"
        },
        {
          "internalType": "uint256",
          "name": "currentNonce",
          "type": "uint256"
        }
      ],
      "name": "InvalidAccountNonce",
      "type": "error"
    },
    {
      "inputs": [],
      "name": "ReentrancyGuardReentrantCall",
      "type": "error"
    },
    {
      "inputs": [
        {
          "internalType": "address",
          "name": "token",
          "type": "address"
        }
      ],
      "name": "SafeERC20FailedOperation",
      "type": "error"
    },
    {
      "anonymous": false,
      "inputs": [
        {
          "indexed": false,
          "internalType": "uint256",
          "name": "user",
          "type": "uint256"
        },
        {
          "indexed": false,
          "internalType": "uint8",
          "name": "profile",
          "type": "uint8"
        }
      ],
      "name": "AuthProfileSet",
      "type": "event"
    },
    {
      "anonymous": false,
      "inputs": [
        {
          "indexed": false,
          "internalType": "uint256",
          "name": "user",
          "type": "uint256"
        },
        {
          "indexed": false,
          "internalType": "uint256",
          "name": "threshold",
          "type": "uint256"
        }
      ],
      "name": "AuthThresholdSet",
      "type": "event"
    },
    {
      "anonymous": false,
      "inputs": [
        {
          "indexed": false,
          "internalType": "uint256",
          "name": "user",
          "type": "uint256"
        },
        {
          "indexed": false,
          "internalType": "uint256",
          "name": "assets",
          "type": "uint256"
        }
      ],
      "name": "Deposit",
      "type": "event"
    },
    {
      "anonymous": false,
      "inputs": [
        {
          "indexed": false,
          "internalType": "address",
          "name": "newOwner",
          "type": "address"
        }
      ],
      "name": "OwnerChanged",
      "type": "event"
    },
    {
      "anonymous": false,
      "inputs": [
        {
          "indexed": false,
          "internalType": "address",
          "name": "account",
          "type": "address"
        }
      ],
      "name": "Paused",
      "type": "event"
    },
    {
      "anonymous": false,
      "inputs": [
        {
          "indexed": false,
          "internalType": "address",
          "name": "account",
          "type": "address"
        }
      ],
      "name": "RelayerAdded",
      "type": "event"
    },
    {
      "anonymous": false,
      "inputs": [
        {
          "indexed": false,
          "internalType": "uint256",
          "name": "user",
          "type": "uint256"
        },
        {
          "indexed": false,
          "internalType": "uint8",
          "name": "profile",
          "type": "uint8"
        }
      ],
      "name": "RiskProfileSet",
      "type": "event"
    },
    {
      "anonymous": false,
      "inputs": [
        {
          "indexed": true,
          "internalType": "bytes32",
          "name": "role",
          "type": "bytes32"
        },
        {
          "indexed": true,
          "internalType": "bytes32",
          "name": "previousAdminRole",
          "type": "bytes32"
        },
        {
          "indexed": true,
          "internalType": "bytes32",
          "name": "newAdminRole",
          "type": "bytes32"
        }
      ],
      "name": "RoleAdminChanged",
      "type": "event"
    },
    {
      "anonymous": false,
      "inputs": [
        {
          "indexed": true,
          "internalType": "bytes32",
          "name": "role",
          "type": "bytes32"
        },
        {
          "indexed": true,
          "internalType": "address",
          "name": "account",
          "type": "address"
        },
        {
          "indexed": true,
          "internalType": "address",
          "name": "sender",
          "type": "address"
        }
      ],
      "name": "RoleGranted",
      "type": "event"
    },
    {
      "anonymous": false,
      "inputs": [
        {
          "indexed": true,
          "internalType": "bytes32",
          "name": "role",
          "type": "bytes32"
        },
        {
          "indexed": true,
          "internalType": "address",
          "name": "account",
          "type": "address"
        },
        {
          "indexed": true,
          "internalType": "address",
          "name": "sender",
          "type": "address"
        }
      ],
      "name": "RoleRevoked",
      "type": "event"
    },
    {
      "anonymous": false,
      "inputs": [
        {
          "indexed": false,
          "internalType": "uint256",
          "name": "userFrom",
          "type": "uint256"
        },
        {
          "indexed": false,
          "internalType": "address",
          "name": "userTo",
          "type": "address"
        },
        {
          "indexed": false,
          "internalType": "uint256",
          "name": "assets",
          "type": "uint256"
        }
      ],
      "name": "Transfer",
      "type": "event"
    },
    {
      "anonymous": false,
      "inputs": [
        {
          "indexed": false,
          "internalType": "uint256",
          "name": "userFrom",
          "type": "uint256"
        },
        {
          "indexed": false,
          "internalType": "uint256",
          "name": "userTo",
          "type": "uint256"
        },
        {
          "indexed": false,
          "internalType": "uint256",
          "name": "assets",
          "type": "uint256"
        }
      ],
      "name": "TransferWithinVault",
      "type": "event"
    },
    {
      "anonymous": false,
      "inputs": [
        {
          "indexed": false,
          "internalType": "address",
          "name": "account",
          "type": "address"
        }
      ],
      "name": "Unpaused",
      "type": "event"
    },
    {
      "anonymous": false,
      "inputs": [
        {
          "indexed": false,
          "internalType": "uint256",
          "name": "user",
          "type": "uint256"
        },
        {
          "indexed": false,
          "internalType": "address",
          "name": "wallet",
          "type": "address"
        }
      ],
      "name": "UserRegistered",
      "type": "event"
    },
    {
      "anonymous": false,
      "inputs": [
        {
          "indexed": false,
          "internalType": "uint256",
          "name": "user",
          "type": "uint256"
        },
        {
          "indexed": false,
          "internalType": "uint256",
          "name": "assets",
          "type": "uint256"
        }
      ],
      "name": "Withdraw",
      "type": "event"
    },
    {
      "inputs": [],
      "name": "DEFAULT_ADMIN_ROLE",
      "outputs": [
        {
          "internalType": "bytes32",
          "name": "",
          "type": "bytes32"
        }
      ],
      "stateMutability": "view",
      "type": "function"
    },
    {
      "inputs": [],
      "name": "NumberOfAuthProfiles",
      "outputs": [
        {
          "internalType": "uint8",
          "name": "",
          "type": "uint8"
        }
      ],
      "stateMutability": "view",
      "type": "function"
    },
    {
      "inputs": [],
      "name": "NumberOfRiskProfiles",
      "outputs": [
        {
          "internalType": "uint8",
          "name": "",
          "type": "uint8"
        }
      ],
      "stateMutability": "view",
      "type": "function"
    },
    {
      "inputs": [],
      "name": "RELAYER_ROLE",
      "outputs": [
        {
          "internalType": "bytes32",
          "name": "",
          "type": "bytes32"
        }
      ],
      "stateMutability": "view",
      "type": "function"
    },
    {
      "inputs": [
        {
          "internalType": "address",
          "name": "account",
          "type": "address"
        }
      ],
      "name": "addRelayer",
      "outputs": [],
      "stateMutability": "nonpayable",
      "type": "function"
    },
    {
      "inputs": [
        {
          "internalType": "uint256",
          "name": "_user",
          "type": "uint256"
        },
        {
          "internalType": "uint8",
          "name": "_authProfile",
          "type": "uint8"
        },
        {
          "internalType": "uint256",
          "name": "nonce",
          "type": "uint256"
        }
      ],
      "name": "changeAuthProfile",
      "outputs": [],
      "stateMutability": "nonpayable",
      "type": "function"
    },
    {
      "inputs": [
        {
          "internalType": "uint256",
          "name": "_user",
          "type": "uint256"
        },
        {
          "internalType": "uint256",
          "name": "_authThreshold",
          "type": "uint256"
        },
        {
          "internalType": "uint256",
          "name": "nonce",
          "type": "uint256"
        }
      ],
      "name": "changeAuthThreshold",
      "outputs": [],
      "stateMutability": "nonpayable",
      "type": "function"
    },
    {
      "inputs": [
        {
          "internalType": "address",
          "name": "newOwner",
          "type": "address"
        }
      ],
      "name": "changeOwner",
      "outputs": [],
      "stateMutability": "nonpayable",
      "type": "function"
    },
    {
      "inputs": [
        {
          "internalType": "uint256",
          "name": "_user",
          "type": "uint256"
        },
        {
          "internalType": "uint8",
          "name": "_riskProfile",
          "type": "uint8"
        },
        {
          "internalType": "uint256",
          "name": "nonce",
          "type": "uint256"
        }
      ],
      "name": "changeRiskProfile",
      "outputs": [],
      "stateMutability": "nonpayable",
      "type": "function"
    },
    {
      "inputs": [
        {
          "internalType": "uint256",
          "name": "_user",
          "type": "uint256"
        },
        {
          "internalType": "uint256",
          "name": "_assets",
          "type": "uint256"
        },
        {
          "internalType": "uint256",
          "name": "_nonce",
          "type": "uint256"
        }
      ],
      "name": "deposit",
      "outputs": [],
      "stateMutability": "nonpayable",
      "type": "function"
    },
    {
      "inputs": [
        {
          "internalType": "uint256",
          "name": "",
          "type": "uint256"
        }
      ],
      "name": "externalVaults",
      "outputs": [
        {
          "internalType": "contract IERC4626",
          "name": "",
          "type": "address"
        }
      ],
      "stateMutability": "view",
      "type": "function"
    },
    {
      "inputs": [
        {
          "internalType": "uint256",
          "name": "user",
          "type": "uint256"
        }
      ],
      "name": "getNonce",
      "outputs": [
        {
          "internalType": "uint256",
          "name": "",
          "type": "uint256"
        }
      ],
      "stateMutability": "view",
      "type": "function"
    },
    {
      "inputs": [
        {
          "internalType": "bytes32",
          "name": "role",
          "type": "bytes32"
        }
      ],
      "name": "getRoleAdmin",
      "outputs": [
        {
          "internalType": "bytes32",
          "name": "",
          "type": "bytes32"
        }
      ],
      "stateMutability": "view",
      "type": "function"
    },
    {
      "inputs": [
        {
          "internalType": "uint256",
          "name": "user",
          "type": "uint256"
        }
      ],
      "name": "getUserAssets",
      "outputs": [
        {
          "internalType": "uint256",
          "name": "",
          "type": "uint256"
        }
      ],
      "stateMutability": "view",
      "type": "function"
    },
    {
      "inputs": [
        {
          "internalType": "uint256",
          "name": "user",
          "type": "uint256"
        }
      ],
      "name": "getUserAuthProfile",
      "outputs": [
        {
          "internalType": "uint8",
          "name": "",
          "type": "uint8"
        }
      ],
      "stateMutability": "view",
      "type": "function"
    },
    {
      "inputs": [
        {
          "internalType": "uint256",
          "name": "user",
          "type": "uint256"
        }
      ],
      "name": "getUserAuthThreshold",
      "outputs": [
        {
          "internalType": "uint256",
          "name": "",
          "type": "uint256"
        }
      ],
      "stateMutability": "view",
      "type": "function"
    },
    {
      "inputs": [
        {
          "internalType": "uint256",
          "name": "user",
          "type": "uint256"
        }
      ],
      "name": "getUserRiskProfile",
      "outputs": [
        {
          "internalType": "uint8",
          "name": "",
          "type": "uint8"
        }
      ],
      "stateMutability": "view",
      "type": "function"
    },
    {
      "inputs": [
        {
          "internalType": "uint256",
          "name": "user",
          "type": "uint256"
        }
      ],
      "name": "getUserShares",
      "outputs": [
        {
          "internalType": "uint256",
          "name": "",
          "type": "uint256"
        }
      ],
      "stateMutability": "view",
      "type": "function"
    },
    {
      "inputs": [
        {
          "internalType": "uint256",
          "name": "user",
          "type": "uint256"
        }
      ],
      "name": "getUserWallet",
      "outputs": [
        {
          "internalType": "address",
          "name": "",
          "type": "address"
        }
      ],
      "stateMutability": "view",
      "type": "function"
    },
    {
      "inputs": [
        {
          "internalType": "bytes32",
          "name": "role",
          "type": "bytes32"
        },
        {
          "internalType": "address",
          "name": "account",
          "type": "address"
        }
      ],
      "name": "grantRole",
      "outputs": [],
      "stateMutability": "nonpayable",
      "type": "function"
    },
    {
      "inputs": [
        {
          "internalType": "bytes32",
          "name": "role",
          "type": "bytes32"
        },
        {
          "internalType": "address",
          "name": "account",
          "type": "address"
        }
      ],
      "name": "hasRole",
      "outputs": [
        {
          "internalType": "bool",
          "name": "",
          "type": "bool"
        }
      ],
      "stateMutability": "view",
      "type": "function"
    },
    {
      "inputs": [
        {
          "internalType": "address",
          "name": "owner",
          "type": "address"
        }
      ],
      "name": "nonces",
      "outputs": [
        {
          "internalType": "uint256",
          "name": "",
          "type": "uint256"
        }
      ],
      "stateMutability": "view",
      "type": "function"
    },
    {
      "inputs": [],
      "name": "pause",
      "outputs": [],
      "stateMutability": "nonpayable",
      "type": "function"
    },
    {
      "inputs": [],
      "name": "paused",
      "outputs": [
        {
          "internalType": "bool",
          "name": "",
          "type": "bool"
        }
      ],
      "stateMutability": "view",
      "type": "function"
    },
    {
      "inputs": [
        {
          "internalType": "uint256",
          "name": "_user",
          "type": "uint256"
        },
        {
          "internalType": "address",
          "name": "_wallet",
          "type": "address"
        }
      ],
      "name": "registerUser",
      "outputs": [],
      "stateMutability": "nonpayable",
      "type": "function"
    },
    {
      "inputs": [
        {
          "internalType": "bytes32",
          "name": "role",
          "type": "bytes32"
        },
        {
          "internalType": "address",
          "name": "callerConfirmation",
          "type": "address"
        }
      ],
      "name": "renounceRole",
      "outputs": [],
      "stateMutability": "nonpayable",
      "type": "function"
    },
    {
      "inputs": [
        {
          "internalType": "bytes32",
          "name": "role",
          "type": "bytes32"
        },
        {
          "internalType": "address",
          "name": "account",
          "type": "address"
        }
      ],
      "name": "revokeRole",
      "outputs": [],
      "stateMutability": "nonpayable",
      "type": "function"
    },
    {
      "inputs": [
        {
          "internalType": "bytes4",
          "name": "interfaceId",
          "type": "bytes4"
        }
      ],
      "name": "supportsInterface",
      "outputs": [
        {
          "internalType": "bool",
          "name": "",
          "type": "bool"
        }
      ],
      "stateMutability": "view",
      "type": "function"
    },
    {
      "inputs": [],
      "name": "token",
      "outputs": [
        {
          "internalType": "contract IERC20",
          "name": "",
          "type": "address"
        }
      ],
      "stateMutability": "view",
      "type": "function"
    },
    {
      "inputs": [],
      "name": "tokenPermit",
      "outputs": [
        {
          "internalType": "contract IERC20Permit",
          "name": "",
          "type": "address"
        }
      ],
      "stateMutability": "view",
      "type": "function"
    },
    {
      "inputs": [
        {
          "internalType": "uint256",
          "name": "_userFrom",
          "type": "uint256"
        },
        {
          "internalType": "address",
          "name": "_userTo",
          "type": "address"
        },
        {
          "internalType": "uint256",
          "name": "_assets",
          "type": "uint256"
        },
        {
          "internalType": "uint256",
          "name": "_nonce",
          "type": "uint256"
        }
      ],
      "name": "transfer",
      "outputs": [],
      "stateMutability": "nonpayable",
      "type": "function"
    },
    {
      "inputs": [
        {
          "internalType": "uint256",
          "name": "_userFrom",
          "type": "uint256"
        },
        {
          "internalType": "uint256",
          "name": "_userTo",
          "type": "uint256"
        },
        {
          "internalType": "uint256",
          "name": "_assets",
          "type": "uint256"
        },
        {
          "internalType": "uint256",
          "name": "_nonce",
          "type": "uint256"
        }
      ],
      "name": "transferWithinVault",
      "outputs": [],
      "stateMutability": "nonpayable",
      "type": "function"
    },
    {
      "inputs": [],
      "name": "unpause",
      "outputs": [],
      "stateMutability": "nonpayable",
      "type": "function"
    },
    {
      "inputs": [
        {
          "internalType": "uint256",
          "name": "",
          "type": "uint256"
        }
      ],
      "name": "userAddresses",
      "outputs": [
        {
          "internalType": "address",
          "name": "",
          "type": "address"
        }
      ],
      "stateMutability": "view",
      "type": "function"
    },
    {
      "inputs": [
        {
          "internalType": "uint256",
          "name": "",
          "type": "uint256"
        }
      ],
      "name": "userAuthProfile",
      "outputs": [
        {
          "internalType": "uint8",
          "name": "",
          "type": "uint8"
        }
      ],
      "stateMutability": "view",
      "type": "function"
    },
    {
      "inputs": [
        {
          "internalType": "uint256",
          "name": "",
          "type": "uint256"
        }
      ],
      "name": "userAuthThreshold",
      "outputs": [
        {
          "internalType": "uint256",
          "name": "",
          "type": "uint256"
        }
      ],
      "stateMutability": "view",
      "type": "function"
    },
    {
      "inputs": [
        {
          "internalType": "uint256",
          "name": "",
          "type": "uint256"
        }
      ],
      "name": "userRiskProfile",
      "outputs": [
        {
          "internalType": "uint8",
          "name": "",
          "type": "uint8"
        }
      ],
      "stateMutability": "view",
      "type": "function"
    },
    {
      "inputs": [
        {
          "internalType": "uint256",
          "name": "",
          "type": "uint256"
        }
      ],
      "name": "userShares",
      "outputs": [
        {
          "internalType": "uint256",
          "name": "",
          "type": "uint256"
        }
      ],
      "stateMutability": "view",
      "type": "function"
    },
    {
      "inputs": [
        {
          "internalType": "uint256",
          "name": "_user",
          "type": "uint256"
        },
        {
          "internalType": "uint256",
          "name": "_assets",
          "type": "uint256"
        },
        {
          "internalType": "uint256",
          "name": "_nonce",
          "type": "uint256"
        }
      ],
      "name": "withdraw",
      "outputs": [],
      "stateMutability": "nonpayable",
      "type": "function"
    }
  ],
  "bytecode": "0x60c0604052604051612e74380380612e74833981016040819052610022916101dc565b60018055610031600084610085565b5061005c7fe2b7fb3b832174769106daebcfd6d1970523240dda11281102db9363b83b0dc484610085565b506001600160a01b038216608081905260a05261007c6004826003610131565b50505050610287565b6000828152602081815260408083206001600160a01b038516845290915281205460ff16610127576000838152602081815260408083206001600160a01b03861684529091529020805460ff191660011790556100df3390565b6001600160a01b0316826001600160a01b0316847f2f8788117e7eff1d82e926ec794901d17c78024a50270940304540a733656f0d60405160405180910390a450600161012b565b5060005b92915050565b8260038101928215610179579160200282015b8281111561017957825182546001600160a01b0319166001600160a01b03909116178255602090920191600190910190610144565b50610185929150610189565b5090565b5b80821115610185576000815560010161018a565b6001600160a01b03811681146101b357600080fd5b50565b634e487b7160e01b600052604160045260246000fd5b80516101d78161019e565b919050565b600080600060a084860312156101f157600080fd5b83516101fc8161019e565b602085015190935061020d8161019e565b9150605f8401851361021e57600080fd5b604051606081016001600160401b0381118282101715610240576102406101b6565b6040528060a086018781111561025557600080fd5b604087015b818110156102795761026b816101cc565b83526020928301920161025a565b505050809150509250925092565b60805160a051612bac6102c860003960006105620152600081816105f80152818161080801528181610c95015281816114e901526125e70152612bac6000f3fe608060405234801561001057600080fd5b506004361061023c5760003560e01c80638456cb591161013b578063b5b5e574116100b8578063dd39f00d1161007c578063dd39f00d14610597578063e6de5165146105aa578063eeaa9c98146105bd578063f0ea3852146105d0578063fc0c546a146105f357600080fd5b8063b5b5e57414610514578063b6cc682314610537578063c058beb81461054a578063d068ce8a1461055d578063d547741f1461058457600080fd5b8063a217fddf116100ff578063a217fddf146104c6578063a41fe49f146104ce578063a5ffae1714610377578063a6f9dae1146104e1578063a9ee7825146104f457600080fd5b80638456cb591461042457806386707a601461042c57806391d148541461043f578063926d7d7f14610476578063932bf8011461049d57600080fd5b80633f4ba83a116101c95780635c975abb1161018d5780635c975abb146103b75780636c35b13a146103c257806376e4c18c146103d55780637ecebe00146103e857806382b8ea1c1461041157600080fd5b80633f4ba83a14610346578063502c9bd51461034e578063564d5684146103775780635972d893146103915780635ba506ef146103a457600080fd5b80632ae478dd116102105780632ae478dd146102cf5780632f2ff15d146102fa578063352ce6b81461030d57806336568abe146103205780633d46b8191461033357600080fd5b8062aeef8a1461024157806301ffc9a7146102565780631bff2f5e1461027e578063248a9ca3146102ac575b600080fd5b61025461024f3660046128e7565b61061a565b005b610269610264366004612913565b61093e565b60405190151581526020015b60405180910390f35b61029e61028c366004612944565b600b6020526000908152604090205481565b604051908152602001610275565b61029e6102ba366004612944565b60009081526020819052604090206001015490565b6102e26102dd366004612944565b610975565b6040516001600160a01b039091168152602001610275565b610254610308366004612979565b610995565b61025461031b3660046129a5565b6109c0565b61025461032e366004612979565b610d14565b61029e610341366004612944565b610d47565b610254610dcb565b6102e261035c366004612944565b6007602052600090815260409020546001600160a01b031681565b61037f600381565b60405160ff9091168152602001610275565b61029e61039f366004612944565b610de1565b61029e6103b2366004612944565b610e4e565b60035460ff16610269565b6102546103d03660046128e7565b610ef5565b6102546103e33660046129e0565b611069565b61029e6103f6366004612a12565b6001600160a01b031660009081526002602052604090205490565b61029e61041f366004612944565b611626565b610254611693565b61025461043a366004612a2d565b6116a6565b61026961044d366004612979565b6000918252602082815260408084206001600160a01b0393909316845291905290205460ff1690565b61029e7fe2b7fb3b832174769106daebcfd6d1970523240dda11281102db9363b83b0dc481565b6102e26104ab366004612944565b6000908152600760205260409020546001600160a01b031690565b61029e600081565b6102546104dc3660046128e7565b611a63565b6102546104ef366004612a12565b611e34565b61029e610502366004612944565b60086020526000908152604090205481565b61037f610522366004612944565b600a6020526000908152604090205460ff1681565b61037f610545366004612944565b611e9c565b610254610558366004612a2d565b611f0c565b6102e27f000000000000000000000000000000000000000000000000000000000000000081565b610254610592366004612979565b612161565b6102546105a5366004612a12565b612186565b6102546105b8366004612979565b6121fc565b61037f6105cb366004612944565b612314565b61037f6105de366004612944565b60096020526000908152604090205460ff1681565b6102e27f000000000000000000000000000000000000000000000000000000000000000081565b610622612384565b61062a6123aa565b6000838152600760205260409020546001600160a01b03166106895760405162461bcd60e51b8152602060048201526013602482015272155cd95c881b9bdd081c9959da5cdd195c9959606a1b60448201526064015b60405180910390fd5b6000838152600760209081526040808320546001600160a01b03168352600290915290205481146106ec5760405162461bcd60e51b815260206004820152600d60248201526c496e76616c6964206e6f6e636560981b6044820152606401610680565b6000838152600a6020526040902054600160ff90911610801561071c57506000838152600b602052604090205482115b1561075c576000838152600760205260409020546001600160a01b031633146107575760405162461bcd60e51b815260040161068090612a6b565b6107cb565b3360009081527ffaf93c3d007e112089dc8351e013e6685ef67703975d0224b26fc45941d4f1f5602052604090205460ff16806107af57506000838152600760205260409020546001600160a01b031633145b6107cb5760405162461bcd60e51b815260040161068090612aae565b600083815260076020818152604080842080546001600160a01b0390811686526002845291852080546001019055938790529190529054610832917f00000000000000000000000000000000000000000000000000000000000000008116911630856123d4565b60008381526009602052604081205460049060ff166003811061085757610857612b0b565b0154604051636e553f6560e01b8152600481018590523060248201526001600160a01b0390911690636e553f65906044016020604051808303816000875af11580156108a7573d6000803e3d6000fd5b505050506040513d601f19601f820116820180604052508101906108cb9190612b21565b9050806008600086815260200190815260200160002060008282546108f09190612b50565b909155505060408051858152602081018590527fa3af609bf46297028ce551832669030f9effef2b02606d02cbbcc40fe6b47c5591015b60405180910390a15061093960018055565b505050565b60006001600160e01b03198216637965db0b60e01b148061096f57506301ffc9a760e01b6001600160e01b03198316145b92915050565b6004816003811061098557600080fd5b01546001600160a01b0316905081565b6000828152602081905260409020600101546109b081612443565b6109ba838361244d565b50505050565b6109c8612384565b6109d06123aa565b6000848152600760205260409020546001600160a01b0316610a2a5760405162461bcd60e51b8152602060048201526013602482015272155cd95c881b9bdd081c9959da5cdd195c9959606a1b6044820152606401610680565b6000848152600760209081526040808320546001600160a01b0316835260029091529020548114610a8d5760405162461bcd60e51b815260206004820152600d60248201526c496e76616c6964206e6f6e636560981b6044820152606401610680565b6000848152600a6020526040902054600260ff909116108015610abd57506000848152600b602052604090205482115b15610afd576000848152600760205260409020546001600160a01b03163314610af85760405162461bcd60e51b815260040161068090612a6b565b610b6c565b3360009081527ffaf93c3d007e112089dc8351e013e6685ef67703975d0224b26fc45941d4f1f5602052604090205460ff1680610b5057506000848152600760205260409020546001600160a01b031633145b610b6c5760405162461bcd60e51b815260040161068090612aae565b600080610b7986856124f7565b6000888152600760209081526040808320546001600160a01b0316835260028252808320805460010190558a835260099091528120549294509092509060049060ff1660038110610bcc57610bcc612b0b565b0154604051632d182be560e21b8152600481018590526001600160a01b0388811660248301523060448301529091169063b460af94906064016020604051808303816000875af1158015610c24573d6000803e3d6000fd5b505050506040513d601f19601f82011682018060405250810190610c489190612b21565b905080600860008981526020019081526020016000206000828254610c6d9190612b63565b90915550508115610cbf57600087815260076020526040902054610cbf906001600160a01b037f00000000000000000000000000000000000000000000000000000000000000008116911688856123d4565b604080518881526001600160a01b03881660208201529081018690527f2e90d1cd7a5e9a5b99747c36130d866c8687bff313d44cdd245df73bcda436219060600160405180910390a15050506109ba60018055565b6001600160a01b0381163314610d3d5760405163334bd91960e11b815260040160405180910390fd5b61093982826126ee565b6000818152600760205260408120546001600160a01b0316610da15760405162461bcd60e51b8152602060048201526013602482015272155cd95c881b9bdd081c9959da5cdd195c9959606a1b6044820152606401610680565b6000828152600760209081526040808320546001600160a01b03168352600290915290205461096f565b6000610dd681612443565b610dde612771565b50565b6000818152600760205260408120546001600160a01b0316610e3b5760405162461bcd60e51b8152602060048201526013602482015272155cd95c881b9bdd081c9959da5cdd195c9959606a1b6044820152606401610680565b5060009081526008602052604090205490565b60008181526009602052604081205460049060ff1660038110610e7357610e73612b0b565b0154600083815260086020526040908190205490516303d1689d60e11b81526001600160a01b03909216916307a2d13a91610eb49160040190815260200190565b602060405180830381865afa158015610ed1573d6000803e3d6000fd5b505050506040513d601f19601f8201168201806040525081019061096f9190612b21565b610efd6123aa565b6000838152600760205260409020546001600160a01b0316610f575760405162461bcd60e51b8152602060048201526013602482015272155cd95c881b9bdd081c9959da5cdd195c9959606a1b6044820152606401610680565b6000838152600760209081526040808320546001600160a01b0316835260029091529020548114610fba5760405162461bcd60e51b815260206004820152600d60248201526c496e76616c6964206e6f6e636560981b6044820152606401610680565b6000838152600760205260409020546001600160a01b03163314610ff05760405162461bcd60e51b815260040161068090612a6b565b6000838152600760209081526040808320546001600160a01b031683526002825280832080546001019055858352600b82529182902084905581518581529081018490527f17dfd998cc8150f650ed778095146ae20902ec1c807f7efbdcc166246be80b8e91015b60405180910390a161093960018055565b611071612384565b6110796123aa565b6000848152600760205260409020546001600160a01b03166110d35760405162461bcd60e51b8152602060048201526013602482015272155cd95c881b9bdd081c9959da5cdd195c9959606a1b6044820152606401610680565b6000848152600760209081526040808320546001600160a01b03168352600290915290205481146111365760405162461bcd60e51b815260206004820152600d60248201526c496e76616c6964206e6f6e636560981b6044820152606401610680565b6000848152600a6020526040902054600260ff90911610801561116657506000848152600b602052604090205482115b156111a6576000848152600760205260409020546001600160a01b031633146111a15760405162461bcd60e51b815260040161068090612a6b565b611215565b3360009081527ffaf93c3d007e112089dc8351e013e6685ef67703975d0224b26fc45941d4f1f5602052604090205460ff16806111f957506000848152600760205260409020546001600160a01b031633145b6112155760405162461bcd60e51b815260040161068090612aae565b600084815260096020526040808220548583529082205460ff918216929116908061124088876124f7565b60008a8152600760209081526040808320546001600160a01b031683526002909152902080546001019055909250905060ff8084169085160361135557600060048560ff166003811061129557611295612b0b565b01546040516363737ac960e11b8152600481018590526001600160a01b039091169063c6e6f59290602401602060405180830381865afa1580156112dd573d6000803e3d6000fd5b505050506040513d601f19601f820116820180604052508101906113019190612b21565b905080600860008b815260200190815260200160002060008282546113269190612b63565b909155505060008881526008602052604081208054839290611349908490612b50565b909155506114c6915050565b600060048560ff166003811061136d5761136d612b0b565b0154604051632d182be560e21b815260048101859052306024820181905260448201526001600160a01b039091169063b460af94906064016020604051808303816000875af11580156113c4573d6000803e3d6000fd5b505050506040513d601f19601f820116820180604052508101906113e89190612b21565b9050600060048560ff166003811061140257611402612b0b565b0154604051636e553f6560e01b8152600481018690523060248201526001600160a01b0390911690636e553f65906044016020604051808303816000875af1158015611452573d6000803e3d6000fd5b505050506040513d601f19601f820116820180604052508101906114769190612b21565b905081600860008c8152602001908152602001600020600082825461149b9190612b63565b9091555050600089815260086020526040812080548392906114be908490612b50565b909155505050505b80156115d857600088815260076020526040902054611513906001600160a01b037f00000000000000000000000000000000000000000000000000000000000000008116911630846123d4565b60008781526009602052604081205460049060ff166003811061153857611538612b0b565b0154604051636e553f6560e01b8152600481018490523060248201526001600160a01b0390911690636e553f65906044016020604051808303816000875af1158015611588573d6000803e3d6000fd5b505050506040513d601f19601f820116820180604052508101906115ac9190612b21565b905080600860008a815260200190815260200160002060008282546115d19190612b50565b9091555050505b60408051898152602081018990529081018790527ff6b9becd23b4420f8fd6f8cde42307ca0cab31c11ad2fcb4f5a966d85dc63b2b9060600160405180910390a1505050506109ba60018055565b6000818152600760205260408120546001600160a01b03166116805760405162461bcd60e51b8152602060048201526013602482015272155cd95c881b9bdd081c9959da5cdd195c9959606a1b6044820152606401610680565b506000908152600b602052604090205490565b600061169e81612443565b610dde6127c3565b6116ae6123aa565b6000838152600760205260409020546001600160a01b03166117085760405162461bcd60e51b8152602060048201526013602482015272155cd95c881b9bdd081c9959da5cdd195c9959606a1b6044820152606401610680565b600360ff83161061175b5760405162461bcd60e51b815260206004820152601460248201527f496e76616c6964207269736b2070726f66696c650000000000000000000000006044820152606401610680565b6000838152600760209081526040808320546001600160a01b03168352600290915290205481146117be5760405162461bcd60e51b815260206004820152600d60248201526c496e76616c6964206e6f6e636560981b6044820152606401610680565b6000838152600a6020526040902054600260ff9091161015611815576000838152600760205260409020546001600160a01b031633146118105760405162461bcd60e51b815260040161068090612a6b565b611884565b3360009081527ffaf93c3d007e112089dc8351e013e6685ef67703975d0224b26fc45941d4f1f5602052604090205460ff168061186857506000838152600760205260409020546001600160a01b031633145b6118845760405162461bcd60e51b815260040161068090612aae565b6000838152600760209081526040808320546001600160a01b031683526002825280832080546001019055858352600890915290205415611a105760008381526009602052604081205460049060ff16600381106118e4576118e4612b0b565b015460008581526008602052604090819020549051632d182be560e21b81526004810191909152306024820181905260448201526001600160a01b039091169063b460af94906064016020604051808303816000875af115801561194c573d6000803e3d6000fd5b505050506040513d601f19601f820116820180604052508101906119709190612b21565b9050600060048460ff166003811061198a5761198a612b0b565b0154604051636e553f6560e01b8152600481018490523060248201526001600160a01b0390911690636e553f65906044016020604051808303816000875af11580156119da573d6000803e3d6000fd5b505050506040513d601f19601f820116820180604052508101906119fe9190612b21565b60008681526008602052604090205550505b600083815260096020908152604091829020805460ff191660ff86169081179091558251868152918201527f4a1aad2522dd09c435754834bba69e2394af841f429078ea985a80091519b7649101611058565b611a6b612384565b611a736123aa565b6000838152600760205260409020546001600160a01b0316611acd5760405162461bcd60e51b8152602060048201526013602482015272155cd95c881b9bdd081c9959da5cdd195c9959606a1b6044820152606401610680565b6000838152600760209081526040808320546001600160a01b0316835260029091529020548114611b305760405162461bcd60e51b815260206004820152600d60248201526c496e76616c6964206e6f6e636560981b6044820152606401610680565b6000838152600a6020526040902054600160ff909116108015611b6057506000838152600b602052604090205482115b15611ba0576000838152600760205260409020546001600160a01b03163314611b9b5760405162461bcd60e51b815260040161068090612a6b565b611c0f565b3360009081527ffaf93c3d007e112089dc8351e013e6685ef67703975d0224b26fc45941d4f1f5602052604090205460ff1680611bf357506000838152600760205260409020546001600160a01b031633145b611c0f5760405162461bcd60e51b815260040161068090612aae565b6000838152600760209081526040808320546001600160a01b031683526002825280832080546001019055858352600990915290205460049060ff1660038110611c5b57611c5b612b0b565b01546040516363737ac960e11b8152600481018490526001600160a01b039091169063c6e6f59290602401602060405180830381865afa158015611ca3573d6000803e3d6000fd5b505050506040513d601f19601f82011682018060405250810190611cc79190612b21565b6000848152600860205260409020541015611d245760405162461bcd60e51b815260206004820152601160248201527f4e6f7420656e6f756768207368617265730000000000000000000000000000006044820152606401610680565b60008381526009602052604081205460049060ff1660038110611d4957611d49612b0b565b015460008581526007602052604090819020549051632d182be560e21b8152600481018690526001600160a01b03918216602482015230604482015291169063b460af94906064016020604051808303816000875af1158015611db0573d6000803e3d6000fd5b505050506040513d601f19601f82011682018060405250810190611dd49190612b21565b905080600860008681526020019081526020016000206000828254611df99190612b63565b909155505060408051858152602081018590527f56ca301a9219608c91e7bcee90e083c19671d2cdcc96752c7af291cee5f9c8c89101610927565b6000611e3f81612443565b611e476123aa565b611e52600083610995565b6040516001600160a01b03831681527fa2ea9883a321a3e97b8266c2b078bfeec6d50c711ed71f874a90d500ae2eaf36906020015b60405180910390a1611e9860018055565b5050565b6000818152600760205260408120546001600160a01b0316611ef65760405162461bcd60e51b8152602060048201526013602482015272155cd95c881b9bdd081c9959da5cdd195c9959606a1b6044820152606401610680565b5060009081526009602052604090205460ff1690565b611f146123aa565b6000838152600760205260409020546001600160a01b0316611f6e5760405162461bcd60e51b8152602060048201526013602482015272155cd95c881b9bdd081c9959da5cdd195c9959606a1b6044820152606401610680565b600360ff831610611fc15760405162461bcd60e51b815260206004820152601460248201527f496e76616c696420617574682070726f66696c650000000000000000000000006044820152606401610680565b6000838152600760209081526040808320546001600160a01b03168352600290915290205481146120245760405162461bcd60e51b815260206004820152600d60248201526c496e76616c6964206e6f6e636560981b6044820152606401610680565b6000838152600a6020526040902054600260ff909116101561207b576000838152600760205260409020546001600160a01b031633146120765760405162461bcd60e51b815260040161068090612a6b565b6120ea565b3360009081527ffaf93c3d007e112089dc8351e013e6685ef67703975d0224b26fc45941d4f1f5602052604090205460ff16806120ce57506000838152600760205260409020546001600160a01b031633145b6120ea5760405162461bcd60e51b815260040161068090612aae565b6000838152600760209081526040808320546001600160a01b031683526002825280832080546001019055858352600a825291829020805460ff191660ff86169081179091558251868152918201527fa535332199fc6ba20738ea9ab2b789d80cd575920c1e5a0210a17185423c49d89101611058565b60008281526020819052604090206001015461217c81612443565b6109ba83836126ee565b600061219181612443565b6121996123aa565b6121c37fe2b7fb3b832174769106daebcfd6d1970523240dda11281102db9363b83b0dc483610995565b6040516001600160a01b03831681527f03580ee9f53a62b7cb409a2cb56f9be87747dd15017afc5cef6eef321e4fb2c590602001611e87565b7fe2b7fb3b832174769106daebcfd6d1970523240dda11281102db9363b83b0dc461222681612443565b61222e6123aa565b6000838152600760205260409020546001600160a01b0316156122935760405162461bcd60e51b815260206004820152601760248201527f5573657220616c726561647920726567697374657265640000000000000000006044820152606401610680565b6000838152600760209081526040808320805473ffffffffffffffffffffffffffffffffffffffff19166001600160a01b038716908117909155600a835292819020805460ff191660011790558051868152918201929092527fb442efe467d2ef30e62927a3cae0afcbc799a8a0944d8a143332e4e5e51cee5d9101611058565b6000818152600760205260408120546001600160a01b031661236e5760405162461bcd60e51b8152602060048201526013602482015272155cd95c881b9bdd081c9959da5cdd195c9959606a1b6044820152606401610680565b506000908152600a602052604090205460ff1690565b60035460ff16156123a85760405163d93c066560e01b815260040160405180910390fd5b565b6002600154036123cd57604051633ee5aeb560e01b815260040160405180910390fd5b6002600155565b604080516001600160a01b0385811660248301528416604482015260648082018490528251808303909101815260849091019091526020810180517bffffffffffffffffffffffffffffffffffffffffffffffffffffffff166323b872dd60e01b1790526109ba908590612800565b610dde8133612871565b6000828152602081815260408083206001600160a01b038516845290915281205460ff166124ef576000838152602081815260408083206001600160a01b03861684529091529020805460ff191660011790556124a73390565b6001600160a01b0316826001600160a01b0316847f2f8788117e7eff1d82e926ec794901d17c78024a50270940304540a733656f0d60405160405180910390a450600161096f565b50600061096f565b6000828152600960205260408120548190819060049060ff166003811061252057612520612b0b565b0154600086815260086020526040908190205490516303d1689d60e11b81526001600160a01b03909216916307a2d13a916125619160040190815260200190565b602060405180830381865afa15801561257e573d6000803e3d6000fd5b505050506040513d601f19601f820116820180604052508101906125a29190612b21565b9050808410156125b95783600092509250506126e7565b6000858152600760205260408082205490516370a0823160e01b81526001600160a01b0391821660048201527f0000000000000000000000000000000000000000000000000000000000000000909116906370a0823190602401602060405180830381865afa158015612630573d6000803e3d6000fd5b505050506040513d601f19601f820116820180604052508101906126549190612b21565b9050846126618383612b50565b10156126d55760405162461bcd60e51b815260206004820152603160248201527f4e6f7420656e6f7567682061737365747320696e207661756c7420616e64207760448201527f616c6c657420746f207472616e736665720000000000000000000000000000006064820152608401610680565b816126e08187612b63565b9350935050505b9250929050565b6000828152602081815260408083206001600160a01b038516845290915281205460ff16156124ef576000838152602081815260408083206001600160a01b0386168085529252808320805460ff1916905551339286917ff6391f5c32d9c69d2a47ea670b442974b53935d1edc7fd64eb21e047a839171b9190a450600161096f565b6127796128c4565b6003805460ff191690557f5db9ee0a495bf2e6ff9c91a7834c1ba4fdd244a5e8aa4e537bd38aeae4b073aa335b6040516001600160a01b03909116815260200160405180910390a1565b6127cb612384565b6003805460ff191660011790557f62e78cea01bee320cd4e420270b5ea74000d11b0c9f74754ebdbfc544b05a2586127a63390565b600080602060008451602086016000885af180612823576040513d6000823e3d81fd5b50506000513d9150811561283b578060011415612848565b6001600160a01b0384163b155b156109ba57604051635274afe760e01b81526001600160a01b0385166004820152602401610680565b6000828152602081815260408083206001600160a01b038516845290915290205460ff16611e985760405163e2517d3f60e01b81526001600160a01b038216600482015260248101839052604401610680565b60035460ff166123a857604051638dfc202b60e01b815260040160405180910390fd5b6000806000606084860312156128fc57600080fd5b505081359360208301359350604090920135919050565b60006020828403121561292557600080fd5b81356001600160e01b03198116811461293d57600080fd5b9392505050565b60006020828403121561295657600080fd5b5035919050565b80356001600160a01b038116811461297457600080fd5b919050565b6000806040838503121561298c57600080fd5b8235915061299c6020840161295d565b90509250929050565b600080600080608085870312156129bb57600080fd5b843593506129cb6020860161295d565b93969395505050506040820135916060013590565b600080600080608085870312156129f657600080fd5b5050823594602084013594506040840135936060013592509050565b600060208284031215612a2457600080fd5b61293d8261295d565b600080600060608486031215612a4257600080fd5b83359250602084013560ff81168114612a5a57600080fd5b929592945050506040919091013590565b60208082526023908201527f5468652075736572206d75737420617574686f72697a6520746869732061637460408201526234b7b760e91b606082015260800190565b6020808252603e908201527f4f6e6c7920617574686f72697a65642072656c6179657273206f72207468652060408201527f757365722063616e20617574686f72697a65207468697320616374696f6e0000606082015260800190565b634e487b7160e01b600052603260045260246000fd5b600060208284031215612b3357600080fd5b5051919050565b634e487b7160e01b600052601160045260246000fd5b8082018082111561096f5761096f612b3a565b8181038181111561096f5761096f612b3a56fea26469706673582212201ad7b3b75d6d8e7f12219da115f1dca68d76cc806c796f80defb7287f37b364164736f6c634300081c0033",
  "linkReferences": {},
  "deployedLinkReferences": {}
}