{
  "_format": "hh-sol-artifact-1",
  "contractName": "TokenVaultWithRelayer",
  "sourceName": "contracts/Vault.sol",
  "abi": [
    {
      "inputs": [
        {
          "internalType": "address",
          "name": "initialOwner",
          "type": "address"
        },
        {
          "internalType": "address",
          "name": "_token",
          "type": "address"
        },
        {
          "internalType": "contract IERC4626[3]",
          "name": "_externalVaults",
          "type": "address[3]"
        }
      ],
      "stateMutability": "payable",
      "type": "constructor"
    },
    {
      "inputs": [],
      "name": "AccessControlBadConfirmation",
      "type": "error"
    },
    {
      "inputs": [
        {
          "internalType": "address",
          "name": "account",
          "type": "address"
        },
        {
          "internalType": "bytes32",
          "name": "neededRole",
          "type": "bytes32"
        }
      ],
      "name": "AccessControlUnauthorizedAccount",
      "type": "error"
    },
    {
      "inputs": [],
      "name": "EnforcedPause",
      "type": "error"
    },
    {
      "inputs": [],
      "name": "ExpectedPause",
      "type": "error"
    },
    {
      "inputs": [
        {
          "internalType": "address",
          "name": "account",
          "type": "address"
        },
        {
          "internalType": "uint256",
          "name": "currentNonce",
          "type": "uint256"
        }
      ],
      "name": "InvalidAccountNonce",
      "type": "error"
    },
    {
      "inputs": [],
      "name": "ReentrancyGuardReentrantCall",
      "type": "error"
    },
    {
      "inputs": [
        {
          "internalType": "address",
          "name": "token",
          "type": "address"
        }
      ],
      "name": "SafeERC20FailedOperation",
      "type": "error"
    },
    {
      "anonymous": false,
      "inputs": [
        {
          "indexed": false,
          "internalType": "uint256",
          "name": "user",
          "type": "uint256"
        },
        {
          "indexed": false,
          "internalType": "uint8",
          "name": "profile",
          "type": "uint8"
        }
      ],
      "name": "AuthProfileSet",
      "type": "event"
    },
    {
      "anonymous": false,
      "inputs": [
        {
          "indexed": false,
          "internalType": "uint256",
          "name": "user",
          "type": "uint256"
        },
        {
          "indexed": false,
          "internalType": "uint256",
          "name": "threshold",
          "type": "uint256"
        }
      ],
      "name": "AuthThresholdSet",
      "type": "event"
    },
    {
      "anonymous": false,
      "inputs": [
        {
          "indexed": false,
          "internalType": "uint256",
          "name": "user",
          "type": "uint256"
        },
        {
          "indexed": false,
          "internalType": "uint256",
          "name": "assets",
          "type": "uint256"
        }
      ],
      "name": "Deposit",
      "type": "event"
    },
    {
      "anonymous": false,
      "inputs": [
        {
          "indexed": false,
          "internalType": "address",
          "name": "newOwner",
          "type": "address"
        }
      ],
      "name": "OwnerChanged",
      "type": "event"
    },
    {
      "anonymous": false,
      "inputs": [
        {
          "indexed": false,
          "internalType": "address",
          "name": "account",
          "type": "address"
        }
      ],
      "name": "Paused",
      "type": "event"
    },
    {
      "anonymous": false,
      "inputs": [
        {
          "indexed": false,
          "internalType": "address",
          "name": "account",
          "type": "address"
        }
      ],
      "name": "RelayerAdded",
      "type": "event"
    },
    {
      "anonymous": false,
      "inputs": [
        {
          "indexed": false,
          "internalType": "uint256",
          "name": "user",
          "type": "uint256"
        },
        {
          "indexed": false,
          "internalType": "uint8",
          "name": "profile",
          "type": "uint8"
        }
      ],
      "name": "RiskProfileSet",
      "type": "event"
    },
    {
      "anonymous": false,
      "inputs": [
        {
          "indexed": true,
          "internalType": "bytes32",
          "name": "role",
          "type": "bytes32"
        },
        {
          "indexed": true,
          "internalType": "bytes32",
          "name": "previousAdminRole",
          "type": "bytes32"
        },
        {
          "indexed": true,
          "internalType": "bytes32",
          "name": "newAdminRole",
          "type": "bytes32"
        }
      ],
      "name": "RoleAdminChanged",
      "type": "event"
    },
    {
      "anonymous": false,
      "inputs": [
        {
          "indexed": true,
          "internalType": "bytes32",
          "name": "role",
          "type": "bytes32"
        },
        {
          "indexed": true,
          "internalType": "address",
          "name": "account",
          "type": "address"
        },
        {
          "indexed": true,
          "internalType": "address",
          "name": "sender",
          "type": "address"
        }
      ],
      "name": "RoleGranted",
      "type": "event"
    },
    {
      "anonymous": false,
      "inputs": [
        {
          "indexed": true,
          "internalType": "bytes32",
          "name": "role",
          "type": "bytes32"
        },
        {
          "indexed": true,
          "internalType": "address",
          "name": "account",
          "type": "address"
        },
        {
          "indexed": true,
          "internalType": "address",
          "name": "sender",
          "type": "address"
        }
      ],
      "name": "RoleRevoked",
      "type": "event"
    },
    {
      "anonymous": false,
      "inputs": [
        {
          "indexed": false,
          "internalType": "uint256",
          "name": "userFrom",
          "type": "uint256"
        },
        {
          "indexed": false,
          "internalType": "address",
          "name": "userTo",
          "type": "address"
        },
        {
          "indexed": false,
          "internalType": "uint256",
          "name": "assets",
          "type": "uint256"
        }
      ],
      "name": "Transfer",
      "type": "event"
    },
    {
      "anonymous": false,
      "inputs": [
        {
          "indexed": false,
          "internalType": "uint256",
          "name": "userFrom",
          "type": "uint256"
        },
        {
          "indexed": false,
          "internalType": "uint256",
          "name": "userTo",
          "type": "uint256"
        },
        {
          "indexed": false,
          "internalType": "uint256",
          "name": "assets",
          "type": "uint256"
        }
      ],
      "name": "TransferWithinVault",
      "type": "event"
    },
    {
      "anonymous": false,
      "inputs": [
        {
          "indexed": false,
          "internalType": "address",
          "name": "account",
          "type": "address"
        }
      ],
      "name": "Unpaused",
      "type": "event"
    },
    {
      "anonymous": false,
      "inputs": [
        {
          "indexed": false,
          "internalType": "uint256",
          "name": "user",
          "type": "uint256"
        },
        {
          "indexed": false,
          "internalType": "address",
          "name": "wallet",
          "type": "address"
        }
      ],
      "name": "UserRegistered",
      "type": "event"
    },
    {
      "anonymous": false,
      "inputs": [
        {
          "indexed": false,
          "internalType": "uint256",
          "name": "user",
          "type": "uint256"
        },
        {
          "indexed": false,
          "internalType": "uint256",
          "name": "assets",
          "type": "uint256"
        }
      ],
      "name": "Withdraw",
      "type": "event"
    },
    {
      "inputs": [],
      "name": "DEFAULT_ADMIN_ROLE",
      "outputs": [
        {
          "internalType": "bytes32",
          "name": "",
          "type": "bytes32"
        }
      ],
      "stateMutability": "view",
      "type": "function"
    },
    {
      "inputs": [],
      "name": "NumberOfAuthProfiles",
      "outputs": [
        {
          "internalType": "uint8",
          "name": "",
          "type": "uint8"
        }
      ],
      "stateMutability": "view",
      "type": "function"
    },
    {
      "inputs": [],
      "name": "NumberOfRiskProfiles",
      "outputs": [
        {
          "internalType": "uint8",
          "name": "",
          "type": "uint8"
        }
      ],
      "stateMutability": "view",
      "type": "function"
    },
    {
      "inputs": [],
      "name": "RELAYER_ROLE",
      "outputs": [
        {
          "internalType": "bytes32",
          "name": "",
          "type": "bytes32"
        }
      ],
      "stateMutability": "view",
      "type": "function"
    },
    {
      "inputs": [
        {
          "internalType": "uint256",
          "name": "_user",
          "type": "uint256"
        },
        {
          "internalType": "address",
          "name": "_wallet",
          "type": "address"
        }
      ],
      "name": "RegisterUser",
      "outputs": [],
      "stateMutability": "nonpayable",
      "type": "function"
    },
    {
      "inputs": [
        {
          "internalType": "address",
          "name": "account",
          "type": "address"
        }
      ],
      "name": "addRelayer",
      "outputs": [],
      "stateMutability": "nonpayable",
      "type": "function"
    },
    {
      "inputs": [
        {
          "internalType": "uint256",
          "name": "_user",
          "type": "uint256"
        },
        {
          "internalType": "uint8",
          "name": "_authProfile",
          "type": "uint8"
        },
        {
          "internalType": "uint256",
          "name": "nonce",
          "type": "uint256"
        }
      ],
      "name": "changeAuthProfile",
      "outputs": [],
      "stateMutability": "nonpayable",
      "type": "function"
    },
    {
      "inputs": [
        {
          "internalType": "uint256",
          "name": "_user",
          "type": "uint256"
        },
        {
          "internalType": "uint256",
          "name": "_authThreshold",
          "type": "uint256"
        },
        {
          "internalType": "uint256",
          "name": "nonce",
          "type": "uint256"
        }
      ],
      "name": "changeAuthThreshold",
      "outputs": [],
      "stateMutability": "nonpayable",
      "type": "function"
    },
    {
      "inputs": [
        {
          "internalType": "address",
          "name": "newOwner",
          "type": "address"
        }
      ],
      "name": "changeOwner",
      "outputs": [],
      "stateMutability": "nonpayable",
      "type": "function"
    },
    {
      "inputs": [
        {
          "internalType": "uint256",
          "name": "_user",
          "type": "uint256"
        },
        {
          "internalType": "uint8",
          "name": "_riskProfile",
          "type": "uint8"
        },
        {
          "internalType": "uint256",
          "name": "nonce",
          "type": "uint256"
        }
      ],
      "name": "changeRiskProfile",
      "outputs": [],
      "stateMutability": "nonpayable",
      "type": "function"
    },
    {
      "inputs": [
        {
          "internalType": "uint256",
          "name": "_user",
          "type": "uint256"
        },
        {
          "internalType": "uint256",
          "name": "_assets",
          "type": "uint256"
        },
        {
          "internalType": "uint256",
          "name": "_nonce",
          "type": "uint256"
        }
      ],
      "name": "deposit",
      "outputs": [],
      "stateMutability": "nonpayable",
      "type": "function"
    },
    {
      "inputs": [
        {
          "internalType": "uint256",
          "name": "",
          "type": "uint256"
        }
      ],
      "name": "externalVaults",
      "outputs": [
        {
          "internalType": "contract IERC4626",
          "name": "",
          "type": "address"
        }
      ],
      "stateMutability": "view",
      "type": "function"
    },
    {
      "inputs": [
        {
          "internalType": "uint256",
          "name": "user",
          "type": "uint256"
        }
      ],
      "name": "getNonce",
      "outputs": [
        {
          "internalType": "uint256",
          "name": "",
          "type": "uint256"
        }
      ],
      "stateMutability": "view",
      "type": "function"
    },
    {
      "inputs": [
        {
          "internalType": "bytes32",
          "name": "role",
          "type": "bytes32"
        }
      ],
      "name": "getRoleAdmin",
      "outputs": [
        {
          "internalType": "bytes32",
          "name": "",
          "type": "bytes32"
        }
      ],
      "stateMutability": "view",
      "type": "function"
    },
    {
      "inputs": [
        {
          "internalType": "uint256",
          "name": "user",
          "type": "uint256"
        }
      ],
      "name": "getUserAssets",
      "outputs": [
        {
          "internalType": "uint256",
          "name": "",
          "type": "uint256"
        }
      ],
      "stateMutability": "view",
      "type": "function"
    },
    {
      "inputs": [
        {
          "internalType": "uint256",
          "name": "user",
          "type": "uint256"
        }
      ],
      "name": "getUserAuthProfile",
      "outputs": [
        {
          "internalType": "uint8",
          "name": "",
          "type": "uint8"
        }
      ],
      "stateMutability": "view",
      "type": "function"
    },
    {
      "inputs": [
        {
          "internalType": "uint256",
          "name": "user",
          "type": "uint256"
        }
      ],
      "name": "getUserAuthThreshold",
      "outputs": [
        {
          "internalType": "uint256",
          "name": "",
          "type": "uint256"
        }
      ],
      "stateMutability": "view",
      "type": "function"
    },
    {
      "inputs": [
        {
          "internalType": "uint256",
          "name": "user",
          "type": "uint256"
        }
      ],
      "name": "getUserRiskProfile",
      "outputs": [
        {
          "internalType": "uint8",
          "name": "",
          "type": "uint8"
        }
      ],
      "stateMutability": "view",
      "type": "function"
    },
    {
      "inputs": [
        {
          "internalType": "uint256",
          "name": "user",
          "type": "uint256"
        }
      ],
      "name": "getUserShares",
      "outputs": [
        {
          "internalType": "uint256",
          "name": "",
          "type": "uint256"
        }
      ],
      "stateMutability": "view",
      "type": "function"
    },
    {
      "inputs": [
        {
          "internalType": "uint256",
          "name": "user",
          "type": "uint256"
        }
      ],
      "name": "getUserWallet",
      "outputs": [
        {
          "internalType": "address",
          "name": "",
          "type": "address"
        }
      ],
      "stateMutability": "view",
      "type": "function"
    },
    {
      "inputs": [
        {
          "internalType": "bytes32",
          "name": "role",
          "type": "bytes32"
        },
        {
          "internalType": "address",
          "name": "account",
          "type": "address"
        }
      ],
      "name": "grantRole",
      "outputs": [],
      "stateMutability": "nonpayable",
      "type": "function"
    },
    {
      "inputs": [
        {
          "internalType": "bytes32",
          "name": "role",
          "type": "bytes32"
        },
        {
          "internalType": "address",
          "name": "account",
          "type": "address"
        }
      ],
      "name": "hasRole",
      "outputs": [
        {
          "internalType": "bool",
          "name": "",
          "type": "bool"
        }
      ],
      "stateMutability": "view",
      "type": "function"
    },
    {
      "inputs": [
        {
          "internalType": "address",
          "name": "owner",
          "type": "address"
        }
      ],
      "name": "nonces",
      "outputs": [
        {
          "internalType": "uint256",
          "name": "",
          "type": "uint256"
        }
      ],
      "stateMutability": "view",
      "type": "function"
    },
    {
      "inputs": [],
      "name": "pause",
      "outputs": [],
      "stateMutability": "nonpayable",
      "type": "function"
    },
    {
      "inputs": [],
      "name": "paused",
      "outputs": [
        {
          "internalType": "bool",
          "name": "",
          "type": "bool"
        }
      ],
      "stateMutability": "view",
      "type": "function"
    },
    {
      "inputs": [
        {
          "internalType": "bytes32",
          "name": "role",
          "type": "bytes32"
        },
        {
          "internalType": "address",
          "name": "callerConfirmation",
          "type": "address"
        }
      ],
      "name": "renounceRole",
      "outputs": [],
      "stateMutability": "nonpayable",
      "type": "function"
    },
    {
      "inputs": [
        {
          "internalType": "bytes32",
          "name": "role",
          "type": "bytes32"
        },
        {
          "internalType": "address",
          "name": "account",
          "type": "address"
        }
      ],
      "name": "revokeRole",
      "outputs": [],
      "stateMutability": "nonpayable",
      "type": "function"
    },
    {
      "inputs": [
        {
          "internalType": "bytes4",
          "name": "interfaceId",
          "type": "bytes4"
        }
      ],
      "name": "supportsInterface",
      "outputs": [
        {
          "internalType": "bool",
          "name": "",
          "type": "bool"
        }
      ],
      "stateMutability": "view",
      "type": "function"
    },
    {
      "inputs": [],
      "name": "token",
      "outputs": [
        {
          "internalType": "contract IERC20",
          "name": "",
          "type": "address"
        }
      ],
      "stateMutability": "view",
      "type": "function"
    },
    {
      "inputs": [],
      "name": "tokenPermit",
      "outputs": [
        {
          "internalType": "contract IERC20Permit",
          "name": "",
          "type": "address"
        }
      ],
      "stateMutability": "view",
      "type": "function"
    },
    {
      "inputs": [
        {
          "internalType": "uint256",
          "name": "_userFrom",
          "type": "uint256"
        },
        {
          "internalType": "address",
          "name": "_userTo",
          "type": "address"
        },
        {
          "internalType": "uint256",
          "name": "_assets",
          "type": "uint256"
        },
        {
          "internalType": "uint256",
          "name": "_nonce",
          "type": "uint256"
        }
      ],
      "name": "transfer",
      "outputs": [],
      "stateMutability": "nonpayable",
      "type": "function"
    },
    {
      "inputs": [
        {
          "internalType": "uint256",
          "name": "_userFrom",
          "type": "uint256"
        },
        {
          "internalType": "uint256",
          "name": "_userTo",
          "type": "uint256"
        },
        {
          "internalType": "uint256",
          "name": "_assets",
          "type": "uint256"
        },
        {
          "internalType": "uint256",
          "name": "_nonce",
          "type": "uint256"
        }
      ],
      "name": "transferWithinVault",
      "outputs": [],
      "stateMutability": "nonpayable",
      "type": "function"
    },
    {
      "inputs": [],
      "name": "unpause",
      "outputs": [],
      "stateMutability": "nonpayable",
      "type": "function"
    },
    {
      "inputs": [
        {
          "internalType": "uint256",
          "name": "",
          "type": "uint256"
        }
      ],
      "name": "userAddresses",
      "outputs": [
        {
          "internalType": "address",
          "name": "",
          "type": "address"
        }
      ],
      "stateMutability": "view",
      "type": "function"
    },
    {
      "inputs": [
        {
          "internalType": "uint256",
          "name": "",
          "type": "uint256"
        }
      ],
      "name": "userAuthProfile",
      "outputs": [
        {
          "internalType": "uint8",
          "name": "",
          "type": "uint8"
        }
      ],
      "stateMutability": "view",
      "type": "function"
    },
    {
      "inputs": [
        {
          "internalType": "uint256",
          "name": "",
          "type": "uint256"
        }
      ],
      "name": "userAuthThreshold",
      "outputs": [
        {
          "internalType": "uint256",
          "name": "",
          "type": "uint256"
        }
      ],
      "stateMutability": "view",
      "type": "function"
    },
    {
      "inputs": [
        {
          "internalType": "uint256",
          "name": "",
          "type": "uint256"
        }
      ],
      "name": "userRiskProfile",
      "outputs": [
        {
          "internalType": "uint8",
          "name": "",
          "type": "uint8"
        }
      ],
      "stateMutability": "view",
      "type": "function"
    },
    {
      "inputs": [
        {
          "internalType": "uint256",
          "name": "",
          "type": "uint256"
        }
      ],
      "name": "userShares",
      "outputs": [
        {
          "internalType": "uint256",
          "name": "",
          "type": "uint256"
        }
      ],
      "stateMutability": "view",
      "type": "function"
    },
    {
      "inputs": [
        {
          "internalType": "uint256",
          "name": "_user",
          "type": "uint256"
        },
        {
          "internalType": "uint256",
          "name": "_assets",
          "type": "uint256"
        },
        {
          "internalType": "uint256",
          "name": "_nonce",
          "type": "uint256"
        }
      ],
      "name": "withdraw",
      "outputs": [],
      "stateMutability": "nonpayable",
      "type": "function"
    }
  ],
  "bytecode": "0x60c0604052604051612e74380380612e74833981016040819052610022916101dc565b60018055610031600084610085565b5061005c7fe2b7fb3b832174769106daebcfd6d1970523240dda11281102db9363b83b0dc484610085565b506001600160a01b038216608081905260a05261007c6004826003610131565b50505050610287565b6000828152602081815260408083206001600160a01b038516845290915281205460ff16610127576000838152602081815260408083206001600160a01b03861684529091529020805460ff191660011790556100df3390565b6001600160a01b0316826001600160a01b0316847f2f8788117e7eff1d82e926ec794901d17c78024a50270940304540a733656f0d60405160405180910390a450600161012b565b5060005b92915050565b8260038101928215610179579160200282015b8281111561017957825182546001600160a01b0319166001600160a01b03909116178255602090920191600190910190610144565b50610185929150610189565b5090565b5b80821115610185576000815560010161018a565b6001600160a01b03811681146101b357600080fd5b50565b634e487b7160e01b600052604160045260246000fd5b80516101d78161019e565b919050565b600080600060a084860312156101f157600080fd5b83516101fc8161019e565b602085015190935061020d8161019e565b9150605f8401851361021e57600080fd5b604051606081016001600160401b0381118282101715610240576102406101b6565b6040528060a086018781111561025557600080fd5b604087015b818110156102795761026b816101cc565b83526020928301920161025a565b505050809150509250925092565b60805160a051612bac6102c860003960006105750152600081816105f80152818161080801528181610dba0152818161160101526125e70152612bac6000f3fe608060405234801561001057600080fd5b506004361061023c5760003560e01c806382b8ea1c1161013b578063a9ee7825116100b8578063d547741f1161007c578063d547741f14610597578063dd39f00d146105aa578063eeaa9c98146105bd578063f0ea3852146105d0578063fc0c546a146105f357600080fd5b8063a9ee782514610507578063b5b5e57414610527578063b6cc68231461054a578063c058beb81461055d578063d068ce8a1461057057600080fd5b8063932bf801116100ff578063932bf801146104b0578063a217fddf146104d9578063a41fe49f146104e1578063a5ffae171461038a578063a6f9dae1146104f457600080fd5b806382b8ea1c146104245780638456cb591461043757806386707a601461043f57806391d1485414610452578063926d7d7f1461048957600080fd5b80633d46b819116101c95780635ba506ef1161018d5780635ba506ef146103b75780635c975abb146103ca5780636c35b13a146103d557806376e4c18c146103e85780637ecebe00146103fb57600080fd5b80633d46b819146103465780633f4ba83a14610359578063502c9bd514610361578063564d56841461038a5780635972d893146103a457600080fd5b8063248a9ca311610210578063248a9ca3146102bf5780632ae478dd146102e25780632f2ff15d1461030d578063352ce6b81461032057806336568abe1461033357600080fd5b8062aeef8a1461024157806301ffc9a7146102565780631940ea101461027e5780631bff2f5e14610291575b600080fd5b61025461024f3660046128e7565b61061a565b005b610269610264366004612913565b61093e565b60405190151581526020015b60405180910390f35b61025461028c366004612960565b610975565b6102b161029f36600461298c565b600b6020526000908152604090205481565b604051908152602001610275565b6102b16102cd36600461298c565b60009081526020819052604090206001015490565b6102f56102f036600461298c565b610a9a565b6040516001600160a01b039091168152602001610275565b61025461031b366004612960565b610aba565b61025461032e3660046129a5565b610ae5565b610254610341366004612960565b610e39565b6102b161035436600461298c565b610e6c565b610254610ef0565b6102f561036f36600461298c565b6007602052600090815260409020546001600160a01b031681565b610392600381565b60405160ff9091168152602001610275565b6102b16103b236600461298c565b610f06565b6102b16103c536600461298c565b610f73565b60035460ff16610269565b6102546103e33660046128e7565b61101a565b6102546103f63660046129e0565b611181565b6102b1610409366004612a12565b6001600160a01b031660009081526002602052604090205490565b6102b161043236600461298c565b61173e565b6102546117ab565b61025461044d366004612a2d565b6117be565b610269610460366004612960565b6000918252602082815260408084206001600160a01b0393909316845291905290205460ff1690565b6102b17fe2b7fb3b832174769106daebcfd6d1970523240dda11281102db9363b83b0dc481565b6102f56104be36600461298c565b6000908152600760205260409020546001600160a01b031690565b6102b1600081565b6102546104ef3660046128e7565b611b7b565b610254610502366004612a12565b611f4c565b6102b161051536600461298c565b60086020526000908152604090205481565b61039261053536600461298c565b600a6020526000908152604090205460ff1681565b61039261055836600461298c565b611fb4565b61025461056b366004612a2d565b612024565b6102f57f000000000000000000000000000000000000000000000000000000000000000081565b6102546105a5366004612960565b612279565b6102546105b8366004612a12565b61229e565b6103926105cb36600461298c565b612314565b6103926105de36600461298c565b60096020526000908152604090205460ff1681565b6102f57f000000000000000000000000000000000000000000000000000000000000000081565b610622612384565b61062a6123aa565b6000838152600760205260409020546001600160a01b03166106895760405162461bcd60e51b8152602060048201526013602482015272155cd95c881b9bdd081c9959da5cdd195c9959606a1b60448201526064015b60405180910390fd5b6000838152600760209081526040808320546001600160a01b03168352600290915290205481146106ec5760405162461bcd60e51b815260206004820152600d60248201526c496e76616c6964206e6f6e636560981b6044820152606401610680565b6000838152600a6020526040902054600160ff90911610801561071c57506000838152600b602052604090205482115b1561075c576000838152600760205260409020546001600160a01b031633146107575760405162461bcd60e51b815260040161068090612a6b565b6107cb565b3360009081527ffaf93c3d007e112089dc8351e013e6685ef67703975d0224b26fc45941d4f1f5602052604090205460ff16806107af57506000838152600760205260409020546001600160a01b031633145b6107cb5760405162461bcd60e51b815260040161068090612aae565b600083815260076020818152604080842080546001600160a01b0390811686526002845291852080546001019055938790529190529054610832917f00000000000000000000000000000000000000000000000000000000000000008116911630856123d4565b60008381526009602052604081205460049060ff166003811061085757610857612b0b565b0154604051636e553f6560e01b8152600481018590523060248201526001600160a01b0390911690636e553f65906044016020604051808303816000875af11580156108a7573d6000803e3d6000fd5b505050506040513d601f19601f820116820180604052508101906108cb9190612b21565b9050806008600086815260200190815260200160002060008282546108f09190612b50565b909155505060408051858152602081018590527fa3af609bf46297028ce551832669030f9effef2b02606d02cbbcc40fe6b47c5591015b60405180910390a15061093960018055565b505050565b60006001600160e01b03198216637965db0b60e01b148061096f57506301ffc9a760e01b6001600160e01b03198316145b92915050565b7fe2b7fb3b832174769106daebcfd6d1970523240dda11281102db9363b83b0dc461099f81612443565b6109a76123aa565b6000838152600760205260409020546001600160a01b031615610a0c5760405162461bcd60e51b815260206004820152601760248201527f5573657220616c726561647920726567697374657265640000000000000000006044820152606401610680565b6000838152600760209081526040808320805473ffffffffffffffffffffffffffffffffffffffff19166001600160a01b038716908117909155600a835292819020805460ff191660011790558051868152918201929092527fb442efe467d2ef30e62927a3cae0afcbc799a8a0944d8a143332e4e5e51cee5d91015b60405180910390a161093960018055565b60048160038110610aaa57600080fd5b01546001600160a01b0316905081565b600082815260208190526040902060010154610ad581612443565b610adf838361244d565b50505050565b610aed612384565b610af56123aa565b6000848152600760205260409020546001600160a01b0316610b4f5760405162461bcd60e51b8152602060048201526013602482015272155cd95c881b9bdd081c9959da5cdd195c9959606a1b6044820152606401610680565b6000848152600760209081526040808320546001600160a01b0316835260029091529020548114610bb25760405162461bcd60e51b815260206004820152600d60248201526c496e76616c6964206e6f6e636560981b6044820152606401610680565b6000848152600a6020526040902054600260ff909116108015610be257506000848152600b602052604090205482115b15610c22576000848152600760205260409020546001600160a01b03163314610c1d5760405162461bcd60e51b815260040161068090612a6b565b610c91565b3360009081527ffaf93c3d007e112089dc8351e013e6685ef67703975d0224b26fc45941d4f1f5602052604090205460ff1680610c7557506000848152600760205260409020546001600160a01b031633145b610c915760405162461bcd60e51b815260040161068090612aae565b600080610c9e86856124f7565b6000888152600760209081526040808320546001600160a01b0316835260028252808320805460010190558a835260099091528120549294509092509060049060ff1660038110610cf157610cf1612b0b565b0154604051632d182be560e21b8152600481018590526001600160a01b0388811660248301523060448301529091169063b460af94906064016020604051808303816000875af1158015610d49573d6000803e3d6000fd5b505050506040513d601f19601f82011682018060405250810190610d6d9190612b21565b905080600860008981526020019081526020016000206000828254610d929190612b63565b90915550508115610de457600087815260076020526040902054610de4906001600160a01b037f00000000000000000000000000000000000000000000000000000000000000008116911688856123d4565b604080518881526001600160a01b03881660208201529081018690527f2e90d1cd7a5e9a5b99747c36130d866c8687bff313d44cdd245df73bcda436219060600160405180910390a1505050610adf60018055565b6001600160a01b0381163314610e625760405163334bd91960e11b815260040160405180910390fd5b61093982826126ee565b6000818152600760205260408120546001600160a01b0316610ec65760405162461bcd60e51b8152602060048201526013602482015272155cd95c881b9bdd081c9959da5cdd195c9959606a1b6044820152606401610680565b6000828152600760209081526040808320546001600160a01b03168352600290915290205461096f565b6000610efb81612443565b610f03612771565b50565b6000818152600760205260408120546001600160a01b0316610f605760405162461bcd60e51b8152602060048201526013602482015272155cd95c881b9bdd081c9959da5cdd195c9959606a1b6044820152606401610680565b5060009081526008602052604090205490565b60008181526009602052604081205460049060ff1660038110610f9857610f98612b0b565b0154600083815260086020526040908190205490516303d1689d60e11b81526001600160a01b03909216916307a2d13a91610fd99160040190815260200190565b602060405180830381865afa158015610ff6573d6000803e3d6000fd5b505050506040513d601f19601f8201168201806040525081019061096f9190612b21565b6110226123aa565b6000838152600760205260409020546001600160a01b031661107c5760405162461bcd60e51b8152602060048201526013602482015272155cd95c881b9bdd081c9959da5cdd195c9959606a1b6044820152606401610680565b6000838152600760209081526040808320546001600160a01b03168352600290915290205481146110df5760405162461bcd60e51b815260206004820152600d60248201526c496e76616c6964206e6f6e636560981b6044820152606401610680565b6000838152600760205260409020546001600160a01b031633146111155760405162461bcd60e51b815260040161068090612a6b565b6000838152600760209081526040808320546001600160a01b031683526002825280832080546001019055858352600b82529182902084905581518581529081018490527f17dfd998cc8150f650ed778095146ae20902ec1c807f7efbdcc166246be80b8e9101610a89565b611189612384565b6111916123aa565b6000848152600760205260409020546001600160a01b03166111eb5760405162461bcd60e51b8152602060048201526013602482015272155cd95c881b9bdd081c9959da5cdd195c9959606a1b6044820152606401610680565b6000848152600760209081526040808320546001600160a01b031683526002909152902054811461124e5760405162461bcd60e51b815260206004820152600d60248201526c496e76616c6964206e6f6e636560981b6044820152606401610680565b6000848152600a6020526040902054600260ff90911610801561127e57506000848152600b602052604090205482115b156112be576000848152600760205260409020546001600160a01b031633146112b95760405162461bcd60e51b815260040161068090612a6b565b61132d565b3360009081527ffaf93c3d007e112089dc8351e013e6685ef67703975d0224b26fc45941d4f1f5602052604090205460ff168061131157506000848152600760205260409020546001600160a01b031633145b61132d5760405162461bcd60e51b815260040161068090612aae565b600084815260096020526040808220548583529082205460ff918216929116908061135888876124f7565b60008a8152600760209081526040808320546001600160a01b031683526002909152902080546001019055909250905060ff8084169085160361146d57600060048560ff16600381106113ad576113ad612b0b565b01546040516363737ac960e11b8152600481018590526001600160a01b039091169063c6e6f59290602401602060405180830381865afa1580156113f5573d6000803e3d6000fd5b505050506040513d601f19601f820116820180604052508101906114199190612b21565b905080600860008b8152602001908152602001600020600082825461143e9190612b63565b909155505060008881526008602052604081208054839290611461908490612b50565b909155506115de915050565b600060048560ff166003811061148557611485612b0b565b0154604051632d182be560e21b815260048101859052306024820181905260448201526001600160a01b039091169063b460af94906064016020604051808303816000875af11580156114dc573d6000803e3d6000fd5b505050506040513d601f19601f820116820180604052508101906115009190612b21565b9050600060048560ff166003811061151a5761151a612b0b565b0154604051636e553f6560e01b8152600481018690523060248201526001600160a01b0390911690636e553f65906044016020604051808303816000875af115801561156a573d6000803e3d6000fd5b505050506040513d601f19601f8201168201806040525081019061158e9190612b21565b905081600860008c815260200190815260200160002060008282546115b39190612b63565b9091555050600089815260086020526040812080548392906115d6908490612b50565b909155505050505b80156116f05760008881526007602052604090205461162b906001600160a01b037f00000000000000000000000000000000000000000000000000000000000000008116911630846123d4565b60008781526009602052604081205460049060ff166003811061165057611650612b0b565b0154604051636e553f6560e01b8152600481018490523060248201526001600160a01b0390911690636e553f65906044016020604051808303816000875af11580156116a0573d6000803e3d6000fd5b505050506040513d601f19601f820116820180604052508101906116c49190612b21565b905080600860008a815260200190815260200160002060008282546116e99190612b50565b9091555050505b60408051898152602081018990529081018790527ff6b9becd23b4420f8fd6f8cde42307ca0cab31c11ad2fcb4f5a966d85dc63b2b9060600160405180910390a150505050610adf60018055565b6000818152600760205260408120546001600160a01b03166117985760405162461bcd60e51b8152602060048201526013602482015272155cd95c881b9bdd081c9959da5cdd195c9959606a1b6044820152606401610680565b506000908152600b602052604090205490565b60006117b681612443565b610f036127c3565b6117c66123aa565b6000838152600760205260409020546001600160a01b03166118205760405162461bcd60e51b8152602060048201526013602482015272155cd95c881b9bdd081c9959da5cdd195c9959606a1b6044820152606401610680565b600360ff8316106118735760405162461bcd60e51b815260206004820152601460248201527f496e76616c6964207269736b2070726f66696c650000000000000000000000006044820152606401610680565b6000838152600760209081526040808320546001600160a01b03168352600290915290205481146118d65760405162461bcd60e51b815260206004820152600d60248201526c496e76616c6964206e6f6e636560981b6044820152606401610680565b6000838152600a6020526040902054600260ff909116101561192d576000838152600760205260409020546001600160a01b031633146119285760405162461bcd60e51b815260040161068090612a6b565b61199c565b3360009081527ffaf93c3d007e112089dc8351e013e6685ef67703975d0224b26fc45941d4f1f5602052604090205460ff168061198057506000838152600760205260409020546001600160a01b031633145b61199c5760405162461bcd60e51b815260040161068090612aae565b6000838152600760209081526040808320546001600160a01b031683526002825280832080546001019055858352600890915290205415611b285760008381526009602052604081205460049060ff16600381106119fc576119fc612b0b565b015460008581526008602052604090819020549051632d182be560e21b81526004810191909152306024820181905260448201526001600160a01b039091169063b460af94906064016020604051808303816000875af1158015611a64573d6000803e3d6000fd5b505050506040513d601f19601f82011682018060405250810190611a889190612b21565b9050600060048460ff1660038110611aa257611aa2612b0b565b0154604051636e553f6560e01b8152600481018490523060248201526001600160a01b0390911690636e553f65906044016020604051808303816000875af1158015611af2573d6000803e3d6000fd5b505050506040513d601f19601f82011682018060405250810190611b169190612b21565b60008681526008602052604090205550505b600083815260096020908152604091829020805460ff191660ff86169081179091558251868152918201527f4a1aad2522dd09c435754834bba69e2394af841f429078ea985a80091519b7649101610a89565b611b83612384565b611b8b6123aa565b6000838152600760205260409020546001600160a01b0316611be55760405162461bcd60e51b8152602060048201526013602482015272155cd95c881b9bdd081c9959da5cdd195c9959606a1b6044820152606401610680565b6000838152600760209081526040808320546001600160a01b0316835260029091529020548114611c485760405162461bcd60e51b815260206004820152600d60248201526c496e76616c6964206e6f6e636560981b6044820152606401610680565b6000838152600a6020526040902054600160ff909116108015611c7857506000838152600b602052604090205482115b15611cb8576000838152600760205260409020546001600160a01b03163314611cb35760405162461bcd60e51b815260040161068090612a6b565b611d27565b3360009081527ffaf93c3d007e112089dc8351e013e6685ef67703975d0224b26fc45941d4f1f5602052604090205460ff1680611d0b57506000838152600760205260409020546001600160a01b031633145b611d275760405162461bcd60e51b815260040161068090612aae565b6000838152600760209081526040808320546001600160a01b031683526002825280832080546001019055858352600990915290205460049060ff1660038110611d7357611d73612b0b565b01546040516363737ac960e11b8152600481018490526001600160a01b039091169063c6e6f59290602401602060405180830381865afa158015611dbb573d6000803e3d6000fd5b505050506040513d601f19601f82011682018060405250810190611ddf9190612b21565b6000848152600860205260409020541015611e3c5760405162461bcd60e51b815260206004820152601160248201527f4e6f7420656e6f756768207368617265730000000000000000000000000000006044820152606401610680565b60008381526009602052604081205460049060ff1660038110611e6157611e61612b0b565b015460008581526007602052604090819020549051632d182be560e21b8152600481018690526001600160a01b03918216602482015230604482015291169063b460af94906064016020604051808303816000875af1158015611ec8573d6000803e3d6000fd5b505050506040513d601f19601f82011682018060405250810190611eec9190612b21565b905080600860008681526020019081526020016000206000828254611f119190612b63565b909155505060408051858152602081018590527f56ca301a9219608c91e7bcee90e083c19671d2cdcc96752c7af291cee5f9c8c89101610927565b6000611f5781612443565b611f5f6123aa565b611f6a600083610aba565b6040516001600160a01b03831681527fa2ea9883a321a3e97b8266c2b078bfeec6d50c711ed71f874a90d500ae2eaf36906020015b60405180910390a1611fb060018055565b5050565b6000818152600760205260408120546001600160a01b031661200e5760405162461bcd60e51b8152602060048201526013602482015272155cd95c881b9bdd081c9959da5cdd195c9959606a1b6044820152606401610680565b5060009081526009602052604090205460ff1690565b61202c6123aa565b6000838152600760205260409020546001600160a01b03166120865760405162461bcd60e51b8152602060048201526013602482015272155cd95c881b9bdd081c9959da5cdd195c9959606a1b6044820152606401610680565b600360ff8316106120d95760405162461bcd60e51b815260206004820152601460248201527f496e76616c696420617574682070726f66696c650000000000000000000000006044820152606401610680565b6000838152600760209081526040808320546001600160a01b031683526002909152902054811461213c5760405162461bcd60e51b815260206004820152600d60248201526c496e76616c6964206e6f6e636560981b6044820152606401610680565b6000838152600a6020526040902054600260ff9091161015612193576000838152600760205260409020546001600160a01b0316331461218e5760405162461bcd60e51b815260040161068090612a6b565b612202565b3360009081527ffaf93c3d007e112089dc8351e013e6685ef67703975d0224b26fc45941d4f1f5602052604090205460ff16806121e657506000838152600760205260409020546001600160a01b031633145b6122025760405162461bcd60e51b815260040161068090612aae565b6000838152600760209081526040808320546001600160a01b031683526002825280832080546001019055858352600a825291829020805460ff191660ff86169081179091558251868152918201527fa535332199fc6ba20738ea9ab2b789d80cd575920c1e5a0210a17185423c49d89101610a89565b60008281526020819052604090206001015461229481612443565b610adf83836126ee565b60006122a981612443565b6122b16123aa565b6122db7fe2b7fb3b832174769106daebcfd6d1970523240dda11281102db9363b83b0dc483610aba565b6040516001600160a01b03831681527f03580ee9f53a62b7cb409a2cb56f9be87747dd15017afc5cef6eef321e4fb2c590602001611f9f565b6000818152600760205260408120546001600160a01b031661236e5760405162461bcd60e51b8152602060048201526013602482015272155cd95c881b9bdd081c9959da5cdd195c9959606a1b6044820152606401610680565b506000908152600a602052604090205460ff1690565b60035460ff16156123a85760405163d93c066560e01b815260040160405180910390fd5b565b6002600154036123cd57604051633ee5aeb560e01b815260040160405180910390fd5b6002600155565b604080516001600160a01b0385811660248301528416604482015260648082018490528251808303909101815260849091019091526020810180517bffffffffffffffffffffffffffffffffffffffffffffffffffffffff166323b872dd60e01b179052610adf908590612800565b610f038133612871565b6000828152602081815260408083206001600160a01b038516845290915281205460ff166124ef576000838152602081815260408083206001600160a01b03861684529091529020805460ff191660011790556124a73390565b6001600160a01b0316826001600160a01b0316847f2f8788117e7eff1d82e926ec794901d17c78024a50270940304540a733656f0d60405160405180910390a450600161096f565b50600061096f565b6000828152600960205260408120548190819060049060ff166003811061252057612520612b0b565b0154600086815260086020526040908190205490516303d1689d60e11b81526001600160a01b03909216916307a2d13a916125619160040190815260200190565b602060405180830381865afa15801561257e573d6000803e3d6000fd5b505050506040513d601f19601f820116820180604052508101906125a29190612b21565b9050808410156125b95783600092509250506126e7565b6000858152600760205260408082205490516370a0823160e01b81526001600160a01b0391821660048201527f0000000000000000000000000000000000000000000000000000000000000000909116906370a0823190602401602060405180830381865afa158015612630573d6000803e3d6000fd5b505050506040513d601f19601f820116820180604052508101906126549190612b21565b9050846126618383612b50565b10156126d55760405162461bcd60e51b815260206004820152603160248201527f4e6f7420656e6f7567682061737365747320696e207661756c7420616e64207760448201527f616c6c657420746f207472616e736665720000000000000000000000000000006064820152608401610680565b816126e08187612b63565b9350935050505b9250929050565b6000828152602081815260408083206001600160a01b038516845290915281205460ff16156124ef576000838152602081815260408083206001600160a01b0386168085529252808320805460ff1916905551339286917ff6391f5c32d9c69d2a47ea670b442974b53935d1edc7fd64eb21e047a839171b9190a450600161096f565b6127796128c4565b6003805460ff191690557f5db9ee0a495bf2e6ff9c91a7834c1ba4fdd244a5e8aa4e537bd38aeae4b073aa335b6040516001600160a01b03909116815260200160405180910390a1565b6127cb612384565b6003805460ff191660011790557f62e78cea01bee320cd4e420270b5ea74000d11b0c9f74754ebdbfc544b05a2586127a63390565b600080602060008451602086016000885af180612823576040513d6000823e3d81fd5b50506000513d9150811561283b578060011415612848565b6001600160a01b0384163b155b15610adf57604051635274afe760e01b81526001600160a01b0385166004820152602401610680565b6000828152602081815260408083206001600160a01b038516845290915290205460ff16611fb05760405163e2517d3f60e01b81526001600160a01b038216600482015260248101839052604401610680565b60035460ff166123a857604051638dfc202b60e01b815260040160405180910390fd5b6000806000606084860312156128fc57600080fd5b505081359360208301359350604090920135919050565b60006020828403121561292557600080fd5b81356001600160e01b03198116811461293d57600080fd5b9392505050565b80356001600160a01b038116811461295b57600080fd5b919050565b6000806040838503121561297357600080fd5b8235915061298360208401612944565b90509250929050565b60006020828403121561299e57600080fd5b5035919050565b600080600080608085870312156129bb57600080fd5b843593506129cb60208601612944565b93969395505050506040820135916060013590565b600080600080608085870312156129f657600080fd5b5050823594602084013594506040840135936060013592509050565b600060208284031215612a2457600080fd5b61293d82612944565b600080600060608486031215612a4257600080fd5b83359250602084013560ff81168114612a5a57600080fd5b929592945050506040919091013590565b60208082526023908201527f5468652075736572206d75737420617574686f72697a6520746869732061637460408201526234b7b760e91b606082015260800190565b6020808252603e908201527f4f6e6c7920617574686f72697a65642072656c6179657273206f72207468652060408201527f757365722063616e20617574686f72697a65207468697320616374696f6e0000606082015260800190565b634e487b7160e01b600052603260045260246000fd5b600060208284031215612b3357600080fd5b5051919050565b634e487b7160e01b600052601160045260246000fd5b8082018082111561096f5761096f612b3a565b8181038181111561096f5761096f612b3a56fea2646970667358221220e41926d464fe6c9c5e3e05072b2741bc4f2c05d8e64afd59946b115e542e4c9864736f6c634300081c0033",
  "linkReferences": {},
  "deployedLinkReferences": {}
}